{
  "_format": "hh-sol-artifact-1",
  "contractName": "Dungeon",
  "sourceName": "contracts/Dungeon.sol",
  "abi": [
    {
      "inputs": [
        {
          "internalType": "uint256",
          "name": "_tokenId",
          "type": "uint256"
        },
        {
          "internalType": "address",
          "name": "_user",
          "type": "address"
        }
      ],
      "name": "bossFight",
      "outputs": [],
      "stateMutability": "nonpayable",
      "type": "function"
    },
    {
      "inputs": [
        {
          "internalType": "uint256",
          "name": "_tokenId",
          "type": "uint256"
        },
        {
          "internalType": "address",
          "name": "_user",
          "type": "address"
        }
      ],
      "name": "claimBossFight",
      "outputs": [],
      "stateMutability": "nonpayable",
      "type": "function"
    },
    {
      "inputs": [
        {
          "internalType": "address",
          "name": "",
          "type": "address"
        },
        {
          "internalType": "uint256",
          "name": "",
          "type": "uint256"
        }
      ],
      "name": "myMonsterOnBoss",
      "outputs": [
        {
          "internalType": "uint256",
          "name": "",
          "type": "uint256"
        }
      ],
      "stateMutability": "view",
      "type": "function"
    },
    {
      "inputs": [
        {
          "internalType": "address",
          "name": "monsterNFT",
          "type": "address"
        },
        {
          "internalType": "address",
          "name": "itemNFT",
          "type": "address"
        }
      ],
      "name": "setInterface",
      "outputs": [],
      "stateMutability": "nonpayable",
      "type": "function"
    }
  ],
  "bytecode": "0x608060405234801561001057600080fd5b50611914806100206000396000f3fe608060405234801561001057600080fd5b506004361061004c5760003560e01c806302d8f2b5146100515780634ca4c1ad1461006d578063858253cf1461009d578063d28272be146100b9575b600080fd5b61006b6004803603810190610066919061123f565b6100d5565b005b6100876004803603810190610082919061127b565b61019b565b6040516100949190611549565b60405180910390f35b6100b760048036038101906100b291906112e0565b6101cc565b005b6100d360048036038101906100ce91906112e0565b6107d8565b005b816000806101000a81548173ffffffffffffffffffffffffffffffffffffffff021916908373ffffffffffffffffffffffffffffffffffffffff16021790555081600160006101000a81548173ffffffffffffffffffffffffffffffffffffffff021916908373ffffffffffffffffffffffffffffffffffffffff16021790555080600260006101000a81548173ffffffffffffffffffffffffffffffffffffffff021916908373ffffffffffffffffffffffffffffffffffffffff1602179055505050565b600460205281600052604060002081815481106101b757600080fd5b90600052602060002001600091509150505481565b6000600160009054906101000a900473ffffffffffffffffffffffffffffffffffffffff1673ffffffffffffffffffffffffffffffffffffffff1663c7bd6c31846040518263ffffffff1660e01b81526004016102299190611549565b60206040518083038186803b15801561024157600080fd5b505afa158015610255573d6000803e3d6000fd5b505050506040513d601f19601f8201168201806040525081019061027991906112b7565b9050600060148261028a91906115f0565b90506000600890506000600160009054906101000a900473ffffffffffffffffffffffffffffffffffffffff1673ffffffffffffffffffffffffffffffffffffffff16635f273e18876040518263ffffffff1660e01b81526004016102ef9190611549565b60206040518083038186803b15801561030757600080fd5b505afa15801561031b573d6000803e3d6000fd5b505050506040513d601f19601f8201168201806040525081019061033f91906112b7565b905061034b8686610d72565b61038a576040517f08c379a0000000000000000000000000000000000000000000000000000000008152600401610381906114a9565b60405180910390fd5b600160009054906101000a900473ffffffffffffffffffffffffffffffffffffffff1673ffffffffffffffffffffffffffffffffffffffff16634fc3f41a876040518263ffffffff1660e01b81526004016103e59190611549565b600060405180830381600087803b1580156103ff57600080fd5b505af1158015610413573d6000803e3d6000fd5b50505050600160009054906101000a900473ffffffffffffffffffffffffffffffffffffffff1673ffffffffffffffffffffffffffffffffffffffff16632d712c7687856040518363ffffffff1660e01b81526004016104749291906115b6565b600060405180830381600087803b15801561048e57600080fd5b505af11580156104a2573d6000803e3d6000fd5b50505050600160009054906101000a900473ffffffffffffffffffffffffffffffffffffffff1673ffffffffffffffffffffffffffffffffffffffff1663a6cb826e87846040518363ffffffff1660e01b81526004016105039291906115b6565b600060405180830381600087803b15801561051d57600080fd5b505af1158015610531573d6000803e3d6000fd5b5050505060018114156105e457600260009054906101000a900473ffffffffffffffffffffffffffffffffffffffff1673ffffffffffffffffffffffffffffffffffffffff1663088d853386610585610e83565b61058f601e610ee3565b6040518463ffffffff1660e01b81526004016105ad93929190611472565b600060405180830381600087803b1580156105c757600080fd5b505af11580156105db573d6000803e3d6000fd5b50505050610736565b600281141561069357600260009054906101000a900473ffffffffffffffffffffffffffffffffffffffff1673ffffffffffffffffffffffffffffffffffffffff1663088d853386610634610e83565b61063e603c610ee3565b6040518463ffffffff1660e01b815260040161065c93929190611472565b600060405180830381600087803b15801561067657600080fd5b505af115801561068a573d6000803e3d6000fd5b50505050610735565b600260009054906101000a900473ffffffffffffffffffffffffffffffffffffffff1673ffffffffffffffffffffffffffffffffffffffff1663088d8533866106da610e83565b6106e4605a610ee3565b6040518463ffffffff1660e01b815260040161070293929190611472565b600060405180830381600087803b15801561071c57600080fd5b505af1158015610730573d6000803e3d6000fd5b505050505b5b600160009054906101000a900473ffffffffffffffffffffffffffffffffffffffff1673ffffffffffffffffffffffffffffffffffffffff166382e408138760006040518363ffffffff1660e01b8152600401610794929190611564565b600060405180830381600087803b1580156107ae57600080fd5b505af11580156107c2573d6000803e3d6000fd5b505050506107d08686610f44565b505050505050565b8073ffffffffffffffffffffffffffffffffffffffff1660008054906101000a900473ffffffffffffffffffffffffffffffffffffffff1673ffffffffffffffffffffffffffffffffffffffff16636352211e846040518263ffffffff1660e01b81526004016108489190611549565b60206040518083038186803b15801561086057600080fd5b505afa158015610874573d6000803e3d6000fd5b505050506040513d601f19601f820116820180604052508101906108989190611216565b73ffffffffffffffffffffffffffffffffffffffff16146108ee576040517f08c379a00000000000000000000000000000000000000000000000000000000081526004016108e5906114c9565b60405180910390fd5b6000600160009054906101000a900473ffffffffffffffffffffffffffffffffffffffff1673ffffffffffffffffffffffffffffffffffffffff16635f273e18846040518263ffffffff1660e01b815260040161094b9190611549565b60206040518083038186803b15801561096357600080fd5b505afa158015610977573d6000803e3d6000fd5b505050506040513d601f19601f8201168201806040525081019061099b91906112b7565b90506000600160009054906101000a900473ffffffffffffffffffffffffffffffffffffffff1673ffffffffffffffffffffffffffffffffffffffff166360e2f2fb856040518263ffffffff1660e01b81526004016109fa9190611549565b60206040518083038186803b158015610a1257600080fd5b505afa158015610a26573d6000803e3d6000fd5b505050506040513d601f19601f82011682018060405250810190610a4a91906112b7565b90506000600160009054906101000a900473ffffffffffffffffffffffffffffffffffffffff1673ffffffffffffffffffffffffffffffffffffffff1663c7bd6c31866040518263ffffffff1660e01b8152600401610aa99190611549565b60206040518083038186803b158015610ac157600080fd5b505afa158015610ad5573d6000803e3d6000fd5b505050506040513d601f19601f82011682018060405250810190610af991906112b7565b90506000600160009054906101000a900473ffffffffffffffffffffffffffffffffffffffff1673ffffffffffffffffffffffffffffffffffffffff16634d85cebf876040518263ffffffff1660e01b8152600401610b589190611549565b60206040518083038186803b158015610b7057600080fd5b505afa158015610b84573d6000803e3d6000fd5b505050506040513d601f19601f82011682018060405250810190610ba891906112b7565b905060008314610bed576040517f08c379a0000000000000000000000000000000000000000000000000000000008152600401610be490611529565b60405180910390fd5b60008114610c30576040517f08c379a0000000000000000000000000000000000000000000000000000000008152600401610c27906114e9565b60405180910390fd5b6014821015610c74576040517f08c379a0000000000000000000000000000000000000000000000000000000008152600401610c6b90611509565b60405180910390fd5b600160009054906101000a900473ffffffffffffffffffffffffffffffffffffffff1673ffffffffffffffffffffffffffffffffffffffff166382e408138760036040518363ffffffff1660e01b8152600401610cd292919061158d565b600060405180830381600087803b158015610cec57600080fd5b505af1158015610d00573d6000803e3d6000fd5b50505050600460008673ffffffffffffffffffffffffffffffffffffffff1673ffffffffffffffffffffffffffffffffffffffff168152602001908152602001600020869080600181540180825580915050600190039060005260206000200160009091909190915055505050505050565b600080600460008473ffffffffffffffffffffffffffffffffffffffff1673ffffffffffffffffffffffffffffffffffffffff168152602001908152602001600020805480602002602001604051908101604052809291908181526020018280548015610dfe57602002820191906000526020600020905b815481526020019060010190808311610dea575b5050505050905060008151905060005b81811015610e7a576000838281518110610e51577f4e487b7100000000000000000000000000000000000000000000000000000000600052603260045260246000fd5b6020026020010151905086811415610e6857600194505b5080610e7390611684565b9050610e0e565b50505092915050565b60008060644233600354604051602001610e9f93929190611435565b6040516020818303038152906040528051906020012060001c610ec291906116fb565b905060036000815480929190610ed790611684565b91905055508091505090565b600080824233600354604051602001610efe93929190611435565b6040516020818303038152906040528051906020012060001c610f2191906116fb565b905060036000815480929190610f3690611684565b919050555080915050919050565b6000600460008373ffffffffffffffffffffffffffffffffffffffff1673ffffffffffffffffffffffffffffffffffffffff16815260200190815260200160002090506000600460008473ffffffffffffffffffffffffffffffffffffffff1673ffffffffffffffffffffffffffffffffffffffff16815260200190815260200160002080548060200260200160405190810160405280929190818152602001828054801561101257602002820191906000526020600020905b815481526020019060010190808311610ffe575b505050505090506000815190506000805b828110156110d1576000848281518110611066577f4e487b7100000000000000000000000000000000000000000000000000000000600052603260045260246000fd5b60200260200101519050878683815481106110aa577f4e487b7100000000000000000000000000000000000000000000000000000000600052603260045260246000fd5b906000526020600020015414156110bf578192505b50806110ca90611684565b9050611023565b5083600185805490506110e491906115f0565b8154811061111b577f4e487b7100000000000000000000000000000000000000000000000000000000600052603260045260246000fd5b906000526020600020015484828154811061115f577f4e487b7100000000000000000000000000000000000000000000000000000000600052603260045260246000fd5b9060005260206000200181905550838054806111a4577f4e487b7100000000000000000000000000000000000000000000000000000000600052603160045260246000fd5b60019003818190600052602060002001600090559055505050505050565b6000813590506111d1816118b0565b92915050565b6000815190506111e6816118b0565b92915050565b6000813590506111fb816118c7565b92915050565b600081519050611210816118c7565b92915050565b60006020828403121561122857600080fd5b6000611236848285016111d7565b91505092915050565b6000806040838503121561125257600080fd5b6000611260858286016111c2565b9250506020611271858286016111c2565b9150509250929050565b6000806040838503121561128e57600080fd5b600061129c858286016111c2565b92505060206112ad858286016111ec565b9150509250929050565b6000602082840312156112c957600080fd5b60006112d784828501611201565b91505092915050565b600080604083850312156112f357600080fd5b6000611301858286016111ec565b9250506020611312858286016111c2565b9150509250929050565b61132581611624565b82525050565b61133c61133782611624565b6116cd565b82525050565b61134b81611660565b82525050565b61135a81611672565b82525050565b600061136d6021836115df565b915061137882611797565b604082019050919050565b60006113906015836115df565b915061139b826117e6565b602082019050919050565b60006113b3601f836115df565b91506113be8261180f565b602082019050919050565b60006113d66011836115df565b91506113e182611838565b602082019050919050565b60006113f96027836115df565b915061140482611861565b604082019050919050565b61141881611656565b82525050565b61142f61142a82611656565b6116f1565b82525050565b6000611441828661141e565b602082019150611451828561132b565b601482019150611461828461141e565b602082019150819050949350505050565b6000606082019050611487600083018661131c565b611494602083018561140f565b6114a1604083018461140f565b949350505050565b600060208201905081810360008301526114c281611360565b9050919050565b600060208201905081810360008301526114e281611383565b9050919050565b60006020820190508181036000830152611502816113a6565b9050919050565b60006020820190508181036000830152611522816113c9565b9050919050565b60006020820190508181036000830152611542816113ec565b9050919050565b600060208201905061155e600083018461140f565b92915050565b6000604082019050611579600083018561140f565b6115866020830184611342565b9392505050565b60006040820190506115a2600083018561140f565b6115af6020830184611351565b9392505050565b60006040820190506115cb600083018561140f565b6115d8602083018461140f565b9392505050565b600082825260208201905092915050565b60006115fb82611656565b915061160683611656565b9250828210156116195761161861172c565b5b828203905092915050565b600061162f82611636565b9050919050565b600073ffffffffffffffffffffffffffffffffffffffff82169050919050565b6000819050919050565b600061166b82611656565b9050919050565b600061167d82611656565b9050919050565b600061168f82611656565b91507fffffffffffffffffffffffffffffffffffffffffffffffffffffffffffffffff8214156116c2576116c161172c565b5b600182019050919050565b60006116d8826116df565b9050919050565b60006116ea8261178a565b9050919050565b6000819050919050565b600061170682611656565b915061171183611656565b9250826117215761172061175b565b5b828206905092915050565b7f4e487b7100000000000000000000000000000000000000000000000000000000600052601160045260246000fd5b7f4e487b7100000000000000000000000000000000000000000000000000000000600052601260045260246000fd5b60008160601b9050919050565b7f596f7572206d6f6e73746572206973206e6f74206f6e20626f7373206669676860008201527f7400000000000000000000000000000000000000000000000000000000000000602082015250565b7f49742773206e6f7420796f7572206d6f6e737465720000000000000000000000600082015250565b7f20596f7572206d6f6e73746572207374696c6c206f6e20636f6f6c646f776e00600082015250565b7f4e6f7420656e6f7567682068756e676572000000000000000000000000000000600082015250565b7f596f7572206d6f6e73746572207374696c6c20776f726b696e67206f6e20736f60008201527f6d657468696e6700000000000000000000000000000000000000000000000000602082015250565b6118b981611624565b81146118c457600080fd5b50565b6118d081611656565b81146118db57600080fd5b5056fea264697066735822122021c993ead432f521a91a650e1cb572f7c3e4bb4efd4cfcdbc8d44b5b8acfe9d864736f6c63430008040033",
  "linkReferences": {},
  "deployedLinkReferences": {}
}