{
  "_format": "hh-sol-artifact-1",
  "contractName": "Dungeon",
  "sourceName": "contracts/Dungeon.sol",
  "abi": [
    {
      "inputs": [
        {
          "internalType": "uint256",
          "name": "_tokenId",
          "type": "uint256"
        },
        {
          "internalType": "address",
          "name": "_user",
          "type": "address"
        }
      ],
      "name": "bossFight",
      "outputs": [],
      "stateMutability": "nonpayable",
      "type": "function"
    },
    {
      "inputs": [
        {
          "internalType": "uint256",
          "name": "_tokenId",
          "type": "uint256"
        },
        {
          "internalType": "address",
          "name": "_user",
          "type": "address"
        }
      ],
      "name": "claimBossFight",
      "outputs": [],
      "stateMutability": "nonpayable",
      "type": "function"
    },
    {
      "inputs": [
        {
          "internalType": "address",
          "name": "_user",
          "type": "address"
        }
      ],
      "name": "getMyMonsters",
      "outputs": [
        {
          "internalType": "uint256[]",
          "name": "monsters",
          "type": "uint256[]"
        }
      ],
      "stateMutability": "view",
      "type": "function"
    },
    {
      "inputs": [
        {
          "internalType": "address",
          "name": "",
          "type": "address"
        },
        {
          "internalType": "uint256",
          "name": "",
          "type": "uint256"
        }
      ],
      "name": "myMonsterOnBoss",
      "outputs": [
        {
          "internalType": "uint256",
          "name": "",
          "type": "uint256"
        }
      ],
      "stateMutability": "view",
      "type": "function"
    },
    {
      "inputs": [
        {
          "internalType": "address",
          "name": "monsterNFT",
          "type": "address"
        },
        {
          "internalType": "address",
          "name": "itemNFT",
          "type": "address"
        }
      ],
      "name": "setInterface",
      "outputs": [],
      "stateMutability": "nonpayable",
      "type": "function"
    }
  ],
  "bytecode": "0x608060405234801561001057600080fd5b50611aef806100206000396000f3fe608060405234801561001057600080fd5b50600436106100575760003560e01c806302d8f2b51461005c5780634ca4c1ad14610078578063858253cf146100a8578063d28272be146100c4578063f78fb324146100e0575b600080fd5b6100766004803603810190610071919061133a565b610110565b005b610092600480360381019061008d9190611376565b6101d6565b60405161009f91906116eb565b60405180910390f35b6100c260048036038101906100bd91906113db565b610207565b005b6100de60048036038101906100d991906113db565b610813565b005b6100fa60048036038101906100f591906112e8565b610dad565b6040516101079190611629565b60405180910390f35b816000806101000a81548173ffffffffffffffffffffffffffffffffffffffff021916908373ffffffffffffffffffffffffffffffffffffffff16021790555081600160006101000a81548173ffffffffffffffffffffffffffffffffffffffff021916908373ffffffffffffffffffffffffffffffffffffffff16021790555080600260006101000a81548173ffffffffffffffffffffffffffffffffffffffff021916908373ffffffffffffffffffffffffffffffffffffffff1602179055505050565b600460205281600052604060002081815481106101f257600080fd5b90600052602060002001600091509150505481565b6000600160009054906101000a900473ffffffffffffffffffffffffffffffffffffffff1673ffffffffffffffffffffffffffffffffffffffff1663c7bd6c31846040518263ffffffff1660e01b815260040161026491906116eb565b60206040518083038186803b15801561027c57600080fd5b505afa158015610290573d6000803e3d6000fd5b505050506040513d601f19601f820116820180604052508101906102b491906113b2565b905060006014826102c591906117cb565b90506000600890506000600160009054906101000a900473ffffffffffffffffffffffffffffffffffffffff1673ffffffffffffffffffffffffffffffffffffffff16635f273e18876040518263ffffffff1660e01b815260040161032a91906116eb565b60206040518083038186803b15801561034257600080fd5b505afa158015610356573d6000803e3d6000fd5b505050506040513d601f19601f8201168201806040525081019061037a91906113b2565b90506103868686610e44565b6103c5576040517f08c379a00000000000000000000000000000000000000000000000000000000081526004016103bc9061164b565b60405180910390fd5b600160009054906101000a900473ffffffffffffffffffffffffffffffffffffffff1673ffffffffffffffffffffffffffffffffffffffff16634fc3f41a876040518263ffffffff1660e01b815260040161042091906116eb565b600060405180830381600087803b15801561043a57600080fd5b505af115801561044e573d6000803e3d6000fd5b50505050600160009054906101000a900473ffffffffffffffffffffffffffffffffffffffff1673ffffffffffffffffffffffffffffffffffffffff16632d712c7687856040518363ffffffff1660e01b81526004016104af929190611758565b600060405180830381600087803b1580156104c957600080fd5b505af11580156104dd573d6000803e3d6000fd5b50505050600160009054906101000a900473ffffffffffffffffffffffffffffffffffffffff1673ffffffffffffffffffffffffffffffffffffffff1663a6cb826e87846040518363ffffffff1660e01b815260040161053e929190611758565b600060405180830381600087803b15801561055857600080fd5b505af115801561056c573d6000803e3d6000fd5b50505050600181141561061f57600260009054906101000a900473ffffffffffffffffffffffffffffffffffffffff1673ffffffffffffffffffffffffffffffffffffffff1663088d8533866105c0610f55565b6105ca601e610fb5565b6040518463ffffffff1660e01b81526004016105e8939291906115f2565b600060405180830381600087803b15801561060257600080fd5b505af1158015610616573d6000803e3d6000fd5b50505050610771565b60028114156106ce57600260009054906101000a900473ffffffffffffffffffffffffffffffffffffffff1673ffffffffffffffffffffffffffffffffffffffff1663088d85338661066f610f55565b610679603c610fb5565b6040518463ffffffff1660e01b8152600401610697939291906115f2565b600060405180830381600087803b1580156106b157600080fd5b505af11580156106c5573d6000803e3d6000fd5b50505050610770565b600260009054906101000a900473ffffffffffffffffffffffffffffffffffffffff1673ffffffffffffffffffffffffffffffffffffffff1663088d853386610715610f55565b61071f605a610fb5565b6040518463ffffffff1660e01b815260040161073d939291906115f2565b600060405180830381600087803b15801561075757600080fd5b505af115801561076b573d6000803e3d6000fd5b505050505b5b600160009054906101000a900473ffffffffffffffffffffffffffffffffffffffff1673ffffffffffffffffffffffffffffffffffffffff166382e408138760006040518363ffffffff1660e01b81526004016107cf929190611706565b600060405180830381600087803b1580156107e957600080fd5b505af11580156107fd573d6000803e3d6000fd5b5050505061080b8686611016565b505050505050565b8073ffffffffffffffffffffffffffffffffffffffff1660008054906101000a900473ffffffffffffffffffffffffffffffffffffffff1673ffffffffffffffffffffffffffffffffffffffff16636352211e846040518263ffffffff1660e01b815260040161088391906116eb565b60206040518083038186803b15801561089b57600080fd5b505afa1580156108af573d6000803e3d6000fd5b505050506040513d601f19601f820116820180604052508101906108d39190611311565b73ffffffffffffffffffffffffffffffffffffffff1614610929576040517f08c379a00000000000000000000000000000000000000000000000000000000081526004016109209061166b565b60405180910390fd5b6000600160009054906101000a900473ffffffffffffffffffffffffffffffffffffffff1673ffffffffffffffffffffffffffffffffffffffff16635f273e18846040518263ffffffff1660e01b815260040161098691906116eb565b60206040518083038186803b15801561099e57600080fd5b505afa1580156109b2573d6000803e3d6000fd5b505050506040513d601f19601f820116820180604052508101906109d691906113b2565b90506000600160009054906101000a900473ffffffffffffffffffffffffffffffffffffffff1673ffffffffffffffffffffffffffffffffffffffff166360e2f2fb856040518263ffffffff1660e01b8152600401610a3591906116eb565b60206040518083038186803b158015610a4d57600080fd5b505afa158015610a61573d6000803e3d6000fd5b505050506040513d601f19601f82011682018060405250810190610a8591906113b2565b90506000600160009054906101000a900473ffffffffffffffffffffffffffffffffffffffff1673ffffffffffffffffffffffffffffffffffffffff1663c7bd6c31866040518263ffffffff1660e01b8152600401610ae491906116eb565b60206040518083038186803b158015610afc57600080fd5b505afa158015610b10573d6000803e3d6000fd5b505050506040513d601f19601f82011682018060405250810190610b3491906113b2565b90506000600160009054906101000a900473ffffffffffffffffffffffffffffffffffffffff1673ffffffffffffffffffffffffffffffffffffffff16634d85cebf876040518263ffffffff1660e01b8152600401610b9391906116eb565b60206040518083038186803b158015610bab57600080fd5b505afa158015610bbf573d6000803e3d6000fd5b505050506040513d601f19601f82011682018060405250810190610be391906113b2565b905060008314610c28576040517f08c379a0000000000000000000000000000000000000000000000000000000008152600401610c1f906116cb565b60405180910390fd5b60008114610c6b576040517f08c379a0000000000000000000000000000000000000000000000000000000008152600401610c629061168b565b60405180910390fd5b6014821015610caf576040517f08c379a0000000000000000000000000000000000000000000000000000000008152600401610ca6906116ab565b60405180910390fd5b600160009054906101000a900473ffffffffffffffffffffffffffffffffffffffff1673ffffffffffffffffffffffffffffffffffffffff166382e408138760036040518363ffffffff1660e01b8152600401610d0d92919061172f565b600060405180830381600087803b158015610d2757600080fd5b505af1158015610d3b573d6000803e3d6000fd5b50505050600460008673ffffffffffffffffffffffffffffffffffffffff1673ffffffffffffffffffffffffffffffffffffffff168152602001908152602001600020869080600181540180825580915050600190039060005260206000200160009091909190915055505050505050565b6060600460008373ffffffffffffffffffffffffffffffffffffffff1673ffffffffffffffffffffffffffffffffffffffff168152602001908152602001600020805480602002602001604051908101604052809291908181526020018280548015610e3857602002820191906000526020600020905b815481526020019060010190808311610e24575b50505050509050919050565b600080600460008473ffffffffffffffffffffffffffffffffffffffff1673ffffffffffffffffffffffffffffffffffffffff168152602001908152602001600020805480602002602001604051908101604052809291908181526020018280548015610ed057602002820191906000526020600020905b815481526020019060010190808311610ebc575b5050505050905060008151905060005b81811015610f4c576000838281518110610f23577f4e487b7100000000000000000000000000000000000000000000000000000000600052603260045260246000fd5b6020026020010151905086811415610f3a57600194505b5080610f459061185f565b9050610ee0565b50505092915050565b60008060644233600354604051602001610f71939291906115b5565b6040516020818303038152906040528051906020012060001c610f9491906118d6565b905060036000815480929190610fa99061185f565b91905055508091505090565b600080824233600354604051602001610fd0939291906115b5565b6040516020818303038152906040528051906020012060001c610ff391906118d6565b9050600360008154809291906110089061185f565b919050555080915050919050565b6000600460008373ffffffffffffffffffffffffffffffffffffffff1673ffffffffffffffffffffffffffffffffffffffff16815260200190815260200160002090506000600460008473ffffffffffffffffffffffffffffffffffffffff1673ffffffffffffffffffffffffffffffffffffffff1681526020019081526020016000208054806020026020016040519081016040528092919081815260200182805480156110e457602002820191906000526020600020905b8154815260200190600101908083116110d0575b505050505090506000815190506000805b828110156111a3576000848281518110611138577f4e487b7100000000000000000000000000000000000000000000000000000000600052603260045260246000fd5b602002602001015190508786838154811061117c577f4e487b7100000000000000000000000000000000000000000000000000000000600052603260045260246000fd5b90600052602060002001541415611191578192505b508061119c9061185f565b90506110f5565b5083600185805490506111b691906117cb565b815481106111ed577f4e487b7100000000000000000000000000000000000000000000000000000000600052603260045260246000fd5b9060005260206000200154848281548110611231577f4e487b7100000000000000000000000000000000000000000000000000000000600052603260045260246000fd5b906000526020600020018190555083805480611276577f4e487b7100000000000000000000000000000000000000000000000000000000600052603160045260246000fd5b60019003818190600052602060002001600090559055505050505050565b6000813590506112a381611a8b565b92915050565b6000815190506112b881611a8b565b92915050565b6000813590506112cd81611aa2565b92915050565b6000815190506112e281611aa2565b92915050565b6000602082840312156112fa57600080fd5b600061130884828501611294565b91505092915050565b60006020828403121561132357600080fd5b6000611331848285016112a9565b91505092915050565b6000806040838503121561134d57600080fd5b600061135b85828601611294565b925050602061136c85828601611294565b9150509250929050565b6000806040838503121561138957600080fd5b600061139785828601611294565b92505060206113a8858286016112be565b9150509250929050565b6000602082840312156113c457600080fd5b60006113d2848285016112d3565b91505092915050565b600080604083850312156113ee57600080fd5b60006113fc858286016112be565b925050602061140d85828601611294565b9150509250929050565b60006114238383611580565b60208301905092915050565b611438816117ff565b82525050565b61144f61144a826117ff565b6118a8565b82525050565b600061146082611791565b61146a81856117a9565b935061147583611781565b8060005b838110156114a657815161148d8882611417565b97506114988361179c565b925050600181019050611479565b5085935050505092915050565b6114bc8161183b565b82525050565b6114cb8161184d565b82525050565b60006114de6021836117ba565b91506114e982611972565b604082019050919050565b60006115016015836117ba565b915061150c826119c1565b602082019050919050565b6000611524601f836117ba565b915061152f826119ea565b602082019050919050565b60006115476011836117ba565b915061155282611a13565b602082019050919050565b600061156a6027836117ba565b915061157582611a3c565b604082019050919050565b61158981611831565b82525050565b61159881611831565b82525050565b6115af6115aa82611831565b6118cc565b82525050565b60006115c1828661159e565b6020820191506115d1828561143e565b6014820191506115e1828461159e565b602082019150819050949350505050565b6000606082019050611607600083018661142f565b611614602083018561158f565b611621604083018461158f565b949350505050565b600060208201905081810360008301526116438184611455565b905092915050565b60006020820190508181036000830152611664816114d1565b9050919050565b60006020820190508181036000830152611684816114f4565b9050919050565b600060208201905081810360008301526116a481611517565b9050919050565b600060208201905081810360008301526116c48161153a565b9050919050565b600060208201905081810360008301526116e48161155d565b9050919050565b6000602082019050611700600083018461158f565b92915050565b600060408201905061171b600083018561158f565b61172860208301846114b3565b9392505050565b6000604082019050611744600083018561158f565b61175160208301846114c2565b9392505050565b600060408201905061176d600083018561158f565b61177a602083018461158f565b9392505050565b6000819050602082019050919050565b600081519050919050565b6000602082019050919050565b600082825260208201905092915050565b600082825260208201905092915050565b60006117d682611831565b91506117e183611831565b9250828210156117f4576117f3611907565b5b828203905092915050565b600061180a82611811565b9050919050565b600073ffffffffffffffffffffffffffffffffffffffff82169050919050565b6000819050919050565b600061184682611831565b9050919050565b600061185882611831565b9050919050565b600061186a82611831565b91507fffffffffffffffffffffffffffffffffffffffffffffffffffffffffffffffff82141561189d5761189c611907565b5b600182019050919050565b60006118b3826118ba565b9050919050565b60006118c582611965565b9050919050565b6000819050919050565b60006118e182611831565b91506118ec83611831565b9250826118fc576118fb611936565b5b828206905092915050565b7f4e487b7100000000000000000000000000000000000000000000000000000000600052601160045260246000fd5b7f4e487b7100000000000000000000000000000000000000000000000000000000600052601260045260246000fd5b60008160601b9050919050565b7f596f7572206d6f6e73746572206973206e6f74206f6e20626f7373206669676860008201527f7400000000000000000000000000000000000000000000000000000000000000602082015250565b7f49742773206e6f7420796f7572206d6f6e737465720000000000000000000000600082015250565b7f20596f7572206d6f6e73746572207374696c6c206f6e20636f6f6c646f776e00600082015250565b7f4e6f7420656e6f7567682068756e676572000000000000000000000000000000600082015250565b7f596f7572206d6f6e73746572207374696c6c20776f726b696e67206f6e20736f60008201527f6d657468696e6700000000000000000000000000000000000000000000000000602082015250565b611a94816117ff565b8114611a9f57600080fd5b50565b611aab81611831565b8114611ab657600080fd5b5056fea264697066735822122060d7923801510623814ddcc6e869119634de4ff020b0fa769457e6b24aeb5f1564736f6c63430008040033",
  "linkReferences": {},
  "deployedLinkReferences": {}
}