{
  "_format": "hh-sol-artifact-1",
  "contractName": "Items",
  "sourceName": "contracts/Items.sol",
  "abi": [
    {
      "inputs": [
        {
          "internalType": "address",
          "name": "monsterGame",
          "type": "address"
        }
      ],
      "stateMutability": "nonpayable",
      "type": "constructor"
    },
    {
      "anonymous": false,
      "inputs": [
        {
          "indexed": true,
          "internalType": "address",
          "name": "account",
          "type": "address"
        },
        {
          "indexed": true,
          "internalType": "address",
          "name": "operator",
          "type": "address"
        },
        {
          "indexed": false,
          "internalType": "bool",
          "name": "approved",
          "type": "bool"
        }
      ],
      "name": "ApprovalForAll",
      "type": "event"
    },
    {
      "anonymous": false,
      "inputs": [
        {
          "indexed": true,
          "internalType": "address",
          "name": "operator",
          "type": "address"
        },
        {
          "indexed": true,
          "internalType": "address",
          "name": "from",
          "type": "address"
        },
        {
          "indexed": true,
          "internalType": "address",
          "name": "to",
          "type": "address"
        },
        {
          "indexed": false,
          "internalType": "uint256[]",
          "name": "ids",
          "type": "uint256[]"
        },
        {
          "indexed": false,
          "internalType": "uint256[]",
          "name": "values",
          "type": "uint256[]"
        }
      ],
      "name": "TransferBatch",
      "type": "event"
    },
    {
      "anonymous": false,
      "inputs": [
        {
          "indexed": true,
          "internalType": "address",
          "name": "operator",
          "type": "address"
        },
        {
          "indexed": true,
          "internalType": "address",
          "name": "from",
          "type": "address"
        },
        {
          "indexed": true,
          "internalType": "address",
          "name": "to",
          "type": "address"
        },
        {
          "indexed": false,
          "internalType": "uint256",
          "name": "id",
          "type": "uint256"
        },
        {
          "indexed": false,
          "internalType": "uint256",
          "name": "value",
          "type": "uint256"
        }
      ],
      "name": "TransferSingle",
      "type": "event"
    },
    {
      "anonymous": false,
      "inputs": [
        {
          "indexed": false,
          "internalType": "string",
          "name": "value",
          "type": "string"
        },
        {
          "indexed": true,
          "internalType": "uint256",
          "name": "id",
          "type": "uint256"
        }
      ],
      "name": "URI",
      "type": "event"
    },
    {
      "inputs": [],
      "name": "BERRY",
      "outputs": [
        {
          "internalType": "uint256",
          "name": "",
          "type": "uint256"
        }
      ],
      "stateMutability": "view",
      "type": "function"
    },
    {
      "inputs": [],
      "name": "EXP_BOTTLE",
      "outputs": [
        {
          "internalType": "uint256",
          "name": "",
          "type": "uint256"
        }
      ],
      "stateMutability": "view",
      "type": "function"
    },
    {
      "inputs": [],
      "name": "HUNGER_POTION",
      "outputs": [
        {
          "internalType": "uint256",
          "name": "",
          "type": "uint256"
        }
      ],
      "stateMutability": "view",
      "type": "function"
    },
    {
      "inputs": [],
      "name": "M_COINS",
      "outputs": [
        {
          "internalType": "uint256",
          "name": "",
          "type": "uint256"
        }
      ],
      "stateMutability": "view",
      "type": "function"
    },
    {
      "inputs": [],
      "name": "TOKEN_CRYSTAL",
      "outputs": [
        {
          "internalType": "uint256",
          "name": "",
          "type": "uint256"
        }
      ],
      "stateMutability": "view",
      "type": "function"
    },
    {
      "inputs": [
        {
          "internalType": "address",
          "name": "account",
          "type": "address"
        },
        {
          "internalType": "uint256",
          "name": "id",
          "type": "uint256"
        }
      ],
      "name": "balanceOf",
      "outputs": [
        {
          "internalType": "uint256",
          "name": "",
          "type": "uint256"
        }
      ],
      "stateMutability": "view",
      "type": "function"
    },
    {
      "inputs": [
        {
          "internalType": "address[]",
          "name": "accounts",
          "type": "address[]"
        },
        {
          "internalType": "uint256[]",
          "name": "ids",
          "type": "uint256[]"
        }
      ],
      "name": "balanceOfBatch",
      "outputs": [
        {
          "internalType": "uint256[]",
          "name": "",
          "type": "uint256[]"
        }
      ],
      "stateMutability": "view",
      "type": "function"
    },
    {
      "inputs": [
        {
          "internalType": "address",
          "name": "_user",
          "type": "address"
        },
        {
          "internalType": "uint256",
          "name": "_odds",
          "type": "uint256"
        }
      ],
      "name": "beginnerMissionReward",
      "outputs": [],
      "stateMutability": "nonpayable",
      "type": "function"
    },
    {
      "inputs": [
        {
          "internalType": "address",
          "name": "_user",
          "type": "address"
        },
        {
          "internalType": "uint256",
          "name": "_odds",
          "type": "uint256"
        },
        {
          "internalType": "uint256",
          "name": "_chance",
          "type": "uint256"
        }
      ],
      "name": "bossFightReward",
      "outputs": [],
      "stateMutability": "nonpayable",
      "type": "function"
    },
    {
      "inputs": [
        {
          "internalType": "uint256",
          "name": "",
          "type": "uint256"
        },
        {
          "internalType": "uint256",
          "name": "",
          "type": "uint256"
        }
      ],
      "name": "bossRateSet",
      "outputs": [
        {
          "internalType": "uint256",
          "name": "",
          "type": "uint256"
        }
      ],
      "stateMutability": "view",
      "type": "function"
    },
    {
      "inputs": [
        {
          "internalType": "uint256",
          "name": "",
          "type": "uint256"
        },
        {
          "internalType": "uint256",
          "name": "",
          "type": "uint256"
        }
      ],
      "name": "bossRewardSet",
      "outputs": [
        {
          "internalType": "uint256",
          "name": "",
          "type": "uint256"
        }
      ],
      "stateMutability": "view",
      "type": "function"
    },
    {
      "inputs": [
        {
          "internalType": "address",
          "name": "_user",
          "type": "address"
        }
      ],
      "name": "getInventory",
      "outputs": [
        {
          "internalType": "uint256[]",
          "name": "inventory",
          "type": "uint256[]"
        }
      ],
      "stateMutability": "view",
      "type": "function"
    },
    {
      "inputs": [
        {
          "internalType": "address",
          "name": "_user",
          "type": "address"
        },
        {
          "internalType": "uint256",
          "name": "_odds",
          "type": "uint256"
        }
      ],
      "name": "intermediateMissionReward",
      "outputs": [],
      "stateMutability": "nonpayable",
      "type": "function"
    },
    {
      "inputs": [
        {
          "internalType": "address",
          "name": "account",
          "type": "address"
        },
        {
          "internalType": "address",
          "name": "operator",
          "type": "address"
        }
      ],
      "name": "isApprovedForAll",
      "outputs": [
        {
          "internalType": "bool",
          "name": "",
          "type": "bool"
        }
      ],
      "stateMutability": "view",
      "type": "function"
    },
    {
      "inputs": [
        {
          "internalType": "uint256",
          "name": "",
          "type": "uint256"
        },
        {
          "internalType": "uint256",
          "name": "",
          "type": "uint256"
        }
      ],
      "name": "itemRateSet",
      "outputs": [
        {
          "internalType": "uint256",
          "name": "",
          "type": "uint256"
        }
      ],
      "stateMutability": "view",
      "type": "function"
    },
    {
      "inputs": [
        {
          "internalType": "uint256",
          "name": "",
          "type": "uint256"
        },
        {
          "internalType": "uint256",
          "name": "",
          "type": "uint256"
        }
      ],
      "name": "itemSet",
      "outputs": [
        {
          "internalType": "uint256",
          "name": "",
          "type": "uint256"
        }
      ],
      "stateMutability": "view",
      "type": "function"
    },
    {
      "inputs": [
        {
          "internalType": "address",
          "name": "_user",
          "type": "address"
        },
        {
          "internalType": "uint256[]",
          "name": "_id",
          "type": "uint256[]"
        },
        {
          "internalType": "uint256[]",
          "name": "_quantity",
          "type": "uint256[]"
        }
      ],
      "name": "mintForShop",
      "outputs": [],
      "stateMutability": "nonpayable",
      "type": "function"
    },
    {
      "inputs": [
        {
          "internalType": "address",
          "name": "_user",
          "type": "address"
        },
        {
          "internalType": "uint256",
          "name": "_id",
          "type": "uint256"
        },
        {
          "internalType": "uint256",
          "name": "_quantity",
          "type": "uint256"
        }
      ],
      "name": "mintForTrade",
      "outputs": [],
      "stateMutability": "nonpayable",
      "type": "function"
    },
    {
      "inputs": [
        {
          "internalType": "uint256",
          "name": "_id",
          "type": "uint256"
        },
        {
          "internalType": "uint256[]",
          "name": "_rate",
          "type": "uint256[]"
        }
      ],
      "name": "newItemRatesSet",
      "outputs": [],
      "stateMutability": "nonpayable",
      "type": "function"
    },
    {
      "inputs": [
        {
          "internalType": "uint256",
          "name": "_id",
          "type": "uint256"
        },
        {
          "internalType": "uint256[]",
          "name": "_item",
          "type": "uint256[]"
        }
      ],
      "name": "newItemsSet",
      "outputs": [],
      "stateMutability": "nonpayable",
      "type": "function"
    },
    {
      "inputs": [
        {
          "internalType": "address",
          "name": "from",
          "type": "address"
        },
        {
          "internalType": "address",
          "name": "to",
          "type": "address"
        },
        {
          "internalType": "uint256[]",
          "name": "ids",
          "type": "uint256[]"
        },
        {
          "internalType": "uint256[]",
          "name": "amounts",
          "type": "uint256[]"
        },
        {
          "internalType": "bytes",
          "name": "data",
          "type": "bytes"
        }
      ],
      "name": "safeBatchTransferFrom",
      "outputs": [],
      "stateMutability": "nonpayable",
      "type": "function"
    },
    {
      "inputs": [
        {
          "internalType": "address",
          "name": "from",
          "type": "address"
        },
        {
          "internalType": "address",
          "name": "to",
          "type": "address"
        },
        {
          "internalType": "uint256",
          "name": "id",
          "type": "uint256"
        },
        {
          "internalType": "uint256",
          "name": "amount",
          "type": "uint256"
        },
        {
          "internalType": "bytes",
          "name": "data",
          "type": "bytes"
        }
      ],
      "name": "safeTransferFrom",
      "outputs": [],
      "stateMutability": "nonpayable",
      "type": "function"
    },
    {
      "inputs": [
        {
          "internalType": "address",
          "name": "operator",
          "type": "address"
        },
        {
          "internalType": "bool",
          "name": "approved",
          "type": "bool"
        }
      ],
      "name": "setApprovalForAll",
      "outputs": [],
      "stateMutability": "nonpayable",
      "type": "function"
    },
    {
      "inputs": [
        {
          "internalType": "bytes4",
          "name": "interfaceId",
          "type": "bytes4"
        }
      ],
      "name": "supportsInterface",
      "outputs": [
        {
          "internalType": "bool",
          "name": "",
          "type": "bool"
        }
      ],
      "stateMutability": "view",
      "type": "function"
    },
    {
      "inputs": [
        {
          "internalType": "uint256",
          "name": "",
          "type": "uint256"
        }
      ],
      "name": "uri",
      "outputs": [
        {
          "internalType": "string",
          "name": "",
          "type": "string"
        }
      ],
      "stateMutability": "view",
      "type": "function"
    }
  ],
  "bytecode": "0x60806040523480156200001157600080fd5b506040516200443a3803806200443a833981810160405281019062000037919062000790565b604051806020016040528060008152506200005881620006ad60201b60201c565b5080600360006101000a81548173ffffffffffffffffffffffffffffffffffffffff021916908373ffffffffffffffffffffffffffffffffffffffff16021790555060056000808152602001908152602001600020600090806001815401808255809150506001900390600052602060002001600090919091909150556005600080815260200190815260200160002060019080600181540180825580915050600190039060005260206000200160009091909190915055600460008081526020019081526020016000206003908060018154018082558091505060019003906000526020600020016000909190919091505560046000808152602001908152602001600020600590806001815401808255809150506001900390600052602060002001600090919091909150556005600060018152602001908152602001600020600090806001815401808255809150506001900390600052602060002001600090919091909150556005600060018152602001908152602001600020600190806001815401808255809150506001900390600052602060002001600090919091909150556004600060018152602001908152602001600020600690806001815401808255809150506001900390600052602060002001600090919091909150556004600060018152602001908152602001600020600790806001815401808255809150506001900390600052602060002001600090919091909150556005600060028152602001908152602001600020600090806001815401808255809150506001900390600052602060002001600090919091909150556005600060028152602001908152602001600020600190806001815401808255809150506001900390600052602060002001600090919091909150556004600060028152602001908152602001600020600a90806001815401808255809150506001900390600052602060002001600090919091909150556004600060028152602001908152602001600020600a908060018154018082558091505060019003906000526020600020016000909190919091505560066000808152602001908152602001600020600090806001815401808255809150506001900390600052602060002001600090919091909150556006600080815260200190815260200160002060029080600181540180825580915050600190039060005260206000200160009091909190915055600660008081526020019081526020016000206003908060018154018082558091505060019003906000526020600020016000909190919091505560066000808152602001908152602001600020600490806001815401808255809150506001900390600052602060002001600090919091909150556006600060018152602001908152602001600020600090806001815401808255809150506001900390600052602060002001600090919091909150556006600060018152602001908152602001600020600290806001815401808255809150506001900390600052602060002001600090919091909150556006600060018152602001908152602001600020600490806001815401808255809150506001900390600052602060002001600090919091909150556007600060018152602001908152602001600020600a908060018154018082558091505060019003906000526020600020016000909190919091505560076000600181526020019081526020016000206001908060018154018082558091505060019003906000526020600020016000909190919091505560076000600181526020019081526020016000206003908060018154018082558091505060019003906000526020600020016000909190919091505560076000808152602001908152602001600020603290806001815401808255809150506001900390600052602060002001600090919091909150556007600080815260200190815260200160002060029080600181540180825580915050600190039060005260206000200160009091909190915055600760008081526020019081526020016000206001908060018154018082558091505060019003906000526020600020016000909190919091505560076000808152602001908152602001600020600a9080600181540180825580915050600190039060005260206000200160009091909190915055506200086f565b8060029080519060200190620006c5929190620006c9565b5050565b828054620006d790620007f0565b90600052602060002090601f016020900481019282620006fb576000855562000747565b82601f106200071657805160ff191683800117855562000747565b8280016001018555821562000747579182015b828111156200074657825182559160200191906001019062000729565b5b5090506200075691906200075a565b5090565b5b80821115620007755760008160009055506001016200075b565b5090565b6000815190506200078a8162000855565b92915050565b600060208284031215620007a357600080fd5b6000620007b38482850162000779565b91505092915050565b6000620007c982620007d0565b9050919050565b600073ffffffffffffffffffffffffffffffffffffffff82169050919050565b600060028204905060018216806200080957607f821691505b6020821081141562000820576200081f62000826565b5b50919050565b7f4e487b7100000000000000000000000000000000000000000000000000000000600052602260045260246000fd5b6200086081620007bc565b81146200086c57600080fd5b50565b613bbb806200087f6000396000f3fe608060405234801561001057600080fd5b50600436106101715760003560e01c80635ce81ef8116100de578063b2515c1d11610097578063e3fd44ee11610071578063e3fd44ee14610480578063e985e9c51461049c578063ea59796a146104cc578063f242432a146104e857610171565b8063b2515c1d14610414578063b551d32d14610432578063ca8434c31461046257610171565b80635ce81ef814610340578063649a20f71461035c5780636ab620231461038c5780638b87c544146103aa57806396efab69146103da578063a22cb465146103f857610171565b806317c0a1e61161013057806317c0a1e61461026e5780632db113921461028c5780632eb2c2d6146102a85780633a583c8e146102c457806349ede73a146102e05780634e1273f41461031057610171565b8062f448b014610176578062fdd58e146101a657806301ffc9a7146101d6578063088d8533146102065780630e89341c14610222578063100a974014610252575b600080fd5b610190600480360381019061018b9190612dad565b610504565b60405161019d9190613346565b60405180910390f35b6101c060048036038101906101bb9190612be7565b610535565b6040516101cd9190613346565b60405180910390f35b6101f060048036038101906101eb9190612cde565b6105fe565b6040516101fd91906131a9565b60405180910390f35b610220600480360381019061021b9190612c23565b6106e0565b005b61023c60048036038101906102379190612d30565b6108af565b60405161024991906131c4565b60405180910390f35b61026c60048036038101906102679190612d59565b610943565b005b6102766109e1565b6040516102839190613346565b60405180910390f35b6102a660048036038101906102a19190612be7565b6109e6565b005b6102c260048036038101906102bd91906129d4565b610cc1565b005b6102de60048036038101906102d99190612d59565b610d62565b005b6102fa60048036038101906102f59190612dad565b610e00565b6040516103079190613346565b60405180910390f35b61032a60048036038101906103259190612c72565b610e31565b6040516103379190613150565b60405180910390f35b61035a60048036038101906103559190612be7565b610fe2565b005b61037660048036038101906103719190612dad565b6112bb565b6040516103839190613346565b60405180910390f35b6103946112ec565b6040516103a19190613346565b60405180910390f35b6103c460048036038101906103bf919061296f565b6112f1565b6040516103d19190613150565b60405180910390f35b6103e26113dd565b6040516103ef9190613346565b60405180910390f35b610412600480360381019061040d9190612bab565b6113e2565b005b61041c6113f8565b6040516104299190613346565b60405180910390f35b61044c60048036038101906104479190612dad565b6113fd565b6040516104599190613346565b60405180910390f35b61046a61142e565b6040516104779190613346565b60405180910390f35b61049a60048036038101906104959190612b22565b611433565b005b6104b660048036038101906104b19190612998565b6114f9565b6040516104c391906131a9565b60405180910390f35b6104e660048036038101906104e19190612c23565b61158d565b005b61050260048036038101906104fd9190612a93565b6115ad565b005b6006602052816000526040600020818154811061052057600080fd5b90600052602060002001600091509150505481565b60008073ffffffffffffffffffffffffffffffffffffffff168373ffffffffffffffffffffffffffffffffffffffff1614156105a6576040517f08c379a000000000000000000000000000000000000000000000000000000000815260040161059d90613226565b60405180910390fd5b60008083815260200190815260200160002060008473ffffffffffffffffffffffffffffffffffffffff1673ffffffffffffffffffffffffffffffffffffffff16815260200190815260200160002054905092915050565b60007fd9b67a26000000000000000000000000000000000000000000000000000000007bffffffffffffffffffffffffffffffffffffffffffffffffffffffff1916827bffffffffffffffffffffffffffffffffffffffffffffffffffffffff191614806106c957507f0e89341c000000000000000000000000000000000000000000000000000000007bffffffffffffffffffffffffffffffffffffffffffffffffffffffff1916827bffffffffffffffffffffffffffffffffffffffffffffffffffffffff1916145b806106d957506106d88261164e565b5b9050919050565b808210156107ca576107c5836006600080815260200190815260200160002080548060200260200160405190810160405280929190818152602001828054801561074957602002820191906000526020600020905b815481526020019060010190808311610735575b5050505050600760008081526020019081526020016000208054806020026020016040519081016040528092919081815260200182805480156107ab57602002820191906000526020600020905b815481526020019060010190808311610797575b5050505050604051806020016040528060008152506116b8565b6108aa565b6108a983600660006001815260200190815260200160002080548060200260200160405190810160405280929190818152602001828054801561082c57602002820191906000526020600020905b815481526020019060010190808311610818575b5050505050600760006001815260200190815260200160002080548060200260200160405190810160405280929190818152602001828054801561088f57602002820191906000526020600020905b81548152602001906001019080831161087b575b5050505050604051806020016040528060008152506116b8565b5b505050565b6060600280546108be906135b5565b80601f01602080910402602001604051908101604052809291908181526020018280546108ea906135b5565b80156109375780601f1061090c57610100808354040283529160200191610937565b820191906000526020600020905b81548152906001019060200180831161091a57829003601f168201915b50505050509050919050565b60005b81518110156109dc576004600084815260200190815260200160002082828151811061099b577f4e487b7100000000000000000000000000000000000000000000000000000000600052603260045260246000fd5b6020026020010151908060018154018082558091505060019003906000526020600020016000909190919091505580806109d490613618565b915050610946565b505050565b600381565b603c81111580156109f8575080600011155b15610ae157610adc826005600060038152602001908152602001600020805480602002602001604051908101604052809291908181526020018280548015610a5f57602002820191906000526020600020905b815481526020019060010190808311610a4b575b50505050506004600060038152602001908152602001600020805480602002602001604051908101604052809291908181526020018280548015610ac257602002820191906000526020600020905b815481526020019060010190808311610aae575b5050505050604051806020016040528060008152506116b8565b610cbd565b605a8111158015610af3575080604611155b15610bdc57610bd7826005600060048152602001908152602001600020805480602002602001604051908101604052809291908181526020018280548015610b5a57602002820191906000526020600020905b815481526020019060010190808311610b46575b50505050506004600060048152602001908152602001600020805480602002602001604051908101604052809291908181526020018280548015610bbd57602002820191906000526020600020905b815481526020019060010190808311610ba9575b5050505050604051806020016040528060008152506116b8565b610cbc565b610cbb826005600060058152602001908152602001600020805480602002602001604051908101604052809291908181526020018280548015610c3e57602002820191906000526020600020905b815481526020019060010190808311610c2a575b50505050506004600060058152602001908152602001600020805480602002602001604051908101604052809291908181526020018280548015610ca157602002820191906000526020600020905b815481526020019060010190808311610c8d575b5050505050604051806020016040528060008152506116b8565b5b5b5050565b610cc9611931565b73ffffffffffffffffffffffffffffffffffffffff168573ffffffffffffffffffffffffffffffffffffffff161480610d0f5750610d0e85610d09611931565b6114f9565b5b610d4e576040517f08c379a0000000000000000000000000000000000000000000000000000000008152600401610d4590613286565b60405180910390fd5b610d5b8585858585611939565b5050505050565b60005b8151811015610dfb5760056000848152602001908152602001600020828281518110610dba577f4e487b7100000000000000000000000000000000000000000000000000000000600052603260045260246000fd5b602002602001015190806001815401808255809150506001900390600052602060002001600090919091909150558080610df390613618565b915050610d65565b505050565b60046020528160005260406000208181548110610e1c57600080fd5b90600052602060002001600091509150505481565b60608151835114610e77576040517f08c379a0000000000000000000000000000000000000000000000000000000008152600401610e6e906132e6565b60405180910390fd5b6000835167ffffffffffffffff811115610eba577f4e487b7100000000000000000000000000000000000000000000000000000000600052604160045260246000fd5b604051908082528060200260200182016040528015610ee85781602001602082028036833780820191505090505b50905060005b8451811015610fd757610f81858281518110610f33577f4e487b7100000000000000000000000000000000000000000000000000000000600052603260045260246000fd5b6020026020010151858381518110610f74577f4e487b7100000000000000000000000000000000000000000000000000000000600052603260045260246000fd5b6020026020010151610535565b828281518110610fba577f4e487b7100000000000000000000000000000000000000000000000000000000600052603260045260246000fd5b60200260200101818152505080610fd090613618565b9050610eee565b508091505092915050565b603c8111158015610ff4575080600011155b156110db576110d6826005600080815260200190815260200160002080548060200260200160405190810160405280929190818152602001828054801561105a57602002820191906000526020600020905b815481526020019060010190808311611046575b5050505050600460008081526020019081526020016000208054806020026020016040519081016040528092919081815260200182805480156110bc57602002820191906000526020600020905b8154815260200190600101908083116110a8575b5050505050604051806020016040528060008152506116b8565b6112b7565b605a81111580156110ed575080604611155b156111d6576111d182600560006001815260200190815260200160002080548060200260200160405190810160405280929190818152602001828054801561115457602002820191906000526020600020905b815481526020019060010190808311611140575b505050505060046000600181526020019081526020016000208054806020026020016040519081016040528092919081815260200182805480156111b757602002820191906000526020600020905b8154815260200190600101908083116111a3575b5050505050604051806020016040528060008152506116b8565b6112b6565b6112b582600560006002815260200190815260200160002080548060200260200160405190810160405280929190818152602001828054801561123857602002820191906000526020600020905b815481526020019060010190808311611224575b5050505050600460006002815260200190815260200160002080548060200260200160405190810160405280929190818152602001828054801561129b57602002820191906000526020600020905b815481526020019060010190808311611287575b5050505050604051806020016040528060008152506116b8565b5b5b5050565b600760205281600052604060002081815481106112d757600080fd5b90600052602060002001600091509150505481565b600081565b60606000600567ffffffffffffffff811115611336577f4e487b7100000000000000000000000000000000000000000000000000000000600052604160045260246000fd5b6040519080825280602002602001820160405280156113645781602001602082028036833780820191505090505b50905060005b60058110156113d35761137d8482610535565b8282815181106113b6577f4e487b7100000000000000000000000000000000000000000000000000000000600052603260045260246000fd5b602002602001018181525050806113cc90613618565b905061136a565b5080915050919050565b600181565b6113f46113ed611931565b8383611ca7565b5050565b600481565b6005602052816000526040600020818154811061141957600080fd5b90600052602060002001600091509150505481565b600281565b600084849050905060005b818110156114f0576114df87878784818110611483577f4e487b7100000000000000000000000000000000000000000000000000000000600052603260045260246000fd5b905060200201358686858181106114c3577f4e487b7100000000000000000000000000000000000000000000000000000000600052603260045260246000fd5b9050602002013560405180602001604052806000815250611e14565b806114e990613618565b905061143e565b50505050505050565b6000600160008473ffffffffffffffffffffffffffffffffffffffff1673ffffffffffffffffffffffffffffffffffffffff16815260200190815260200160002060008373ffffffffffffffffffffffffffffffffffffffff1673ffffffffffffffffffffffffffffffffffffffff16815260200190815260200160002060009054906101000a900460ff16905092915050565b6115a883838360405180602001604052806000815250611e14565b505050565b6115b5611931565b73ffffffffffffffffffffffffffffffffffffffff168573ffffffffffffffffffffffffffffffffffffffff1614806115fb57506115fa856115f5611931565b6114f9565b5b61163a576040517f08c379a000000000000000000000000000000000000000000000000000000000815260040161163190613246565b60405180910390fd5b6116478585858585611fc5565b5050505050565b60007f01ffc9a7000000000000000000000000000000000000000000000000000000007bffffffffffffffffffffffffffffffffffffffffffffffffffffffff1916827bffffffffffffffffffffffffffffffffffffffffffffffffffffffff1916149050919050565b600073ffffffffffffffffffffffffffffffffffffffff168473ffffffffffffffffffffffffffffffffffffffff161415611728576040517f08c379a000000000000000000000000000000000000000000000000000000000815260040161171f90613326565b60405180910390fd5b815183511461176c576040517f08c379a000000000000000000000000000000000000000000000000000000000815260040161176390613306565b60405180910390fd5b6000611776611931565b905061178781600087878787612261565b60005b845181101561188c578381815181106117cc577f4e487b7100000000000000000000000000000000000000000000000000000000600052603260045260246000fd5b6020026020010151600080878481518110611810577f4e487b7100000000000000000000000000000000000000000000000000000000600052603260045260246000fd5b6020026020010151815260200190815260200160002060008873ffffffffffffffffffffffffffffffffffffffff1673ffffffffffffffffffffffffffffffffffffffff168152602001908152602001600020600082825461187291906134a9565b92505081905550808061188490613618565b91505061178a565b508473ffffffffffffffffffffffffffffffffffffffff16600073ffffffffffffffffffffffffffffffffffffffff168273ffffffffffffffffffffffffffffffffffffffff167f4a39dc06d4c0dbc64b70af90fd698a233a518aa5d07e595d983b8c0526c8f7fb8787604051611904929190613172565b60405180910390a461191b81600087878787612269565b61192a81600087878787612271565b5050505050565b600033905090565b815183511461197d576040517f08c379a000000000000000000000000000000000000000000000000000000000815260040161197490613306565b60405180910390fd5b600073ffffffffffffffffffffffffffffffffffffffff168473ffffffffffffffffffffffffffffffffffffffff1614156119ed576040517f08c379a00000000000000000000000000000000000000000000000000000000081526004016119e490613266565b60405180910390fd5b60006119f7611931565b9050611a07818787878787612261565b60005b8451811015611c04576000858281518110611a4e577f4e487b7100000000000000000000000000000000000000000000000000000000600052603260045260246000fd5b602002602001015190506000858381518110611a93577f4e487b7100000000000000000000000000000000000000000000000000000000600052603260045260246000fd5b60200260200101519050600080600084815260200190815260200160002060008b73ffffffffffffffffffffffffffffffffffffffff1673ffffffffffffffffffffffffffffffffffffffff16815260200190815260200160002054905081811015611b34576040517f08c379a0000000000000000000000000000000000000000000000000000000008152600401611b2b906132a6565b60405180910390fd5b81810360008085815260200190815260200160002060008c73ffffffffffffffffffffffffffffffffffffffff1673ffffffffffffffffffffffffffffffffffffffff168152602001908152602001600020819055508160008085815260200190815260200160002060008b73ffffffffffffffffffffffffffffffffffffffff1673ffffffffffffffffffffffffffffffffffffffff1681526020019081526020016000206000828254611be991906134a9565b9250508190555050505080611bfd90613618565b9050611a0a565b508473ffffffffffffffffffffffffffffffffffffffff168673ffffffffffffffffffffffffffffffffffffffff168273ffffffffffffffffffffffffffffffffffffffff167f4a39dc06d4c0dbc64b70af90fd698a233a518aa5d07e595d983b8c0526c8f7fb8787604051611c7b929190613172565b60405180910390a4611c91818787878787612269565b611c9f818787878787612271565b505050505050565b8173ffffffffffffffffffffffffffffffffffffffff168373ffffffffffffffffffffffffffffffffffffffff161415611d16576040517f08c379a0000000000000000000000000000000000000000000000000000000008152600401611d0d906132c6565b60405180910390fd5b80600160008573ffffffffffffffffffffffffffffffffffffffff1673ffffffffffffffffffffffffffffffffffffffff16815260200190815260200160002060008473ffffffffffffffffffffffffffffffffffffffff1673ffffffffffffffffffffffffffffffffffffffff16815260200190815260200160002060006101000a81548160ff0219169083151502179055508173ffffffffffffffffffffffffffffffffffffffff168373ffffffffffffffffffffffffffffffffffffffff167f17307eab39ab6107e8899845ad3d59bd9653f200f220920489ca2b5937696c3183604051611e0791906131a9565b60405180910390a3505050565b600073ffffffffffffffffffffffffffffffffffffffff168473ffffffffffffffffffffffffffffffffffffffff161415611e84576040517f08c379a0000000000000000000000000000000000000000000000000000000008152600401611e7b90613326565b60405180910390fd5b6000611e8e611931565b90506000611e9b85612458565b90506000611ea885612458565b9050611eb983600089858589612261565b8460008088815260200190815260200160002060008973ffffffffffffffffffffffffffffffffffffffff1673ffffffffffffffffffffffffffffffffffffffff1681526020019081526020016000206000828254611f1891906134a9565b925050819055508673ffffffffffffffffffffffffffffffffffffffff16600073ffffffffffffffffffffffffffffffffffffffff168473ffffffffffffffffffffffffffffffffffffffff167fc3d58168c5ae7397731d063d5bbf3d657854427343f4c083240f7aacaa2d0f628989604051611f96929190613361565b60405180910390a4611fad83600089858589612269565b611fbc8360008989898961251e565b50505050505050565b600073ffffffffffffffffffffffffffffffffffffffff168473ffffffffffffffffffffffffffffffffffffffff161415612035576040517f08c379a000000000000000000000000000000000000000000000000000000000815260040161202c90613266565b60405180910390fd5b600061203f611931565b9050600061204c85612458565b9050600061205985612458565b9050612069838989858589612261565b600080600088815260200190815260200160002060008a73ffffffffffffffffffffffffffffffffffffffff1673ffffffffffffffffffffffffffffffffffffffff16815260200190815260200160002054905085811015612100576040517f08c379a00000000000000000000000000000000000000000000000000000000081526004016120f7906132a6565b60405180910390fd5b85810360008089815260200190815260200160002060008b73ffffffffffffffffffffffffffffffffffffffff1673ffffffffffffffffffffffffffffffffffffffff168152602001908152602001600020819055508560008089815260200190815260200160002060008a73ffffffffffffffffffffffffffffffffffffffff1673ffffffffffffffffffffffffffffffffffffffff16815260200190815260200160002060008282546121b591906134a9565b925050819055508773ffffffffffffffffffffffffffffffffffffffff168973ffffffffffffffffffffffffffffffffffffffff168573ffffffffffffffffffffffffffffffffffffffff167fc3d58168c5ae7397731d063d5bbf3d657854427343f4c083240f7aacaa2d0f628a8a604051612232929190613361565b60405180910390a4612248848a8a86868a612269565b612256848a8a8a8a8a61251e565b505050505050505050565b505050505050565b505050505050565b6122908473ffffffffffffffffffffffffffffffffffffffff16612705565b15612450578373ffffffffffffffffffffffffffffffffffffffff1663bc197c8187878686866040518663ffffffff1660e01b81526004016122d695949392919061308e565b602060405180830381600087803b1580156122f057600080fd5b505af192505050801561232157506040513d601f19601f8201168201806040525081019061231e9190612d07565b60015b6123c75761232d6136ee565b806308c379a0141561238a5750612342613a93565b8061234d575061238c565b806040517f08c379a000000000000000000000000000000000000000000000000000000000815260040161238191906131c4565b60405180910390fd5b505b6040517f08c379a00000000000000000000000000000000000000000000000000000000081526004016123be906131e6565b60405180910390fd5b63bc197c8160e01b7bffffffffffffffffffffffffffffffffffffffffffffffffffffffff1916817bffffffffffffffffffffffffffffffffffffffffffffffffffffffff19161461244e576040517f08c379a000000000000000000000000000000000000000000000000000000000815260040161244590613206565b60405180910390fd5b505b505050505050565b60606000600167ffffffffffffffff81111561249d577f4e487b7100000000000000000000000000000000000000000000000000000000600052604160045260246000fd5b6040519080825280602002602001820160405280156124cb5781602001602082028036833780820191505090505b5090508281600081518110612509577f4e487b7100000000000000000000000000000000000000000000000000000000600052603260045260246000fd5b60200260200101818152505080915050919050565b61253d8473ffffffffffffffffffffffffffffffffffffffff16612705565b156126fd578373ffffffffffffffffffffffffffffffffffffffff1663f23a6e6187878686866040518663ffffffff1660e01b81526004016125839594939291906130f6565b602060405180830381600087803b15801561259d57600080fd5b505af19250505080156125ce57506040513d601f19601f820116820180604052508101906125cb9190612d07565b60015b612674576125da6136ee565b806308c379a0141561263757506125ef613a93565b806125fa5750612639565b806040517f08c379a000000000000000000000000000000000000000000000000000000000815260040161262e91906131c4565b60405180910390fd5b505b6040517f08c379a000000000000000000000000000000000000000000000000000000000815260040161266b906131e6565b60405180910390fd5b63f23a6e6160e01b7bffffffffffffffffffffffffffffffffffffffffffffffffffffffff1916817bffffffffffffffffffffffffffffffffffffffffffffffffffffffff1916146126fb576040517f08c379a00000000000000000000000000000000000000000000000000000000081526004016126f290613206565b60405180910390fd5b505b505050505050565b6000808273ffffffffffffffffffffffffffffffffffffffff163b119050919050565b600061273b612736846133af565b61338a565b9050808382526020820190508285602086028201111561275a57600080fd5b60005b8581101561278a5781612770888261283e565b84526020840193506020830192505060018101905061275d565b5050509392505050565b60006127a76127a2846133db565b61338a565b905080838252602082019050828560208602820111156127c657600080fd5b60005b858110156127f657816127dc888261295a565b8452602084019350602083019250506001810190506127c9565b5050509392505050565b600061281361280e84613407565b61338a565b90508281526020810184848401111561282b57600080fd5b612836848285613573565b509392505050565b60008135905061284d81613b29565b92915050565b600082601f83011261286457600080fd5b8135612874848260208601612728565b91505092915050565b60008083601f84011261288f57600080fd5b8235905067ffffffffffffffff8111156128a857600080fd5b6020830191508360208202830111156128c057600080fd5b9250929050565b600082601f8301126128d857600080fd5b81356128e8848260208601612794565b91505092915050565b60008135905061290081613b40565b92915050565b60008135905061291581613b57565b92915050565b60008151905061292a81613b57565b92915050565b600082601f83011261294157600080fd5b8135612951848260208601612800565b91505092915050565b60008135905061296981613b6e565b92915050565b60006020828403121561298157600080fd5b600061298f8482850161283e565b91505092915050565b600080604083850312156129ab57600080fd5b60006129b98582860161283e565b92505060206129ca8582860161283e565b9150509250929050565b600080600080600060a086880312156129ec57600080fd5b60006129fa8882890161283e565b9550506020612a0b8882890161283e565b945050604086013567ffffffffffffffff811115612a2857600080fd5b612a34888289016128c7565b935050606086013567ffffffffffffffff811115612a5157600080fd5b612a5d888289016128c7565b925050608086013567ffffffffffffffff811115612a7a57600080fd5b612a8688828901612930565b9150509295509295909350565b600080600080600060a08688031215612aab57600080fd5b6000612ab98882890161283e565b9550506020612aca8882890161283e565b9450506040612adb8882890161295a565b9350506060612aec8882890161295a565b925050608086013567ffffffffffffffff811115612b0957600080fd5b612b1588828901612930565b9150509295509295909350565b600080600080600060608688031215612b3a57600080fd5b6000612b488882890161283e565b955050602086013567ffffffffffffffff811115612b6557600080fd5b612b718882890161287d565b9450945050604086013567ffffffffffffffff811115612b9057600080fd5b612b9c8882890161287d565b92509250509295509295909350565b60008060408385031215612bbe57600080fd5b6000612bcc8582860161283e565b9250506020612bdd858286016128f1565b9150509250929050565b60008060408385031215612bfa57600080fd5b6000612c088582860161283e565b9250506020612c198582860161295a565b9150509250929050565b600080600060608486031215612c3857600080fd5b6000612c468682870161283e565b9350506020612c578682870161295a565b9250506040612c688682870161295a565b9150509250925092565b60008060408385031215612c8557600080fd5b600083013567ffffffffffffffff811115612c9f57600080fd5b612cab85828601612853565b925050602083013567ffffffffffffffff811115612cc857600080fd5b612cd4858286016128c7565b9150509250929050565b600060208284031215612cf057600080fd5b6000612cfe84828501612906565b91505092915050565b600060208284031215612d1957600080fd5b6000612d278482850161291b565b91505092915050565b600060208284031215612d4257600080fd5b6000612d508482850161295a565b91505092915050565b60008060408385031215612d6c57600080fd5b6000612d7a8582860161295a565b925050602083013567ffffffffffffffff811115612d9757600080fd5b612da3858286016128c7565b9150509250929050565b60008060408385031215612dc057600080fd5b6000612dce8582860161295a565b9250506020612ddf8582860161295a565b9150509250929050565b6000612df58383613070565b60208301905092915050565b612e0a816134ff565b82525050565b6000612e1b82613448565b612e258185613476565b9350612e3083613438565b8060005b83811015612e61578151612e488882612de9565b9750612e5383613469565b925050600181019050612e34565b5085935050505092915050565b612e7781613511565b82525050565b6000612e8882613453565b612e928185613487565b9350612ea2818560208601613582565b612eab81613710565b840191505092915050565b6000612ec18261345e565b612ecb8185613498565b9350612edb818560208601613582565b612ee481613710565b840191505092915050565b6000612efc603483613498565b9150612f078261372e565b604082019050919050565b6000612f1f602883613498565b9150612f2a8261377d565b604082019050919050565b6000612f42602b83613498565b9150612f4d826137cc565b604082019050919050565b6000612f65602983613498565b9150612f708261381b565b604082019050919050565b6000612f88602583613498565b9150612f938261386a565b604082019050919050565b6000612fab603283613498565b9150612fb6826138b9565b604082019050919050565b6000612fce602a83613498565b9150612fd982613908565b604082019050919050565b6000612ff1602983613498565b9150612ffc82613957565b604082019050919050565b6000613014602983613498565b915061301f826139a6565b604082019050919050565b6000613037602883613498565b9150613042826139f5565b604082019050919050565b600061305a602183613498565b915061306582613a44565b604082019050919050565b61307981613569565b82525050565b61308881613569565b82525050565b600060a0820190506130a36000830188612e01565b6130b06020830187612e01565b81810360408301526130c28186612e10565b905081810360608301526130d68185612e10565b905081810360808301526130ea8184612e7d565b90509695505050505050565b600060a08201905061310b6000830188612e01565b6131186020830187612e01565b613125604083018661307f565b613132606083018561307f565b81810360808301526131448184612e7d565b90509695505050505050565b6000602082019050818103600083015261316a8184612e10565b905092915050565b6000604082019050818103600083015261318c8185612e10565b905081810360208301526131a08184612e10565b90509392505050565b60006020820190506131be6000830184612e6e565b92915050565b600060208201905081810360008301526131de8184612eb6565b905092915050565b600060208201905081810360008301526131ff81612eef565b9050919050565b6000602082019050818103600083015261321f81612f12565b9050919050565b6000602082019050818103600083015261323f81612f35565b9050919050565b6000602082019050818103600083015261325f81612f58565b9050919050565b6000602082019050818103600083015261327f81612f7b565b9050919050565b6000602082019050818103600083015261329f81612f9e565b9050919050565b600060208201905081810360008301526132bf81612fc1565b9050919050565b600060208201905081810360008301526132df81612fe4565b9050919050565b600060208201905081810360008301526132ff81613007565b9050919050565b6000602082019050818103600083015261331f8161302a565b9050919050565b6000602082019050818103600083015261333f8161304d565b9050919050565b600060208201905061335b600083018461307f565b92915050565b6000604082019050613376600083018561307f565b613383602083018461307f565b9392505050565b60006133946133a5565b90506133a082826135e7565b919050565b6000604051905090565b600067ffffffffffffffff8211156133ca576133c96136bf565b5b602082029050602081019050919050565b600067ffffffffffffffff8211156133f6576133f56136bf565b5b602082029050602081019050919050565b600067ffffffffffffffff821115613422576134216136bf565b5b61342b82613710565b9050602081019050919050565b6000819050602082019050919050565b600081519050919050565b600081519050919050565b600081519050919050565b6000602082019050919050565b600082825260208201905092915050565b600082825260208201905092915050565b600082825260208201905092915050565b60006134b482613569565b91506134bf83613569565b9250827fffffffffffffffffffffffffffffffffffffffffffffffffffffffffffffffff038211156134f4576134f3613661565b5b828201905092915050565b600061350a82613549565b9050919050565b60008115159050919050565b60007fffffffff0000000000000000000000000000000000000000000000000000000082169050919050565b600073ffffffffffffffffffffffffffffffffffffffff82169050919050565b6000819050919050565b82818337600083830152505050565b60005b838110156135a0578082015181840152602081019050613585565b838111156135af576000848401525b50505050565b600060028204905060018216806135cd57607f821691505b602082108114156135e1576135e0613690565b5b50919050565b6135f082613710565b810181811067ffffffffffffffff8211171561360f5761360e6136bf565b5b80604052505050565b600061362382613569565b91507fffffffffffffffffffffffffffffffffffffffffffffffffffffffffffffffff82141561365657613655613661565b5b600182019050919050565b7f4e487b7100000000000000000000000000000000000000000000000000000000600052601160045260246000fd5b7f4e487b7100000000000000000000000000000000000000000000000000000000600052602260045260246000fd5b7f4e487b7100000000000000000000000000000000000000000000000000000000600052604160045260246000fd5b600060033d111561370d5760046000803e61370a600051613721565b90505b90565b6000601f19601f8301169050919050565b60008160e01c9050919050565b7f455243313135353a207472616e7366657220746f206e6f6e204552433131353560008201527f526563656976657220696d706c656d656e746572000000000000000000000000602082015250565b7f455243313135353a204552433131353552656365697665722072656a6563746560008201527f6420746f6b656e73000000000000000000000000000000000000000000000000602082015250565b7f455243313135353a2062616c616e636520717565727920666f7220746865207a60008201527f65726f2061646472657373000000000000000000000000000000000000000000602082015250565b7f455243313135353a2063616c6c6572206973206e6f74206f776e6572206e6f7260008201527f20617070726f7665640000000000000000000000000000000000000000000000602082015250565b7f455243313135353a207472616e7366657220746f20746865207a65726f20616460008201527f6472657373000000000000000000000000000000000000000000000000000000602082015250565b7f455243313135353a207472616e736665722063616c6c6572206973206e6f742060008201527f6f776e6572206e6f7220617070726f7665640000000000000000000000000000602082015250565b7f455243313135353a20696e73756666696369656e742062616c616e636520666f60008201527f72207472616e7366657200000000000000000000000000000000000000000000602082015250565b7f455243313135353a2073657474696e6720617070726f76616c2073746174757360008201527f20666f722073656c660000000000000000000000000000000000000000000000602082015250565b7f455243313135353a206163636f756e747320616e6420696473206c656e67746860008201527f206d69736d617463680000000000000000000000000000000000000000000000602082015250565b7f455243313135353a2069647320616e6420616d6f756e7473206c656e6774682060008201527f6d69736d61746368000000000000000000000000000000000000000000000000602082015250565b7f455243313135353a206d696e7420746f20746865207a65726f2061646472657360008201527f7300000000000000000000000000000000000000000000000000000000000000602082015250565b600060443d1015613aa357613b26565b613aab6133a5565b60043d036004823e80513d602482011167ffffffffffffffff82111715613ad3575050613b26565b808201805167ffffffffffffffff811115613af15750505050613b26565b80602083010160043d038501811115613b0e575050505050613b26565b613b1d826020018501866135e7565b82955050505050505b90565b613b32816134ff565b8114613b3d57600080fd5b50565b613b4981613511565b8114613b5457600080fd5b50565b613b608161351d565b8114613b6b57600080fd5b50565b613b7781613569565b8114613b8257600080fd5b5056fea264697066735822122003463df992fe9cdcdc5f5aebb8bd8fc1ca6e3fc1c48db279e72699393408cdb964736f6c63430008040033",
  "linkReferences": {},
  "deployedLinkReferences": {}
}