{
  "_format": "hh-sol-artifact-1",
  "contractName": "Items",
  "sourceName": "contracts/Items.sol",
  "abi": [
    {
      "inputs": [
        {
          "internalType": "address",
          "name": "monsterGame",
          "type": "address"
        }
      ],
      "stateMutability": "nonpayable",
      "type": "constructor"
    },
    {
      "anonymous": false,
      "inputs": [
        {
          "indexed": true,
          "internalType": "address",
          "name": "account",
          "type": "address"
        },
        {
          "indexed": true,
          "internalType": "address",
          "name": "operator",
          "type": "address"
        },
        {
          "indexed": false,
          "internalType": "bool",
          "name": "approved",
          "type": "bool"
        }
      ],
      "name": "ApprovalForAll",
      "type": "event"
    },
    {
      "anonymous": false,
      "inputs": [
        {
          "indexed": true,
          "internalType": "address",
          "name": "operator",
          "type": "address"
        },
        {
          "indexed": true,
          "internalType": "address",
          "name": "from",
          "type": "address"
        },
        {
          "indexed": true,
          "internalType": "address",
          "name": "to",
          "type": "address"
        },
        {
          "indexed": false,
          "internalType": "uint256[]",
          "name": "ids",
          "type": "uint256[]"
        },
        {
          "indexed": false,
          "internalType": "uint256[]",
          "name": "values",
          "type": "uint256[]"
        }
      ],
      "name": "TransferBatch",
      "type": "event"
    },
    {
      "anonymous": false,
      "inputs": [
        {
          "indexed": true,
          "internalType": "address",
          "name": "operator",
          "type": "address"
        },
        {
          "indexed": true,
          "internalType": "address",
          "name": "from",
          "type": "address"
        },
        {
          "indexed": true,
          "internalType": "address",
          "name": "to",
          "type": "address"
        },
        {
          "indexed": false,
          "internalType": "uint256",
          "name": "id",
          "type": "uint256"
        },
        {
          "indexed": false,
          "internalType": "uint256",
          "name": "value",
          "type": "uint256"
        }
      ],
      "name": "TransferSingle",
      "type": "event"
    },
    {
      "anonymous": false,
      "inputs": [
        {
          "indexed": false,
          "internalType": "string",
          "name": "value",
          "type": "string"
        },
        {
          "indexed": true,
          "internalType": "uint256",
          "name": "id",
          "type": "uint256"
        }
      ],
      "name": "URI",
      "type": "event"
    },
    {
      "inputs": [],
      "name": "BERRY",
      "outputs": [
        {
          "internalType": "uint256",
          "name": "",
          "type": "uint256"
        }
      ],
      "stateMutability": "view",
      "type": "function"
    },
    {
      "inputs": [],
      "name": "EXP_BOTTLE",
      "outputs": [
        {
          "internalType": "uint256",
          "name": "",
          "type": "uint256"
        }
      ],
      "stateMutability": "view",
      "type": "function"
    },
    {
      "inputs": [],
      "name": "HUNGER_POTION",
      "outputs": [
        {
          "internalType": "uint256",
          "name": "",
          "type": "uint256"
        }
      ],
      "stateMutability": "view",
      "type": "function"
    },
    {
      "inputs": [],
      "name": "M_COINS",
      "outputs": [
        {
          "internalType": "uint256",
          "name": "",
          "type": "uint256"
        }
      ],
      "stateMutability": "view",
      "type": "function"
    },
    {
      "inputs": [],
      "name": "TOKEN_CRYSTAL",
      "outputs": [
        {
          "internalType": "uint256",
          "name": "",
          "type": "uint256"
        }
      ],
      "stateMutability": "view",
      "type": "function"
    },
    {
      "inputs": [
        {
          "internalType": "address",
          "name": "account",
          "type": "address"
        },
        {
          "internalType": "uint256",
          "name": "id",
          "type": "uint256"
        }
      ],
      "name": "balanceOf",
      "outputs": [
        {
          "internalType": "uint256",
          "name": "",
          "type": "uint256"
        }
      ],
      "stateMutability": "view",
      "type": "function"
    },
    {
      "inputs": [
        {
          "internalType": "address[]",
          "name": "accounts",
          "type": "address[]"
        },
        {
          "internalType": "uint256[]",
          "name": "ids",
          "type": "uint256[]"
        }
      ],
      "name": "balanceOfBatch",
      "outputs": [
        {
          "internalType": "uint256[]",
          "name": "",
          "type": "uint256[]"
        }
      ],
      "stateMutability": "view",
      "type": "function"
    },
    {
      "inputs": [
        {
          "internalType": "address",
          "name": "_user",
          "type": "address"
        },
        {
          "internalType": "uint256",
          "name": "_odds",
          "type": "uint256"
        }
      ],
      "name": "beginnerMissionReward",
      "outputs": [],
      "stateMutability": "nonpayable",
      "type": "function"
    },
    {
      "inputs": [
        {
          "internalType": "address",
          "name": "_user",
          "type": "address"
        },
        {
          "internalType": "uint256",
          "name": "_odds",
          "type": "uint256"
        },
        {
          "internalType": "uint256",
          "name": "_chance",
          "type": "uint256"
        }
      ],
      "name": "bossFightReward",
      "outputs": [],
      "stateMutability": "nonpayable",
      "type": "function"
    },
    {
      "inputs": [
        {
          "internalType": "uint256",
          "name": "",
          "type": "uint256"
        },
        {
          "internalType": "uint256",
          "name": "",
          "type": "uint256"
        }
      ],
      "name": "bossRateSet",
      "outputs": [
        {
          "internalType": "uint256",
          "name": "",
          "type": "uint256"
        }
      ],
      "stateMutability": "view",
      "type": "function"
    },
    {
      "inputs": [
        {
          "internalType": "uint256",
          "name": "",
          "type": "uint256"
        },
        {
          "internalType": "uint256",
          "name": "",
          "type": "uint256"
        }
      ],
      "name": "bossRewardSet",
      "outputs": [
        {
          "internalType": "uint256",
          "name": "",
          "type": "uint256"
        }
      ],
      "stateMutability": "view",
      "type": "function"
    },
    {
      "inputs": [
        {
          "internalType": "address",
          "name": "_user",
          "type": "address"
        },
        {
          "internalType": "uint256",
          "name": "_odds",
          "type": "uint256"
        }
      ],
      "name": "intermediateMissionReward",
      "outputs": [],
      "stateMutability": "nonpayable",
      "type": "function"
    },
    {
      "inputs": [
        {
          "internalType": "address",
          "name": "account",
          "type": "address"
        },
        {
          "internalType": "address",
          "name": "operator",
          "type": "address"
        }
      ],
      "name": "isApprovedForAll",
      "outputs": [
        {
          "internalType": "bool",
          "name": "",
          "type": "bool"
        }
      ],
      "stateMutability": "view",
      "type": "function"
    },
    {
      "inputs": [
        {
          "internalType": "uint256",
          "name": "",
          "type": "uint256"
        },
        {
          "internalType": "uint256",
          "name": "",
          "type": "uint256"
        }
      ],
      "name": "itemRateSet",
      "outputs": [
        {
          "internalType": "uint256",
          "name": "",
          "type": "uint256"
        }
      ],
      "stateMutability": "view",
      "type": "function"
    },
    {
      "inputs": [
        {
          "internalType": "uint256",
          "name": "",
          "type": "uint256"
        },
        {
          "internalType": "uint256",
          "name": "",
          "type": "uint256"
        }
      ],
      "name": "itemSet",
      "outputs": [
        {
          "internalType": "uint256",
          "name": "",
          "type": "uint256"
        }
      ],
      "stateMutability": "view",
      "type": "function"
    },
    {
      "inputs": [
        {
          "internalType": "address",
          "name": "_user",
          "type": "address"
        },
        {
          "internalType": "uint256[]",
          "name": "_id",
          "type": "uint256[]"
        },
        {
          "internalType": "uint256[]",
          "name": "_quantity",
          "type": "uint256[]"
        }
      ],
      "name": "mintForShop",
      "outputs": [],
      "stateMutability": "nonpayable",
      "type": "function"
    },
    {
      "inputs": [
        {
          "internalType": "address",
          "name": "_user",
          "type": "address"
        },
        {
          "internalType": "uint256",
          "name": "_id",
          "type": "uint256"
        },
        {
          "internalType": "uint256",
          "name": "_quantity",
          "type": "uint256"
        }
      ],
      "name": "mintForTrade",
      "outputs": [],
      "stateMutability": "nonpayable",
      "type": "function"
    },
    {
      "inputs": [
        {
          "internalType": "uint256",
          "name": "_id",
          "type": "uint256"
        },
        {
          "internalType": "uint256[]",
          "name": "_rate",
          "type": "uint256[]"
        }
      ],
      "name": "newItemRatesSet",
      "outputs": [],
      "stateMutability": "nonpayable",
      "type": "function"
    },
    {
      "inputs": [
        {
          "internalType": "uint256",
          "name": "_id",
          "type": "uint256"
        },
        {
          "internalType": "uint256[]",
          "name": "_item",
          "type": "uint256[]"
        }
      ],
      "name": "newItemsSet",
      "outputs": [],
      "stateMutability": "nonpayable",
      "type": "function"
    },
    {
      "inputs": [
        {
          "internalType": "address",
          "name": "from",
          "type": "address"
        },
        {
          "internalType": "address",
          "name": "to",
          "type": "address"
        },
        {
          "internalType": "uint256[]",
          "name": "ids",
          "type": "uint256[]"
        },
        {
          "internalType": "uint256[]",
          "name": "amounts",
          "type": "uint256[]"
        },
        {
          "internalType": "bytes",
          "name": "data",
          "type": "bytes"
        }
      ],
      "name": "safeBatchTransferFrom",
      "outputs": [],
      "stateMutability": "nonpayable",
      "type": "function"
    },
    {
      "inputs": [
        {
          "internalType": "address",
          "name": "from",
          "type": "address"
        },
        {
          "internalType": "address",
          "name": "to",
          "type": "address"
        },
        {
          "internalType": "uint256",
          "name": "id",
          "type": "uint256"
        },
        {
          "internalType": "uint256",
          "name": "amount",
          "type": "uint256"
        },
        {
          "internalType": "bytes",
          "name": "data",
          "type": "bytes"
        }
      ],
      "name": "safeTransferFrom",
      "outputs": [],
      "stateMutability": "nonpayable",
      "type": "function"
    },
    {
      "inputs": [
        {
          "internalType": "address",
          "name": "operator",
          "type": "address"
        },
        {
          "internalType": "bool",
          "name": "approved",
          "type": "bool"
        }
      ],
      "name": "setApprovalForAll",
      "outputs": [],
      "stateMutability": "nonpayable",
      "type": "function"
    },
    {
      "inputs": [
        {
          "internalType": "bytes4",
          "name": "interfaceId",
          "type": "bytes4"
        }
      ],
      "name": "supportsInterface",
      "outputs": [
        {
          "internalType": "bool",
          "name": "",
          "type": "bool"
        }
      ],
      "stateMutability": "view",
      "type": "function"
    },
    {
      "inputs": [
        {
          "internalType": "uint256",
          "name": "",
          "type": "uint256"
        }
      ],
      "name": "uri",
      "outputs": [
        {
          "internalType": "string",
          "name": "",
          "type": "string"
        }
      ],
      "stateMutability": "view",
      "type": "function"
    }
  ],
  "bytecode": "0x60806040523480156200001157600080fd5b50604051620049a9380380620049a9833981810160405281019062000037919062000790565b604051806020016040528060008152506200005881620006ad60201b60201c565b5080600360006101000a81548173ffffffffffffffffffffffffffffffffffffffff021916908373ffffffffffffffffffffffffffffffffffffffff16021790555060056000808152602001908152602001600020600090806001815401808255809150506001900390600052602060002001600090919091909150556005600080815260200190815260200160002060019080600181540180825580915050600190039060005260206000200160009091909190915055600460008081526020019081526020016000206003908060018154018082558091505060019003906000526020600020016000909190919091505560046000808152602001908152602001600020600590806001815401808255809150506001900390600052602060002001600090919091909150556005600060018152602001908152602001600020600090806001815401808255809150506001900390600052602060002001600090919091909150556005600060018152602001908152602001600020600190806001815401808255809150506001900390600052602060002001600090919091909150556004600060018152602001908152602001600020600690806001815401808255809150506001900390600052602060002001600090919091909150556004600060018152602001908152602001600020600790806001815401808255809150506001900390600052602060002001600090919091909150556005600060028152602001908152602001600020600090806001815401808255809150506001900390600052602060002001600090919091909150556005600060028152602001908152602001600020600190806001815401808255809150506001900390600052602060002001600090919091909150556004600060028152602001908152602001600020600a90806001815401808255809150506001900390600052602060002001600090919091909150556004600060028152602001908152602001600020600a908060018154018082558091505060019003906000526020600020016000909190919091505560066000808152602001908152602001600020600090806001815401808255809150506001900390600052602060002001600090919091909150556006600080815260200190815260200160002060029080600181540180825580915050600190039060005260206000200160009091909190915055600660008081526020019081526020016000206003908060018154018082558091505060019003906000526020600020016000909190919091505560066000808152602001908152602001600020600490806001815401808255809150506001900390600052602060002001600090919091909150556006600060018152602001908152602001600020600090806001815401808255809150506001900390600052602060002001600090919091909150556006600060018152602001908152602001600020600290806001815401808255809150506001900390600052602060002001600090919091909150556006600060018152602001908152602001600020600490806001815401808255809150506001900390600052602060002001600090919091909150556007600060018152602001908152602001600020600a908060018154018082558091505060019003906000526020600020016000909190919091505560076000600181526020019081526020016000206001908060018154018082558091505060019003906000526020600020016000909190919091505560076000600181526020019081526020016000206003908060018154018082558091505060019003906000526020600020016000909190919091505560076000808152602001908152602001600020603290806001815401808255809150506001900390600052602060002001600090919091909150556007600080815260200190815260200160002060029080600181540180825580915050600190039060005260206000200160009091909190915055600760008081526020019081526020016000206001908060018154018082558091505060019003906000526020600020016000909190919091505560076000808152602001908152602001600020600a9080600181540180825580915050600190039060005260206000200160009091909190915055506200086f565b8060029080519060200190620006c5929190620006c9565b5050565b828054620006d790620007f0565b90600052602060002090601f016020900481019282620006fb576000855562000747565b82601f106200071657805160ff191683800117855562000747565b8280016001018555821562000747579182015b828111156200074657825182559160200191906001019062000729565b5b5090506200075691906200075a565b5090565b5b80821115620007755760008160009055506001016200075b565b5090565b6000815190506200078a8162000855565b92915050565b600060208284031215620007a357600080fd5b6000620007b38482850162000779565b91505092915050565b6000620007c982620007d0565b9050919050565b600073ffffffffffffffffffffffffffffffffffffffff82169050919050565b600060028204905060018216806200080957607f821691505b6020821081141562000820576200081f62000826565b5b50919050565b7f4e487b7100000000000000000000000000000000000000000000000000000000600052602260045260246000fd5b6200086081620007bc565b81146200086c57600080fd5b50565b61412a806200087f6000396000f3fe608060405234801561001057600080fd5b50600436106101565760003560e01c80635ce81ef8116100c3578063b551d32d1161007c578063b551d32d146103e7578063ca8434c314610417578063e3fd44ee14610435578063e985e9c514610451578063ea59796a14610481578063f242432a1461049d57610156565b80635ce81ef814610325578063649a20f7146103415780636ab620231461037157806396efab691461038f578063a22cb465146103ad578063b2515c1d146103c957610156565b806317c0a1e61161011557806317c0a1e6146102535780632db11392146102715780632eb2c2d61461028d5780633a583c8e146102a957806349ede73a146102c55780634e1273f4146102f557610156565b8062f448b01461015b578062fdd58e1461018b57806301ffc9a7146101bb578063088d8533146101eb5780630e89341c14610207578063100a974014610237575b600080fd5b61017560048036038101906101709190613201565b6104b9565b6040516101829190613844565b60405180910390f35b6101a560048036038101906101a0919061303b565b6104ea565b6040516101b29190613844565b60405180910390f35b6101d560048036038101906101d09190613132565b6105b3565b6040516101e291906136a7565b60405180910390f35b61020560048036038101906102009190613077565b610695565b005b610221600480360381019061021c9190613184565b6109d0565b60405161022e91906136c2565b60405180910390f35b610251600480360381019061024c91906131ad565b610a64565b005b61025b610b02565b6040516102689190613844565b60405180910390f35b61028b6004803603810190610286919061303b565b610b07565b005b6102a760048036038101906102a29190612e28565b611007565b005b6102c360048036038101906102be91906131ad565b6110a8565b005b6102df60048036038101906102da9190613201565b611146565b6040516102ec9190613844565b60405180910390f35b61030f600480360381019061030a91906130c6565b611177565b60405161031c9190613609565b60405180910390f35b61033f600480360381019061033a919061303b565b611328565b005b61035b60048036038101906103569190613201565b611824565b6040516103689190613844565b60405180910390f35b610379611855565b6040516103869190613844565b60405180910390f35b61039761185a565b6040516103a49190613844565b60405180910390f35b6103c760048036038101906103c29190612fff565b61185f565b005b6103d1611875565b6040516103de9190613844565b60405180910390f35b61040160048036038101906103fc9190613201565b61187a565b60405161040e9190613844565b60405180910390f35b61041f6118ab565b60405161042c9190613844565b60405180910390f35b61044f600480360381019061044a9190612f76565b6118b0565b005b61046b60048036038101906104669190612dec565b611976565b60405161047891906136a7565b60405180910390f35b61049b60048036038101906104969190613077565b611a0a565b005b6104b760048036038101906104b29190612ee7565b611a2a565b005b600660205281600052604060002081815481106104d557600080fd5b90600052602060002001600091509150505481565b60008073ffffffffffffffffffffffffffffffffffffffff168373ffffffffffffffffffffffffffffffffffffffff16141561055b576040517f08c379a000000000000000000000000000000000000000000000000000000000815260040161055290613724565b60405180910390fd5b60008083815260200190815260200160002060008473ffffffffffffffffffffffffffffffffffffffff1673ffffffffffffffffffffffffffffffffffffffff16815260200190815260200160002054905092915050565b60007fd9b67a26000000000000000000000000000000000000000000000000000000007bffffffffffffffffffffffffffffffffffffffffffffffffffffffff1916827bffffffffffffffffffffffffffffffffffffffffffffffffffffffff1916148061067e57507f0e89341c000000000000000000000000000000000000000000000000000000007bffffffffffffffffffffffffffffffffffffffffffffffffffffffff1916827bffffffffffffffffffffffffffffffffffffffffffffffffffffffff1916145b8061068e575061068d82611acb565b5b9050919050565b808210156108345761077a83600660008081526020019081526020016000208054806020026020016040519081016040528092919081815260200182805480156106fe57602002820191906000526020600020905b8154815260200190600101908083116106ea575b50505050506007600080815260200190815260200160002080548060200260200160405190810160405280929190818152602001828054801561076057602002820191906000526020600020905b81548152602001906001019080831161074c575b505050505060405180602001604052806000815250611b35565b600360009054906101000a900473ffffffffffffffffffffffffffffffffffffffff1673ffffffffffffffffffffffffffffffffffffffff16637ee474446006600080815260200190815260200160002060076000808152602001908152602001600020866040518463ffffffff1660e01b81526004016107fd93929190613662565b600060405180830381600087803b15801561081757600080fd5b505af115801561082b573d6000803e3d6000fd5b505050506109cb565b61091383600660006001815260200190815260200160002080548060200260200160405190810160405280929190818152602001828054801561089657602002820191906000526020600020905b815481526020019060010190808311610882575b505050505060076000600181526020019081526020016000208054806020026020016040519081016040528092919081815260200182805480156108f957602002820191906000526020600020905b8154815260200190600101908083116108e5575b505050505060405180602001604052806000815250611b35565b600360009054906101000a900473ffffffffffffffffffffffffffffffffffffffff1673ffffffffffffffffffffffffffffffffffffffff16637ee4744460066000600181526020019081526020016000206007600060018152602001908152602001600020866040518463ffffffff1660e01b815260040161099893929190613662565b600060405180830381600087803b1580156109b257600080fd5b505af11580156109c6573d6000803e3d6000fd5b505050505b505050565b6060600280546109df90613aea565b80601f0160208091040260200160405190810160405280929190818152602001828054610a0b90613aea565b8015610a585780601f10610a2d57610100808354040283529160200191610a58565b820191906000526020600020905b815481529060010190602001808311610a3b57829003601f168201915b50505050509050919050565b60005b8151811015610afd5760046000848152602001908152602001600020828281518110610abc577f4e487b7100000000000000000000000000000000000000000000000000000000600052603260045260246000fd5b602002602001015190806001815401808255809150506001900390600052602060002001600090919091909150558080610af590613b67565b915050610a67565b505050565b600381565b603c8111158015610b19575080600011155b15610cb957610bfd826005600060038152602001908152602001600020805480602002602001604051908101604052809291908181526020018280548015610b8057602002820191906000526020600020905b815481526020019060010190808311610b6c575b50505050506004600060038152602001908152602001600020805480602002602001604051908101604052809291908181526020018280548015610be357602002820191906000526020600020905b815481526020019060010190808311610bcf575b505050505060405180602001604052806000815250611b35565b600360009054906101000a900473ffffffffffffffffffffffffffffffffffffffff1673ffffffffffffffffffffffffffffffffffffffff16637ee4744460056000600381526020019081526020016000206004600060038152602001908152602001600020856040518463ffffffff1660e01b8152600401610c8293929190613662565b600060405180830381600087803b158015610c9c57600080fd5b505af1158015610cb0573d6000803e3d6000fd5b50505050611003565b605a8111158015610ccb575080604611155b15610e6b57610daf826005600060048152602001908152602001600020805480602002602001604051908101604052809291908181526020018280548015610d3257602002820191906000526020600020905b815481526020019060010190808311610d1e575b50505050506004600060048152602001908152602001600020805480602002602001604051908101604052809291908181526020018280548015610d9557602002820191906000526020600020905b815481526020019060010190808311610d81575b505050505060405180602001604052806000815250611b35565b600360009054906101000a900473ffffffffffffffffffffffffffffffffffffffff1673ffffffffffffffffffffffffffffffffffffffff16637ee4744460056000600481526020019081526020016000206004600060048152602001908152602001600020856040518463ffffffff1660e01b8152600401610e3493929190613662565b600060405180830381600087803b158015610e4e57600080fd5b505af1158015610e62573d6000803e3d6000fd5b50505050611002565b610f4a826005600060058152602001908152602001600020805480602002602001604051908101604052809291908181526020018280548015610ecd57602002820191906000526020600020905b815481526020019060010190808311610eb9575b50505050506004600060058152602001908152602001600020805480602002602001604051908101604052809291908181526020018280548015610f3057602002820191906000526020600020905b815481526020019060010190808311610f1c575b505050505060405180602001604052806000815250611b35565b600360009054906101000a900473ffffffffffffffffffffffffffffffffffffffff1673ffffffffffffffffffffffffffffffffffffffff16637ee4744460056000600581526020019081526020016000206004600060058152602001908152602001600020856040518463ffffffff1660e01b8152600401610fcf93929190613662565b600060405180830381600087803b158015610fe957600080fd5b505af1158015610ffd573d6000803e3d6000fd5b505050505b5b5050565b61100f611dae565b73ffffffffffffffffffffffffffffffffffffffff168573ffffffffffffffffffffffffffffffffffffffff16148061105557506110548561104f611dae565b611976565b5b611094576040517f08c379a000000000000000000000000000000000000000000000000000000000815260040161108b90613784565b60405180910390fd5b6110a18585858585611db6565b5050505050565b60005b81518110156111415760056000848152602001908152602001600020828281518110611100577f4e487b7100000000000000000000000000000000000000000000000000000000600052603260045260246000fd5b60200260200101519080600181540180825580915050600190039060005260206000200160009091909190915055808061113990613b67565b9150506110ab565b505050565b6004602052816000526040600020818154811061116257600080fd5b90600052602060002001600091509150505481565b606081518351146111bd576040517f08c379a00000000000000000000000000000000000000000000000000000000081526004016111b4906137e4565b60405180910390fd5b6000835167ffffffffffffffff811115611200577f4e487b7100000000000000000000000000000000000000000000000000000000600052604160045260246000fd5b60405190808252806020026020018201604052801561122e5781602001602082028036833780820191505090505b50905060005b845181101561131d576112c7858281518110611279577f4e487b7100000000000000000000000000000000000000000000000000000000600052603260045260246000fd5b60200260200101518583815181106112ba577f4e487b7100000000000000000000000000000000000000000000000000000000600052603260045260246000fd5b60200260200101516104ea565b828281518110611300577f4e487b7100000000000000000000000000000000000000000000000000000000600052603260045260246000fd5b6020026020010181815250508061131690613b67565b9050611234565b508091505092915050565b603c811115801561133a575080600011155b156114d65761141c82600560008081526020019081526020016000208054806020026020016040519081016040528092919081815260200182805480156113a057602002820191906000526020600020905b81548152602001906001019080831161138c575b50505050506004600080815260200190815260200160002080548060200260200160405190810160405280929190818152602001828054801561140257602002820191906000526020600020905b8154815260200190600101908083116113ee575b505050505060405180602001604052806000815250611b35565b600360009054906101000a900473ffffffffffffffffffffffffffffffffffffffff1673ffffffffffffffffffffffffffffffffffffffff16637ee474446005600080815260200190815260200160002060046000808152602001908152602001600020856040518463ffffffff1660e01b815260040161149f93929190613662565b600060405180830381600087803b1580156114b957600080fd5b505af11580156114cd573d6000803e3d6000fd5b50505050611820565b605a81111580156114e8575080604611155b15611688576115cc82600560006001815260200190815260200160002080548060200260200160405190810160405280929190818152602001828054801561154f57602002820191906000526020600020905b81548152602001906001019080831161153b575b505050505060046000600181526020019081526020016000208054806020026020016040519081016040528092919081815260200182805480156115b257602002820191906000526020600020905b81548152602001906001019080831161159e575b505050505060405180602001604052806000815250611b35565b600360009054906101000a900473ffffffffffffffffffffffffffffffffffffffff1673ffffffffffffffffffffffffffffffffffffffff16637ee4744460056000600181526020019081526020016000206004600060018152602001908152602001600020856040518463ffffffff1660e01b815260040161165193929190613662565b600060405180830381600087803b15801561166b57600080fd5b505af115801561167f573d6000803e3d6000fd5b5050505061181f565b6117678260056000600281526020019081526020016000208054806020026020016040519081016040528092919081815260200182805480156116ea57602002820191906000526020600020905b8154815260200190600101908083116116d6575b5050505050600460006002815260200190815260200160002080548060200260200160405190810160405280929190818152602001828054801561174d57602002820191906000526020600020905b815481526020019060010190808311611739575b505050505060405180602001604052806000815250611b35565b600360009054906101000a900473ffffffffffffffffffffffffffffffffffffffff1673ffffffffffffffffffffffffffffffffffffffff16637ee4744460056000600281526020019081526020016000206004600060028152602001908152602001600020856040518463ffffffff1660e01b81526004016117ec93929190613662565b600060405180830381600087803b15801561180657600080fd5b505af115801561181a573d6000803e3d6000fd5b505050505b5b5050565b6007602052816000526040600020818154811061184057600080fd5b90600052602060002001600091509150505481565b600081565b600181565b61187161186a611dae565b8383612124565b5050565b600481565b6005602052816000526040600020818154811061189657600080fd5b90600052602060002001600091509150505481565b600281565b600084849050905060005b8181101561196d5761195c87878784818110611900577f4e487b7100000000000000000000000000000000000000000000000000000000600052603260045260246000fd5b90506020020135868685818110611940577f4e487b7100000000000000000000000000000000000000000000000000000000600052603260045260246000fd5b9050602002013560405180602001604052806000815250612291565b8061196690613b67565b90506118bb565b50505050505050565b6000600160008473ffffffffffffffffffffffffffffffffffffffff1673ffffffffffffffffffffffffffffffffffffffff16815260200190815260200160002060008373ffffffffffffffffffffffffffffffffffffffff1673ffffffffffffffffffffffffffffffffffffffff16815260200190815260200160002060009054906101000a900460ff16905092915050565b611a2583838360405180602001604052806000815250612291565b505050565b611a32611dae565b73ffffffffffffffffffffffffffffffffffffffff168573ffffffffffffffffffffffffffffffffffffffff161480611a785750611a7785611a72611dae565b611976565b5b611ab7576040517f08c379a0000000000000000000000000000000000000000000000000000000008152600401611aae90613744565b60405180910390fd5b611ac48585858585612442565b5050505050565b60007f01ffc9a7000000000000000000000000000000000000000000000000000000007bffffffffffffffffffffffffffffffffffffffffffffffffffffffff1916827bffffffffffffffffffffffffffffffffffffffffffffffffffffffff1916149050919050565b600073ffffffffffffffffffffffffffffffffffffffff168473ffffffffffffffffffffffffffffffffffffffff161415611ba5576040517f08c379a0000000000000000000000000000000000000000000000000000000008152600401611b9c90613824565b60405180910390fd5b8151835114611be9576040517f08c379a0000000000000000000000000000000000000000000000000000000008152600401611be090613804565b60405180910390fd5b6000611bf3611dae565b9050611c04816000878787876126de565b60005b8451811015611d0957838181518110611c49577f4e487b7100000000000000000000000000000000000000000000000000000000600052603260045260246000fd5b6020026020010151600080878481518110611c8d577f4e487b7100000000000000000000000000000000000000000000000000000000600052603260045260246000fd5b6020026020010151815260200190815260200160002060008873ffffffffffffffffffffffffffffffffffffffff1673ffffffffffffffffffffffffffffffffffffffff1681526020019081526020016000206000828254611cef91906139d4565b925050819055508080611d0190613b67565b915050611c07565b508473ffffffffffffffffffffffffffffffffffffffff16600073ffffffffffffffffffffffffffffffffffffffff168273ffffffffffffffffffffffffffffffffffffffff167f4a39dc06d4c0dbc64b70af90fd698a233a518aa5d07e595d983b8c0526c8f7fb8787604051611d8192919061362b565b60405180910390a4611d98816000878787876126e6565b611da7816000878787876126ee565b5050505050565b600033905090565b8151835114611dfa576040517f08c379a0000000000000000000000000000000000000000000000000000000008152600401611df190613804565b60405180910390fd5b600073ffffffffffffffffffffffffffffffffffffffff168473ffffffffffffffffffffffffffffffffffffffff161415611e6a576040517f08c379a0000000000000000000000000000000000000000000000000000000008152600401611e6190613764565b60405180910390fd5b6000611e74611dae565b9050611e848187878787876126de565b60005b8451811015612081576000858281518110611ecb577f4e487b7100000000000000000000000000000000000000000000000000000000600052603260045260246000fd5b602002602001015190506000858381518110611f10577f4e487b7100000000000000000000000000000000000000000000000000000000600052603260045260246000fd5b60200260200101519050600080600084815260200190815260200160002060008b73ffffffffffffffffffffffffffffffffffffffff1673ffffffffffffffffffffffffffffffffffffffff16815260200190815260200160002054905081811015611fb1576040517f08c379a0000000000000000000000000000000000000000000000000000000008152600401611fa8906137a4565b60405180910390fd5b81810360008085815260200190815260200160002060008c73ffffffffffffffffffffffffffffffffffffffff1673ffffffffffffffffffffffffffffffffffffffff168152602001908152602001600020819055508160008085815260200190815260200160002060008b73ffffffffffffffffffffffffffffffffffffffff1673ffffffffffffffffffffffffffffffffffffffff168152602001908152602001600020600082825461206691906139d4565b925050819055505050508061207a90613b67565b9050611e87565b508473ffffffffffffffffffffffffffffffffffffffff168673ffffffffffffffffffffffffffffffffffffffff168273ffffffffffffffffffffffffffffffffffffffff167f4a39dc06d4c0dbc64b70af90fd698a233a518aa5d07e595d983b8c0526c8f7fb87876040516120f892919061362b565b60405180910390a461210e8187878787876126e6565b61211c8187878787876126ee565b505050505050565b8173ffffffffffffffffffffffffffffffffffffffff168373ffffffffffffffffffffffffffffffffffffffff161415612193576040517f08c379a000000000000000000000000000000000000000000000000000000000815260040161218a906137c4565b60405180910390fd5b80600160008573ffffffffffffffffffffffffffffffffffffffff1673ffffffffffffffffffffffffffffffffffffffff16815260200190815260200160002060008473ffffffffffffffffffffffffffffffffffffffff1673ffffffffffffffffffffffffffffffffffffffff16815260200190815260200160002060006101000a81548160ff0219169083151502179055508173ffffffffffffffffffffffffffffffffffffffff168373ffffffffffffffffffffffffffffffffffffffff167f17307eab39ab6107e8899845ad3d59bd9653f200f220920489ca2b5937696c318360405161228491906136a7565b60405180910390a3505050565b600073ffffffffffffffffffffffffffffffffffffffff168473ffffffffffffffffffffffffffffffffffffffff161415612301576040517f08c379a00000000000000000000000000000000000000000000000000000000081526004016122f890613824565b60405180910390fd5b600061230b611dae565b90506000612318856128d5565b90506000612325856128d5565b9050612336836000898585896126de565b8460008088815260200190815260200160002060008973ffffffffffffffffffffffffffffffffffffffff1673ffffffffffffffffffffffffffffffffffffffff168152602001908152602001600020600082825461239591906139d4565b925050819055508673ffffffffffffffffffffffffffffffffffffffff16600073ffffffffffffffffffffffffffffffffffffffff168473ffffffffffffffffffffffffffffffffffffffff167fc3d58168c5ae7397731d063d5bbf3d657854427343f4c083240f7aacaa2d0f62898960405161241392919061385f565b60405180910390a461242a836000898585896126e6565b6124398360008989898961299b565b50505050505050565b600073ffffffffffffffffffffffffffffffffffffffff168473ffffffffffffffffffffffffffffffffffffffff1614156124b2576040517f08c379a00000000000000000000000000000000000000000000000000000000081526004016124a990613764565b60405180910390fd5b60006124bc611dae565b905060006124c9856128d5565b905060006124d6856128d5565b90506124e68389898585896126de565b600080600088815260200190815260200160002060008a73ffffffffffffffffffffffffffffffffffffffff1673ffffffffffffffffffffffffffffffffffffffff1681526020019081526020016000205490508581101561257d576040517f08c379a0000000000000000000000000000000000000000000000000000000008152600401612574906137a4565b60405180910390fd5b85810360008089815260200190815260200160002060008b73ffffffffffffffffffffffffffffffffffffffff1673ffffffffffffffffffffffffffffffffffffffff168152602001908152602001600020819055508560008089815260200190815260200160002060008a73ffffffffffffffffffffffffffffffffffffffff1673ffffffffffffffffffffffffffffffffffffffff168152602001908152602001600020600082825461263291906139d4565b925050819055508773ffffffffffffffffffffffffffffffffffffffff168973ffffffffffffffffffffffffffffffffffffffff168573ffffffffffffffffffffffffffffffffffffffff167fc3d58168c5ae7397731d063d5bbf3d657854427343f4c083240f7aacaa2d0f628a8a6040516126af92919061385f565b60405180910390a46126c5848a8a86868a6126e6565b6126d3848a8a8a8a8a61299b565b505050505050505050565b505050505050565b505050505050565b61270d8473ffffffffffffffffffffffffffffffffffffffff16612b82565b156128cd578373ffffffffffffffffffffffffffffffffffffffff1663bc197c8187878686866040518663ffffffff1660e01b8152600401612753959493929190613547565b602060405180830381600087803b15801561276d57600080fd5b505af192505050801561279e57506040513d601f19601f8201168201806040525081019061279b919061315b565b60015b612844576127aa613c50565b806308c379a0141561280757506127bf614002565b806127ca5750612809565b806040517f08c379a00000000000000000000000000000000000000000000000000000000081526004016127fe91906136c2565b60405180910390fd5b505b6040517f08c379a000000000000000000000000000000000000000000000000000000000815260040161283b906136e4565b60405180910390fd5b63bc197c8160e01b7bffffffffffffffffffffffffffffffffffffffffffffffffffffffff1916817bffffffffffffffffffffffffffffffffffffffffffffffffffffffff1916146128cb576040517f08c379a00000000000000000000000000000000000000000000000000000000081526004016128c290613704565b60405180910390fd5b505b505050505050565b60606000600167ffffffffffffffff81111561291a577f4e487b7100000000000000000000000000000000000000000000000000000000600052604160045260246000fd5b6040519080825280602002602001820160405280156129485781602001602082028036833780820191505090505b5090508281600081518110612986577f4e487b7100000000000000000000000000000000000000000000000000000000600052603260045260246000fd5b60200260200101818152505080915050919050565b6129ba8473ffffffffffffffffffffffffffffffffffffffff16612b82565b15612b7a578373ffffffffffffffffffffffffffffffffffffffff1663f23a6e6187878686866040518663ffffffff1660e01b8152600401612a009594939291906135af565b602060405180830381600087803b158015612a1a57600080fd5b505af1925050508015612a4b57506040513d601f19601f82011682018060405250810190612a48919061315b565b60015b612af157612a57613c50565b806308c379a01415612ab45750612a6c614002565b80612a775750612ab6565b806040517f08c379a0000000000000000000000000000000000000000000000000000000008152600401612aab91906136c2565b60405180910390fd5b505b6040517f08c379a0000000000000000000000000000000000000000000000000000000008152600401612ae8906136e4565b60405180910390fd5b63f23a6e6160e01b7bffffffffffffffffffffffffffffffffffffffffffffffffffffffff1916817bffffffffffffffffffffffffffffffffffffffffffffffffffffffff191614612b78576040517f08c379a0000000000000000000000000000000000000000000000000000000008152600401612b6f90613704565b60405180910390fd5b505b505050505050565b6000808273ffffffffffffffffffffffffffffffffffffffff163b119050919050565b6000612bb8612bb3846138ad565b613888565b90508083825260208201905082856020860282011115612bd757600080fd5b60005b85811015612c075781612bed8882612cbb565b845260208401935060208301925050600181019050612bda565b5050509392505050565b6000612c24612c1f846138d9565b613888565b90508083825260208201905082856020860282011115612c4357600080fd5b60005b85811015612c735781612c598882612dd7565b845260208401935060208301925050600181019050612c46565b5050509392505050565b6000612c90612c8b84613905565b613888565b905082815260208101848484011115612ca857600080fd5b612cb3848285613aa8565b509392505050565b600081359050612cca81614098565b92915050565b600082601f830112612ce157600080fd5b8135612cf1848260208601612ba5565b91505092915050565b60008083601f840112612d0c57600080fd5b8235905067ffffffffffffffff811115612d2557600080fd5b602083019150836020820283011115612d3d57600080fd5b9250929050565b600082601f830112612d5557600080fd5b8135612d65848260208601612c11565b91505092915050565b600081359050612d7d816140af565b92915050565b600081359050612d92816140c6565b92915050565b600081519050612da7816140c6565b92915050565b600082601f830112612dbe57600080fd5b8135612dce848260208601612c7d565b91505092915050565b600081359050612de6816140dd565b92915050565b60008060408385031215612dff57600080fd5b6000612e0d85828601612cbb565b9250506020612e1e85828601612cbb565b9150509250929050565b600080600080600060a08688031215612e4057600080fd5b6000612e4e88828901612cbb565b9550506020612e5f88828901612cbb565b945050604086013567ffffffffffffffff811115612e7c57600080fd5b612e8888828901612d44565b935050606086013567ffffffffffffffff811115612ea557600080fd5b612eb188828901612d44565b925050608086013567ffffffffffffffff811115612ece57600080fd5b612eda88828901612dad565b9150509295509295909350565b600080600080600060a08688031215612eff57600080fd5b6000612f0d88828901612cbb565b9550506020612f1e88828901612cbb565b9450506040612f2f88828901612dd7565b9350506060612f4088828901612dd7565b925050608086013567ffffffffffffffff811115612f5d57600080fd5b612f6988828901612dad565b9150509295509295909350565b600080600080600060608688031215612f8e57600080fd5b6000612f9c88828901612cbb565b955050602086013567ffffffffffffffff811115612fb957600080fd5b612fc588828901612cfa565b9450945050604086013567ffffffffffffffff811115612fe457600080fd5b612ff088828901612cfa565b92509250509295509295909350565b6000806040838503121561301257600080fd5b600061302085828601612cbb565b925050602061303185828601612d6e565b9150509250929050565b6000806040838503121561304e57600080fd5b600061305c85828601612cbb565b925050602061306d85828601612dd7565b9150509250929050565b60008060006060848603121561308c57600080fd5b600061309a86828701612cbb565b93505060206130ab86828701612dd7565b92505060406130bc86828701612dd7565b9150509250925092565b600080604083850312156130d957600080fd5b600083013567ffffffffffffffff8111156130f357600080fd5b6130ff85828601612cd0565b925050602083013567ffffffffffffffff81111561311c57600080fd5b61312885828601612d44565b9150509250929050565b60006020828403121561314457600080fd5b600061315284828501612d83565b91505092915050565b60006020828403121561316d57600080fd5b600061317b84828501612d98565b91505092915050565b60006020828403121561319657600080fd5b60006131a484828501612dd7565b91505092915050565b600080604083850312156131c057600080fd5b60006131ce85828601612dd7565b925050602083013567ffffffffffffffff8111156131eb57600080fd5b6131f785828601612d44565b9150509250929050565b6000806040838503121561321457600080fd5b600061322285828601612dd7565b925050602061323385828601612dd7565b9150509250929050565b60006132498383613529565b60208301905092915050565b61325e81613a34565b82525050565b600061326f8261395b565b61327981856139a1565b935061328483613936565b8060005b838110156132b557815161329c888261323d565b97506132a783613987565b925050600181019050613288565b5085935050505092915050565b60006132cd82613966565b6132d781856139a1565b93506132e283613946565b8060005b8381101561331a576132f782613c3d565b613301888261323d565b975061330c83613994565b9250506001810190506132e6565b5085935050505092915050565b61333081613a46565b82525050565b600061334182613971565b61334b81856139b2565b935061335b818560208601613ab7565b61336481613c72565b840191505092915050565b600061337a8261397c565b61338481856139c3565b9350613394818560208601613ab7565b61339d81613c72565b840191505092915050565b60006133b56034836139c3565b91506133c082613c9d565b604082019050919050565b60006133d86028836139c3565b91506133e382613cec565b604082019050919050565b60006133fb602b836139c3565b915061340682613d3b565b604082019050919050565b600061341e6029836139c3565b915061342982613d8a565b604082019050919050565b60006134416025836139c3565b915061344c82613dd9565b604082019050919050565b60006134646032836139c3565b915061346f82613e28565b604082019050919050565b6000613487602a836139c3565b915061349282613e77565b604082019050919050565b60006134aa6029836139c3565b91506134b582613ec6565b604082019050919050565b60006134cd6029836139c3565b91506134d882613f15565b604082019050919050565b60006134f06028836139c3565b91506134fb82613f64565b604082019050919050565b60006135136021836139c3565b915061351e82613fb3565b604082019050919050565b61353281613a9e565b82525050565b61354181613a9e565b82525050565b600060a08201905061355c6000830188613255565b6135696020830187613255565b818103604083015261357b8186613264565b9050818103606083015261358f8185613264565b905081810360808301526135a38184613336565b90509695505050505050565b600060a0820190506135c46000830188613255565b6135d16020830187613255565b6135de6040830186613538565b6135eb6060830185613538565b81810360808301526135fd8184613336565b90509695505050505050565b600060208201905081810360008301526136238184613264565b905092915050565b600060408201905081810360008301526136458185613264565b905081810360208301526136598184613264565b90509392505050565b6000606082019050818103600083015261367c81866132c2565b9050818103602083015261369081856132c2565b905061369f6040830184613255565b949350505050565b60006020820190506136bc6000830184613327565b92915050565b600060208201905081810360008301526136dc818461336f565b905092915050565b600060208201905081810360008301526136fd816133a8565b9050919050565b6000602082019050818103600083015261371d816133cb565b9050919050565b6000602082019050818103600083015261373d816133ee565b9050919050565b6000602082019050818103600083015261375d81613411565b9050919050565b6000602082019050818103600083015261377d81613434565b9050919050565b6000602082019050818103600083015261379d81613457565b9050919050565b600060208201905081810360008301526137bd8161347a565b9050919050565b600060208201905081810360008301526137dd8161349d565b9050919050565b600060208201905081810360008301526137fd816134c0565b9050919050565b6000602082019050818103600083015261381d816134e3565b9050919050565b6000602082019050818103600083015261383d81613506565b9050919050565b60006020820190506138596000830184613538565b92915050565b60006040820190506138746000830185613538565b6138816020830184613538565b9392505050565b60006138926138a3565b905061389e8282613b36565b919050565b6000604051905090565b600067ffffffffffffffff8211156138c8576138c7613c0e565b5b602082029050602081019050919050565b600067ffffffffffffffff8211156138f4576138f3613c0e565b5b602082029050602081019050919050565b600067ffffffffffffffff8211156139205761391f613c0e565b5b61392982613c72565b9050602081019050919050565b6000819050602082019050919050565b60008190508160005260206000209050919050565b600081519050919050565b600081549050919050565b600081519050919050565b600081519050919050565b6000602082019050919050565b6000600182019050919050565b600082825260208201905092915050565b600082825260208201905092915050565b600082825260208201905092915050565b60006139df82613a9e565b91506139ea83613a9e565b9250827fffffffffffffffffffffffffffffffffffffffffffffffffffffffffffffffff03821115613a1f57613a1e613bb0565b5b828201905092915050565b6000819050919050565b6000613a3f82613a7e565b9050919050565b60008115159050919050565b60007fffffffff0000000000000000000000000000000000000000000000000000000082169050919050565b600073ffffffffffffffffffffffffffffffffffffffff82169050919050565b6000819050919050565b82818337600083830152505050565b60005b83811015613ad5578082015181840152602081019050613aba565b83811115613ae4576000848401525b50505050565b60006002820490506001821680613b0257607f821691505b60208210811415613b1657613b15613bdf565b5b50919050565b6000613b2f613b2a83613c83565b613a2a565b9050919050565b613b3f82613c72565b810181811067ffffffffffffffff82111715613b5e57613b5d613c0e565b5b80604052505050565b6000613b7282613a9e565b91507fffffffffffffffffffffffffffffffffffffffffffffffffffffffffffffffff821415613ba557613ba4613bb0565b5b600182019050919050565b7f4e487b7100000000000000000000000000000000000000000000000000000000600052601160045260246000fd5b7f4e487b7100000000000000000000000000000000000000000000000000000000600052602260045260246000fd5b7f4e487b7100000000000000000000000000000000000000000000000000000000600052604160045260246000fd5b6000613c498254613b1c565b9050919050565b600060033d1115613c6f5760046000803e613c6c600051613c90565b90505b90565b6000601f19601f8301169050919050565b60008160001c9050919050565b60008160e01c9050919050565b7f455243313135353a207472616e7366657220746f206e6f6e204552433131353560008201527f526563656976657220696d706c656d656e746572000000000000000000000000602082015250565b7f455243313135353a204552433131353552656365697665722072656a6563746560008201527f6420746f6b656e73000000000000000000000000000000000000000000000000602082015250565b7f455243313135353a2062616c616e636520717565727920666f7220746865207a60008201527f65726f2061646472657373000000000000000000000000000000000000000000602082015250565b7f455243313135353a2063616c6c6572206973206e6f74206f776e6572206e6f7260008201527f20617070726f7665640000000000000000000000000000000000000000000000602082015250565b7f455243313135353a207472616e7366657220746f20746865207a65726f20616460008201527f6472657373000000000000000000000000000000000000000000000000000000602082015250565b7f455243313135353a207472616e736665722063616c6c6572206973206e6f742060008201527f6f776e6572206e6f7220617070726f7665640000000000000000000000000000602082015250565b7f455243313135353a20696e73756666696369656e742062616c616e636520666f60008201527f72207472616e7366657200000000000000000000000000000000000000000000602082015250565b7f455243313135353a2073657474696e6720617070726f76616c2073746174757360008201527f20666f722073656c660000000000000000000000000000000000000000000000602082015250565b7f455243313135353a206163636f756e747320616e6420696473206c656e67746860008201527f206d69736d617463680000000000000000000000000000000000000000000000602082015250565b7f455243313135353a2069647320616e6420616d6f756e7473206c656e6774682060008201527f6d69736d61746368000000000000000000000000000000000000000000000000602082015250565b7f455243313135353a206d696e7420746f20746865207a65726f2061646472657360008201527f7300000000000000000000000000000000000000000000000000000000000000602082015250565b600060443d101561401257614095565b61401a6138a3565b60043d036004823e80513d602482011167ffffffffffffffff82111715614042575050614095565b808201805167ffffffffffffffff8111156140605750505050614095565b80602083010160043d03850181111561407d575050505050614095565b61408c82602001850186613b36565b82955050505050505b90565b6140a181613a34565b81146140ac57600080fd5b50565b6140b881613a46565b81146140c357600080fd5b50565b6140cf81613a52565b81146140da57600080fd5b50565b6140e681613a9e565b81146140f157600080fd5b5056fea2646970667358221220855c429f6f5c61d480433f7aedccec185ab55b0f3206dcc8acb189a18ecc410a64736f6c63430008040033",
  "linkReferences": {},
  "deployedLinkReferences": {}
}