{
  "_format": "hh-sol-artifact-1",
  "contractName": "MonsterGame",
  "sourceName": "contracts/MyMonsterGame.sol",
  "abi": [
    {
      "inputs": [
        {
          "internalType": "uint256",
          "name": "_tokenId",
          "type": "uint256"
        },
        {
          "internalType": "address",
          "name": "_user",
          "type": "address"
        }
      ],
      "name": "beginnerMission",
      "outputs": [],
      "stateMutability": "nonpayable",
      "type": "function"
    },
    {
      "inputs": [
        {
          "internalType": "uint256",
          "name": "_tokenId",
          "type": "uint256"
        },
        {
          "internalType": "address",
          "name": "_user",
          "type": "address"
        }
      ],
      "name": "claimBeginnerMission",
      "outputs": [],
      "stateMutability": "nonpayable",
      "type": "function"
    },
    {
      "inputs": [
        {
          "internalType": "uint256",
          "name": "_tokenId",
          "type": "uint256"
        },
        {
          "internalType": "address",
          "name": "_user",
          "type": "address"
        }
      ],
      "name": "claimIntermediateMission",
      "outputs": [],
      "stateMutability": "nonpayable",
      "type": "function"
    },
    {
      "inputs": [
        {
          "internalType": "uint256",
          "name": "_tokenId",
          "type": "uint256"
        },
        {
          "internalType": "uint256",
          "name": "_amount",
          "type": "uint256"
        }
      ],
      "name": "feedMonster",
      "outputs": [],
      "stateMutability": "payable",
      "type": "function"
    },
    {
      "inputs": [
        {
          "internalType": "address",
          "name": "_user",
          "type": "address"
        }
      ],
      "name": "getMonstersOnBeg",
      "outputs": [
        {
          "components": [
            {
              "internalType": "uint256",
              "name": "tokenId",
              "type": "uint256"
            },
            {
              "internalType": "uint256",
              "name": "missionStart",
              "type": "uint256"
            },
            {
              "internalType": "address",
              "name": "owner",
              "type": "address"
            }
          ],
          "internalType": "struct MonsterGame.Monster[]",
          "name": "",
          "type": "tuple[]"
        }
      ],
      "stateMutability": "view",
      "type": "function"
    },
    {
      "inputs": [
        {
          "internalType": "address",
          "name": "_user",
          "type": "address"
        }
      ],
      "name": "getMonstersOnInt",
      "outputs": [
        {
          "components": [
            {
              "internalType": "uint256",
              "name": "tokenId",
              "type": "uint256"
            },
            {
              "internalType": "uint256",
              "name": "missionStart",
              "type": "uint256"
            },
            {
              "internalType": "address",
              "name": "owner",
              "type": "address"
            }
          ],
          "internalType": "struct MonsterGame.Monster[]",
          "name": "",
          "type": "tuple[]"
        }
      ],
      "stateMutability": "view",
      "type": "function"
    },
    {
      "inputs": [
        {
          "internalType": "uint256",
          "name": "_tokenId",
          "type": "uint256"
        },
        {
          "internalType": "address",
          "name": "_user",
          "type": "address"
        }
      ],
      "name": "intermediateMission",
      "outputs": [],
      "stateMutability": "nonpayable",
      "type": "function"
    },
    {
      "inputs": [],
      "name": "itemsInterface",
      "outputs": [
        {
          "internalType": "contract IItems",
          "name": "",
          "type": "address"
        }
      ],
      "stateMutability": "view",
      "type": "function"
    },
    {
      "inputs": [],
      "name": "monsterInterface",
      "outputs": [
        {
          "internalType": "contract IERC721",
          "name": "",
          "type": "address"
        }
      ],
      "stateMutability": "view",
      "type": "function"
    },
    {
      "inputs": [
        {
          "internalType": "address",
          "name": "",
          "type": "address"
        },
        {
          "internalType": "uint256",
          "name": "",
          "type": "uint256"
        }
      ],
      "name": "myMonsterOnBeg",
      "outputs": [
        {
          "internalType": "uint256",
          "name": "tokenId",
          "type": "uint256"
        },
        {
          "internalType": "uint256",
          "name": "missionStart",
          "type": "uint256"
        },
        {
          "internalType": "address",
          "name": "owner",
          "type": "address"
        }
      ],
      "stateMutability": "view",
      "type": "function"
    },
    {
      "inputs": [
        {
          "internalType": "address",
          "name": "",
          "type": "address"
        },
        {
          "internalType": "uint256",
          "name": "",
          "type": "uint256"
        }
      ],
      "name": "myMonsterOnInt",
      "outputs": [
        {
          "internalType": "uint256",
          "name": "tokenId",
          "type": "uint256"
        },
        {
          "internalType": "uint256",
          "name": "missionStart",
          "type": "uint256"
        },
        {
          "internalType": "address",
          "name": "owner",
          "type": "address"
        }
      ],
      "stateMutability": "view",
      "type": "function"
    },
    {
      "inputs": [
        {
          "internalType": "address",
          "name": "",
          "type": "address"
        },
        {
          "internalType": "address",
          "name": "from",
          "type": "address"
        },
        {
          "internalType": "uint256",
          "name": "",
          "type": "uint256"
        },
        {
          "internalType": "bytes",
          "name": "",
          "type": "bytes"
        }
      ],
      "name": "onERC721Received",
      "outputs": [
        {
          "internalType": "bytes4",
          "name": "",
          "type": "bytes4"
        }
      ],
      "stateMutability": "pure",
      "type": "function"
    },
    {
      "inputs": [
        {
          "internalType": "address",
          "name": "monsterNFT",
          "type": "address"
        },
        {
          "internalType": "address",
          "name": "itemNFT",
          "type": "address"
        }
      ],
      "name": "setInterface",
      "outputs": [],
      "stateMutability": "nonpayable",
      "type": "function"
    },
    {
      "inputs": [],
      "name": "statsInterface",
      "outputs": [
        {
          "internalType": "contract IMonster",
          "name": "",
          "type": "address"
        }
      ],
      "stateMutability": "view",
      "type": "function"
    },
    {
      "stateMutability": "payable",
      "type": "receive"
    }
  ],
  "bytecode": "0x608060405234801561001057600080fd5b50613db9806100206000396000f3fe6080604052600436106100e15760003560e01c80633ffc1f3c1161007f578063941f167011610059578063941f1670146102c95780639c1cb8bf14610306578063a4bd369114610322578063ad81ad7014610361576100e8565b80633ffc1f3c146102385780635199ac9a1461026357806370835a7b1461028c576100e8565b80630e32f220116100bb5780630e32f22014610168578063150b7a0214610191578063302f3dfc146101ce57806339262c8d146101f9576100e8565b806302d8f2b5146100ed5780630879c57b146101165780630ce432461461013f576100e8565b366100e857005b600080fd5b3480156100f957600080fd5b50610114600480360381019061010f919061300a565b61038c565b005b34801561012257600080fd5b5061013d6004803603810190610138919061312b565b610452565b005b34801561014b57600080fd5b506101666004803603810190610161919061312b565b610916565b005b34801561017457600080fd5b5061018f600480360381019061018a919061312b565b610eb4565b005b34801561019d57600080fd5b506101b860048036038101906101b39190613046565b611429565b6040516101c59190613528565b60405180910390f35b3480156101da57600080fd5b506101e361143e565b6040516101f0919061355e565b60405180910390f35b34801561020557600080fd5b50610220600480360381019061021b91906130c6565b611464565b60405161022f9392919061378a565b60405180910390f35b34801561024457600080fd5b5061024d6114cb565b60405161025a9190613543565b60405180910390f35b34801561026f57600080fd5b5061028a6004803603810190610285919061312b565b6114ef565b005b34801561029857600080fd5b506102b360048036038101906102ae9190612fb8565b611a8c565b6040516102c09190613506565b60405180910390f35b3480156102d557600080fd5b506102f060048036038101906102eb9190612fb8565b611b9a565b6040516102fd9190613506565b60405180910390f35b610320600480360381019061031b9190613167565b611ca8565b005b34801561032e57600080fd5b50610349600480360381019061034491906130c6565b611eaf565b6040516103589392919061378a565b60405180910390f35b34801561036d57600080fd5b50610376611f16565b6040516103839190613579565b60405180910390f35b816000806101000a81548173ffffffffffffffffffffffffffffffffffffffff021916908373ffffffffffffffffffffffffffffffffffffffff16021790555081600160006101000a81548173ffffffffffffffffffffffffffffffffffffffff021916908373ffffffffffffffffffffffffffffffffffffffff16021790555080600260006101000a81548173ffffffffffffffffffffffffffffffffffffffff021916908373ffffffffffffffffffffffffffffffffffffffff1602179055505050565b6000600160009054906101000a900473ffffffffffffffffffffffffffffffffffffffff1673ffffffffffffffffffffffffffffffffffffffff1663c7bd6c31846040518263ffffffff1660e01b81526004016104af91906136f4565b60206040518083038186803b1580156104c757600080fd5b505afa1580156104db573d6000803e3d6000fd5b505050506040513d601f19601f820116820180604052508101906104ff9190613102565b90506000600160009054906101000a900473ffffffffffffffffffffffffffffffffffffffff1673ffffffffffffffffffffffffffffffffffffffff16634d85cebf856040518263ffffffff1660e01b815260040161055e91906136f4565b60206040518083038186803b15801561057657600080fd5b505afa15801561058a573d6000803e3d6000fd5b505050506040513d601f19601f820116820180604052508101906105ae9190613102565b90506000600160009054906101000a900473ffffffffffffffffffffffffffffffffffffffff1673ffffffffffffffffffffffffffffffffffffffff166360e2f2fb866040518263ffffffff1660e01b815260040161060d91906136f4565b60206040518083038186803b15801561062557600080fd5b505afa158015610639573d6000803e3d6000fd5b505050506040513d601f19601f8201168201806040525081019061065d9190613102565b90508373ffffffffffffffffffffffffffffffffffffffff1660008054906101000a900473ffffffffffffffffffffffffffffffffffffffff1673ffffffffffffffffffffffffffffffffffffffff16636352211e876040518263ffffffff1660e01b81526004016106cf91906136f4565b60206040518083038186803b1580156106e757600080fd5b505afa1580156106fb573d6000803e3d6000fd5b505050506040513d601f19601f8201168201806040525081019061071f9190612fe1565b73ffffffffffffffffffffffffffffffffffffffff1614610775576040517f08c379a000000000000000000000000000000000000000000000000000000000815260040161076c906135d4565b60405180910390fd5b610780838383611f3c565b61078957600080fd5b600160009054906101000a900473ffffffffffffffffffffffffffffffffffffffff1673ffffffffffffffffffffffffffffffffffffffff166382e408138660016040518363ffffffff1660e01b81526004016107e7929190613738565b600060405180830381600087803b15801561080157600080fd5b505af1158015610815573d6000803e3d6000fd5b50505050600360008573ffffffffffffffffffffffffffffffffffffffff1673ffffffffffffffffffffffffffffffffffffffff16815260200190815260200160002060405180606001604052808781526020014281526020018673ffffffffffffffffffffffffffffffffffffffff168152509080600181540180825580915050600190039060005260206000209060030201600090919091909150600082015181600001556020820151816001015560408201518160020160006101000a81548173ffffffffffffffffffffffffffffffffffffffff021916908373ffffffffffffffffffffffffffffffffffffffff16021790555050505050505050565b6000600360008373ffffffffffffffffffffffffffffffffffffffff1673ffffffffffffffffffffffffffffffffffffffff168152602001908152602001600020805480602002602001604051908101604052809291908181526020016000905b82821015610a13578382906000526020600020906003020160405180606001604052908160008201548152602001600182015481526020016002820160009054906101000a900473ffffffffffffffffffffffffffffffffffffffff1673ffffffffffffffffffffffffffffffffffffffff1673ffffffffffffffffffffffffffffffffffffffff168152505081526020019060010190610977565b5050505090506000610a258484612012565b90506000828281518110610a62577f4e487b7100000000000000000000000000000000000000000000000000000000600052603260045260246000fd5b60200260200101516020015190506000600160009054906101000a900473ffffffffffffffffffffffffffffffffffffffff1673ffffffffffffffffffffffffffffffffffffffff1663c7bd6c31876040518263ffffffff1660e01b8152600401610acd91906136f4565b60206040518083038186803b158015610ae557600080fd5b505afa158015610af9573d6000803e3d6000fd5b505050506040513d601f19601f82011682018060405250810190610b1d9190613102565b90506000600a82610b2e91906138bb565b90506000600490504261038485610b45919061380b565b1115610b86576040517f08c379a0000000000000000000000000000000000000000000000000000000008152600401610b7d906135f4565b60405180910390fd5b610b908888612197565b610bcf576040517f08c379a0000000000000000000000000000000000000000000000000000000008152600401610bc690613654565b60405180910390fd5b600160009054906101000a900473ffffffffffffffffffffffffffffffffffffffff1673ffffffffffffffffffffffffffffffffffffffff16634fc3f41a896040518263ffffffff1660e01b8152600401610c2a91906136f4565b600060405180830381600087803b158015610c4457600080fd5b505af1158015610c58573d6000803e3d6000fd5b50505050600160009054906101000a900473ffffffffffffffffffffffffffffffffffffffff1673ffffffffffffffffffffffffffffffffffffffff16632d712c7689846040518363ffffffff1660e01b8152600401610cb9929190613761565b600060405180830381600087803b158015610cd357600080fd5b505af1158015610ce7573d6000803e3d6000fd5b50505050600160009054906101000a900473ffffffffffffffffffffffffffffffffffffffff1673ffffffffffffffffffffffffffffffffffffffff1663a6cb826e89836040518363ffffffff1660e01b8152600401610d48929190613761565b600060405180830381600087803b158015610d6257600080fd5b505af1158015610d76573d6000803e3d6000fd5b50505050600260009054906101000a900473ffffffffffffffffffffffffffffffffffffffff1673ffffffffffffffffffffffffffffffffffffffff16635ce81ef888610dc161231d565b6040518363ffffffff1660e01b8152600401610dde9291906134dd565b600060405180830381600087803b158015610df857600080fd5b505af1158015610e0c573d6000803e3d6000fd5b50505050600160009054906101000a900473ffffffffffffffffffffffffffffffffffffffff1673ffffffffffffffffffffffffffffffffffffffff166382e408138960006040518363ffffffff1660e01b8152600401610e6e92919061370f565b600060405180830381600087803b158015610e8857600080fd5b505af1158015610e9c573d6000803e3d6000fd5b50505050610eaa8888612378565b5050505050505050565b6000600160009054906101000a900473ffffffffffffffffffffffffffffffffffffffff1673ffffffffffffffffffffffffffffffffffffffff16635f273e18846040518263ffffffff1660e01b8152600401610f1191906136f4565b60206040518083038186803b158015610f2957600080fd5b505afa158015610f3d573d6000803e3d6000fd5b505050506040513d601f19601f82011682018060405250810190610f619190613102565b90506000600160009054906101000a900473ffffffffffffffffffffffffffffffffffffffff1673ffffffffffffffffffffffffffffffffffffffff1663c7bd6c31856040518263ffffffff1660e01b8152600401610fc091906136f4565b60206040518083038186803b158015610fd857600080fd5b505afa158015610fec573d6000803e3d6000fd5b505050506040513d601f19601f820116820180604052508101906110109190613102565b90506000600160009054906101000a900473ffffffffffffffffffffffffffffffffffffffff1673ffffffffffffffffffffffffffffffffffffffff16634d85cebf866040518263ffffffff1660e01b815260040161106f91906136f4565b60206040518083038186803b15801561108757600080fd5b505afa15801561109b573d6000803e3d6000fd5b505050506040513d601f19601f820116820180604052508101906110bf9190613102565b90506000600160009054906101000a900473ffffffffffffffffffffffffffffffffffffffff1673ffffffffffffffffffffffffffffffffffffffff166360e2f2fb876040518263ffffffff1660e01b815260040161111e91906136f4565b60206040518083038186803b15801561113657600080fd5b505afa15801561114a573d6000803e3d6000fd5b505050506040513d601f19601f8201168201806040525081019061116e9190613102565b90508473ffffffffffffffffffffffffffffffffffffffff1660008054906101000a900473ffffffffffffffffffffffffffffffffffffffff1673ffffffffffffffffffffffffffffffffffffffff16636352211e886040518263ffffffff1660e01b81526004016111e091906136f4565b60206040518083038186803b1580156111f857600080fd5b505afa15801561120c573d6000803e3d6000fd5b505050506040513d601f19601f820116820180604052508101906112309190612fe1565b73ffffffffffffffffffffffffffffffffffffffff1614611286576040517f08c379a000000000000000000000000000000000000000000000000000000000815260040161127d906135d4565b60405180910390fd5b611292838383876126b3565b61129b57600080fd5b600160009054906101000a900473ffffffffffffffffffffffffffffffffffffffff1673ffffffffffffffffffffffffffffffffffffffff166382e408138760016040518363ffffffff1660e01b81526004016112f9929190613738565b600060405180830381600087803b15801561131357600080fd5b505af1158015611327573d6000803e3d6000fd5b50505050600460008673ffffffffffffffffffffffffffffffffffffffff1673ffffffffffffffffffffffffffffffffffffffff16815260200190815260200160002060405180606001604052808881526020014281526020018773ffffffffffffffffffffffffffffffffffffffff168152509080600181540180825580915050600190039060005260206000209060030201600090919091909150600082015181600001556020820151816001015560408201518160020160006101000a81548173ffffffffffffffffffffffffffffffffffffffff021916908373ffffffffffffffffffffffffffffffffffffffff1602179055505050505050505050565b600063150b7a0260e01b905095945050505050565b600260009054906101000a900473ffffffffffffffffffffffffffffffffffffffff1681565b6003602052816000526040600020818154811061148057600080fd5b9060005260206000209060030201600091509150508060000154908060010154908060020160009054906101000a900473ffffffffffffffffffffffffffffffffffffffff16905083565b60008054906101000a900473ffffffffffffffffffffffffffffffffffffffff1681565b6000600460008373ffffffffffffffffffffffffffffffffffffffff1673ffffffffffffffffffffffffffffffffffffffff168152602001908152602001600020805480602002602001604051908101604052809291908181526020016000905b828210156115ec578382906000526020600020906003020160405180606001604052908160008201548152602001600182015481526020016002820160009054906101000a900473ffffffffffffffffffffffffffffffffffffffff1673ffffffffffffffffffffffffffffffffffffffff1673ffffffffffffffffffffffffffffffffffffffff168152505081526020019060010190611550565b50505050905060006115fe84846127cd565b9050600082828151811061163b577f4e487b7100000000000000000000000000000000000000000000000000000000600052603260045260246000fd5b60200260200101516020015190506000600160009054906101000a900473ffffffffffffffffffffffffffffffffffffffff1673ffffffffffffffffffffffffffffffffffffffff1663c7bd6c31876040518263ffffffff1660e01b81526004016116a691906136f4565b60206040518083038186803b1580156116be57600080fd5b505afa1580156116d2573d6000803e3d6000fd5b505050506040513d601f19601f820116820180604052508101906116f69190613102565b90506000600a8261170791906138bb565b9050600060089050426107088561171e919061380b565b111561175f576040517f08c379a0000000000000000000000000000000000000000000000000000000008152600401611756906135f4565b60405180910390fd5b6117698888612952565b6117a8576040517f08c379a000000000000000000000000000000000000000000000000000000000815260040161179f90613674565b60405180910390fd5b600160009054906101000a900473ffffffffffffffffffffffffffffffffffffffff1673ffffffffffffffffffffffffffffffffffffffff16634fc3f41a896040518263ffffffff1660e01b815260040161180391906136f4565b600060405180830381600087803b15801561181d57600080fd5b505af1158015611831573d6000803e3d6000fd5b50505050600160009054906101000a900473ffffffffffffffffffffffffffffffffffffffff1673ffffffffffffffffffffffffffffffffffffffff16632d712c7689846040518363ffffffff1660e01b8152600401611892929190613761565b600060405180830381600087803b1580156118ac57600080fd5b505af11580156118c0573d6000803e3d6000fd5b50505050600160009054906101000a900473ffffffffffffffffffffffffffffffffffffffff1673ffffffffffffffffffffffffffffffffffffffff1663a6cb826e89836040518363ffffffff1660e01b8152600401611921929190613761565b600060405180830381600087803b15801561193b57600080fd5b505af115801561194f573d6000803e3d6000fd5b50505050600260009054906101000a900473ffffffffffffffffffffffffffffffffffffffff1673ffffffffffffffffffffffffffffffffffffffff16632db113928861199a61231d565b6040518363ffffffff1660e01b81526004016119b79291906134dd565b600060405180830381600087803b1580156119d157600080fd5b505af11580156119e5573d6000803e3d6000fd5b50505050600160009054906101000a900473ffffffffffffffffffffffffffffffffffffffff1673ffffffffffffffffffffffffffffffffffffffff166382e408138960006040518363ffffffff1660e01b8152600401611a4792919061370f565b600060405180830381600087803b158015611a6157600080fd5b505af1158015611a75573d6000803e3d6000fd5b50505050611a8288612ad8565b5050505050505050565b60606000600360008473ffffffffffffffffffffffffffffffffffffffff1673ffffffffffffffffffffffffffffffffffffffff168152602001908152602001600020805480602002602001604051908101604052809291908181526020016000905b82821015611b8b578382906000526020600020906003020160405180606001604052908160008201548152602001600182015481526020016002820160009054906101000a900473ffffffffffffffffffffffffffffffffffffffff1673ffffffffffffffffffffffffffffffffffffffff1673ffffffffffffffffffffffffffffffffffffffff168152505081526020019060010190611aef565b50505050905080915050919050565b60606000600460008473ffffffffffffffffffffffffffffffffffffffff1673ffffffffffffffffffffffffffffffffffffffff168152602001908152602001600020805480602002602001604051908101604052809291908181526020016000905b82821015611c99578382906000526020600020906003020160405180606001604052908160008201548152602001600182015481526020016002820160009054906101000a900473ffffffffffffffffffffffffffffffffffffffff1673ffffffffffffffffffffffffffffffffffffffff1673ffffffffffffffffffffffffffffffffffffffff168152505081526020019060010190611bfd565b50505050905080915050919050565b6000600160009054906101000a900473ffffffffffffffffffffffffffffffffffffffff1673ffffffffffffffffffffffffffffffffffffffff16635f273e18846040518263ffffffff1660e01b8152600401611d0591906136f4565b60206040518083038186803b158015611d1d57600080fd5b505afa158015611d31573d6000803e3d6000fd5b505050506040513d601f19601f82011682018060405250810190611d559190613102565b90506000600160009054906101000a900473ffffffffffffffffffffffffffffffffffffffff1673ffffffffffffffffffffffffffffffffffffffff1663c7bd6c31856040518263ffffffff1660e01b8152600401611db491906136f4565b60206040518083038186803b158015611dcc57600080fd5b505afa158015611de0573d6000803e3d6000fd5b505050506040513d601f19601f82011682018060405250810190611e049190613102565b9050611e11828285612e18565b611e1a57600080fd5b600160009054906101000a900473ffffffffffffffffffffffffffffffffffffffff1673ffffffffffffffffffffffffffffffffffffffff16639c1cb8bf85856040518363ffffffff1660e01b8152600401611e77929190613761565b600060405180830381600087803b158015611e9157600080fd5b505af1158015611ea5573d6000803e3d6000fd5b5050505050505050565b60046020528160005260406000208181548110611ecb57600080fd5b9060005260206000209060030201600091509150508060000154908060010154908060020160009054906101000a900473ffffffffffffffffffffffffffffffffffffffff16905083565b600160009054906101000a900473ffffffffffffffffffffffffffffffffffffffff1681565b6000808214611f80576040517f08c379a0000000000000000000000000000000000000000000000000000000008152600401611f77906136d4565b60405180910390fd5b60008314611fc3576040517f08c379a0000000000000000000000000000000000000000000000000000000008152600401611fba90613614565b60405180910390fd5b6005841015612007576040517f08c379a0000000000000000000000000000000000000000000000000000000008152600401611ffe906136b4565b60405180910390fd5b600190509392505050565b600080600360008473ffffffffffffffffffffffffffffffffffffffff1673ffffffffffffffffffffffffffffffffffffffff168152602001908152602001600020805480602002602001604051908101604052809291908181526020016000905b82821015612110578382906000526020600020906003020160405180606001604052908160008201548152602001600182015481526020016002820160009054906101000a900473ffffffffffffffffffffffffffffffffffffffff1673ffffffffffffffffffffffffffffffffffffffff1673ffffffffffffffffffffffffffffffffffffffff168152505081526020019060010190612074565b50505050905060008151905060005b8181101561218e576000838281518110612162577f4e487b7100000000000000000000000000000000000000000000000000000000600052603260045260246000fd5b60200260200101516000015190508681141561217c578194505b5080612187906139e7565b905061211f565b50505092915050565b600080600360008473ffffffffffffffffffffffffffffffffffffffff1673ffffffffffffffffffffffffffffffffffffffff168152602001908152602001600020805480602002602001604051908101604052809291908181526020016000905b82821015612295578382906000526020600020906003020160405180606001604052908160008201548152602001600182015481526020016002820160009054906101000a900473ffffffffffffffffffffffffffffffffffffffff1673ffffffffffffffffffffffffffffffffffffffff1673ffffffffffffffffffffffffffffffffffffffff1681525050815260200190600101906121f9565b50505050905060008151905060005b818110156123145760008382815181106122e7577f4e487b7100000000000000000000000000000000000000000000000000000000600052603260045260246000fd5b60200260200101516000015190508681141561230257600194505b508061230d906139e7565b90506122a4565b50505092915050565b600060644233600554604051602001612338939291906134a0565b6040516020818303038152906040528051906020012060001c61235b9190613a5e565b905060056000815480929190612370906139e7565b919050555090565b600080600360008473ffffffffffffffffffffffffffffffffffffffff1673ffffffffffffffffffffffffffffffffffffffff16815260200190815260200160002090506000600360008573ffffffffffffffffffffffffffffffffffffffff1673ffffffffffffffffffffffffffffffffffffffff168152602001908152602001600020805480602002602001604051908101604052809291908181526020016000905b828210156124b9578382906000526020600020906003020160405180606001604052908160008201548152602001600182015481526020016002820160009054906101000a900473ffffffffffffffffffffffffffffffffffffffff1673ffffffffffffffffffffffffffffffffffffffff1673ffffffffffffffffffffffffffffffffffffffff16815250508152602001906001019061241d565b50505050905060008151905060005b81811015612531578683828151811061250a577f4e487b7100000000000000000000000000000000000000000000000000000000600052603260045260246000fd5b6020026020010151600001511415612520578094505b8061252a906139e7565b90506124c8565b508160018261254091906138bb565b81518110612577577f4e487b7100000000000000000000000000000000000000000000000000000000600052603260045260246000fd5b60200260200101518385815481106125b8577f4e487b7100000000000000000000000000000000000000000000000000000000600052603260045260246000fd5b9060005260206000209060030201600082015181600001556020820151816001015560408201518160020160006101000a81548173ffffffffffffffffffffffffffffffffffffffff021916908373ffffffffffffffffffffffffffffffffffffffff1602179055509050508280548061265b577f4e487b7100000000000000000000000000000000000000000000000000000000600052603160045260246000fd5b600190038181906000526020600020906003020160008082016000905560018201600090556002820160006101000a81549073ffffffffffffffffffffffffffffffffffffffff021916905550509055505050505050565b60008083146126f7576040517f08c379a00000000000000000000000000000000000000000000000000000000081526004016126ee906136d4565b60405180910390fd5b6002821161273a576040517f08c379a000000000000000000000000000000000000000000000000000000000815260040161273190613634565b60405180910390fd5b6000841461277d576040517f08c379a000000000000000000000000000000000000000000000000000000000815260040161277490613614565b60405180910390fd5b600a8510156127c1576040517f08c379a00000000000000000000000000000000000000000000000000000000081526004016127b8906136b4565b60405180910390fd5b60019050949350505050565b600080600460008473ffffffffffffffffffffffffffffffffffffffff1673ffffffffffffffffffffffffffffffffffffffff168152602001908152602001600020805480602002602001604051908101604052809291908181526020016000905b828210156128cb578382906000526020600020906003020160405180606001604052908160008201548152602001600182015481526020016002820160009054906101000a900473ffffffffffffffffffffffffffffffffffffffff1673ffffffffffffffffffffffffffffffffffffffff1673ffffffffffffffffffffffffffffffffffffffff16815250508152602001906001019061282f565b50505050905060008151905060005b8181101561294957600083828151811061291d577f4e487b7100000000000000000000000000000000000000000000000000000000600052603260045260246000fd5b602002602001015160000151905086811415612937578194505b5080612942906139e7565b90506128da565b50505092915050565b600080600460008473ffffffffffffffffffffffffffffffffffffffff1673ffffffffffffffffffffffffffffffffffffffff168152602001908152602001600020805480602002602001604051908101604052809291908181526020016000905b82821015612a50578382906000526020600020906003020160405180606001604052908160008201548152602001600182015481526020016002820160009054906101000a900473ffffffffffffffffffffffffffffffffffffffff1673ffffffffffffffffffffffffffffffffffffffff1673ffffffffffffffffffffffffffffffffffffffff1681525050815260200190600101906129b4565b50505050905060008151905060005b81811015612acf576000838281518110612aa2577f4e487b7100000000000000000000000000000000000000000000000000000000600052603260045260246000fd5b602002602001015160000151905086811415612abd57600194505b5080612ac8906139e7565b9050612a5f565b50505092915050565b600080600460003373ffffffffffffffffffffffffffffffffffffffff1673ffffffffffffffffffffffffffffffffffffffff16815260200190815260200160002090506000600460003373ffffffffffffffffffffffffffffffffffffffff1673ffffffffffffffffffffffffffffffffffffffff168152602001908152602001600020805480602002602001604051908101604052809291908181526020016000905b82821015612c19578382906000526020600020906003020160405180606001604052908160008201548152602001600182015481526020016002820160009054906101000a900473ffffffffffffffffffffffffffffffffffffffff1673ffffffffffffffffffffffffffffffffffffffff1673ffffffffffffffffffffffffffffffffffffffff168152505081526020019060010190612b7d565b50505050905060008151905060005b81811015612c97576000838281518110612c6b577f4e487b7100000000000000000000000000000000000000000000000000000000600052603260045260246000fd5b602002602001015160000151905086811415612c85578195505b5080612c90906139e7565b9050612c28565b5081600182612ca691906138bb565b81518110612cdd577f4e487b7100000000000000000000000000000000000000000000000000000000600052603260045260246000fd5b6020026020010151838581548110612d1e577f4e487b7100000000000000000000000000000000000000000000000000000000600052603260045260246000fd5b9060005260206000209060030201600082015181600001556020820151816001015560408201518160020160006101000a81548173ffffffffffffffffffffffffffffffffffffffff021916908373ffffffffffffffffffffffffffffffffffffffff16021790555090505082805480612dc1577f4e487b7100000000000000000000000000000000000000000000000000000000600052603160045260246000fd5b600190038181906000526020600020906003020160008082016000905560018201600090556002820160006101000a81549073ffffffffffffffffffffffffffffffffffffffff0219169055505090555050505050565b600080655af3107a40009050828582612e319190613861565b612e3b9190613861565b3414612e7c576040517f08c379a0000000000000000000000000000000000000000000000000000000008152600401612e7390613594565b60405180910390fd5b60648410612ebf576040517f08c379a0000000000000000000000000000000000000000000000000000000008152600401612eb6906135b4565b60405180910390fd5b60648484612ecd919061380b565b1115612f0e576040517f08c379a0000000000000000000000000000000000000000000000000000000008152600401612f0590613694565b60405180910390fd5b60019150509392505050565b600081359050612f2981613d55565b92915050565b600081519050612f3e81613d55565b92915050565b60008083601f840112612f5657600080fd5b8235905067ffffffffffffffff811115612f6f57600080fd5b602083019150836001820283011115612f8757600080fd5b9250929050565b600081359050612f9d81613d6c565b92915050565b600081519050612fb281613d6c565b92915050565b600060208284031215612fca57600080fd5b6000612fd884828501612f1a565b91505092915050565b600060208284031215612ff357600080fd5b600061300184828501612f2f565b91505092915050565b6000806040838503121561301d57600080fd5b600061302b85828601612f1a565b925050602061303c85828601612f1a565b9150509250929050565b60008060008060006080868803121561305e57600080fd5b600061306c88828901612f1a565b955050602061307d88828901612f1a565b945050604061308e88828901612f8e565b935050606086013567ffffffffffffffff8111156130ab57600080fd5b6130b788828901612f44565b92509250509295509295909350565b600080604083850312156130d957600080fd5b60006130e785828601612f1a565b92505060206130f885828601612f8e565b9150509250929050565b60006020828403121561311457600080fd5b600061312284828501612fa3565b91505092915050565b6000806040838503121561313e57600080fd5b600061314c85828601612f8e565b925050602061315d85828601612f1a565b9150509250929050565b6000806040838503121561317a57600080fd5b600061318885828601612f8e565b925050602061319985828601612f8e565b9150509250929050565b60006131af8383613429565b60608301905092915050565b6131c4816138ef565b82525050565b6131d3816138ef565b82525050565b6131ea6131e5826138ef565b613a30565b82525050565b60006131fb826137d1565b61320581856137e9565b9350613210836137c1565b8060005b8381101561324157815161322888826131a3565b9750613233836137dc565b925050600181019050613214565b5085935050505092915050565b61325781613901565b82525050565b61326681613957565b82525050565b6132758161397b565b82525050565b6132848161399f565b82525050565b613293816139c3565b82525050565b6132a2816139d5565b82525050565b60006132b56010836137fa565b91506132c082613afa565b602082019050919050565b60006132d8601b836137fa565b91506132e382613b23565b602082019050919050565b60006132fb6015836137fa565b915061330682613b4c565b602082019050919050565b600061331e6015836137fa565b915061332982613b75565b602082019050919050565b6000613341601f836137fa565b915061334c82613b9e565b602082019050919050565b60006133646030836137fa565b915061336f82613bc7565b604082019050919050565b60006133876027836137fa565b915061339282613c16565b604082019050919050565b60006133aa602b836137fa565b91506133b582613c65565b604082019050919050565b60006133cd601e836137fa565b91506133d882613cb4565b602082019050919050565b60006133f06011836137fa565b91506133fb82613cdd565b602082019050919050565b60006134136027836137fa565b915061341e82613d06565b604082019050919050565b60608201600082015161343f600085018261346b565b506020820151613452602085018261346b565b50604082015161346560408501826131bb565b50505050565b6134748161394d565b82525050565b6134838161394d565b82525050565b61349a6134958261394d565b613a54565b82525050565b60006134ac8286613489565b6020820191506134bc82856131d9565b6014820191506134cc8284613489565b602082019150819050949350505050565b60006040820190506134f260008301856131ca565b6134ff602083018461347a565b9392505050565b6000602082019050818103600083015261352081846131f0565b905092915050565b600060208201905061353d600083018461324e565b92915050565b6000602082019050613558600083018461325d565b92915050565b6000602082019050613573600083018461326c565b92915050565b600060208201905061358e600083018461327b565b92915050565b600060208201905081810360008301526135ad816132a8565b9050919050565b600060208201905081810360008301526135cd816132cb565b9050919050565b600060208201905081810360008301526135ed816132ee565b9050919050565b6000602082019050818103600083015261360d81613311565b9050919050565b6000602082019050818103600083015261362d81613334565b9050919050565b6000602082019050818103600083015261364d81613357565b9050919050565b6000602082019050818103600083015261366d8161337a565b9050919050565b6000602082019050818103600083015261368d8161339d565b9050919050565b600060208201905081810360008301526136ad816133c0565b9050919050565b600060208201905081810360008301526136cd816133e3565b9050919050565b600060208201905081810360008301526136ed81613406565b9050919050565b6000602082019050613709600083018461347a565b92915050565b6000604082019050613724600083018561347a565b613731602083018461328a565b9392505050565b600060408201905061374d600083018561347a565b61375a6020830184613299565b9392505050565b6000604082019050613776600083018561347a565b613783602083018461347a565b9392505050565b600060608201905061379f600083018661347a565b6137ac602083018561347a565b6137b960408301846131ca565b949350505050565b6000819050602082019050919050565b600081519050919050565b6000602082019050919050565b600082825260208201905092915050565b600082825260208201905092915050565b60006138168261394d565b91506138218361394d565b9250827fffffffffffffffffffffffffffffffffffffffffffffffffffffffffffffffff0382111561385657613855613a8f565b5b828201905092915050565b600061386c8261394d565b91506138778361394d565b9250817fffffffffffffffffffffffffffffffffffffffffffffffffffffffffffffffff04831182151516156138b0576138af613a8f565b5b828202905092915050565b60006138c68261394d565b91506138d18361394d565b9250828210156138e4576138e3613a8f565b5b828203905092915050565b60006138fa8261392d565b9050919050565b60007fffffffff0000000000000000000000000000000000000000000000000000000082169050919050565b600073ffffffffffffffffffffffffffffffffffffffff82169050919050565b6000819050919050565b600061396282613969565b9050919050565b60006139748261392d565b9050919050565b60006139868261398d565b9050919050565b60006139988261392d565b9050919050565b60006139aa826139b1565b9050919050565b60006139bc8261392d565b9050919050565b60006139ce8261394d565b9050919050565b60006139e08261394d565b9050919050565b60006139f28261394d565b91507fffffffffffffffffffffffffffffffffffffffffffffffffffffffffffffffff821415613a2557613a24613a8f565b5b600182019050919050565b6000613a3b82613a42565b9050919050565b6000613a4d82613aed565b9050919050565b6000819050919050565b6000613a698261394d565b9150613a748361394d565b925082613a8457613a83613abe565b5b828206905092915050565b7f4e487b7100000000000000000000000000000000000000000000000000000000600052601160045260246000fd5b7f4e487b7100000000000000000000000000000000000000000000000000000000600052601260045260246000fd5b60008160601b9050919050565b7f4e6f7420656e6f75676820657468657200000000000000000000000000000000600082015250565b7f596f7572206d6f6e737465722068756e6765722069732066756c6c0000000000600082015250565b7f49742773206e6f7420796f7572206d6f6e737465720000000000000000000000600082015250565b7f4475726174696f6e206e6f74206f766572207965740000000000000000000000600082015250565b7f20596f7572206d6f6e73746572207374696c6c206f6e20636f6f6c646f776e00600082015250565b7f596f7572206d6f6e7374657220646f6573276e74206d657420746865206d696e60008201527f696d756d20726571756972656d656e7400000000000000000000000000000000602082015250565b7f596f7572206d6f6e73746572206973206e6f74206f6e20626567696e6e65722060008201527f6d697373696f6e00000000000000000000000000000000000000000000000000602082015250565b7f596f7572206d6f6e73746572206973206e6f74206f6e20696e7465726d65646960008201527f617465206d697373696f6e000000000000000000000000000000000000000000602082015250565b7f546f6f206d75636820666f6f6420666f7220796f7572206d6f6e737465720000600082015250565b7f4e6f7420656e6f7567682068756e676572000000000000000000000000000000600082015250565b7f596f7572206d6f6e73746572207374696c6c20776f726b696e67206f6e20736f60008201527f6d657468696e6700000000000000000000000000000000000000000000000000602082015250565b613d5e816138ef565b8114613d6957600080fd5b50565b613d758161394d565b8114613d8057600080fd5b5056fea2646970667358221220d853a646277b72d8c98a1c583acf9f19e0df8676e7f121fcec0eb7d2ffe64a3f64736f6c63430008040033",
  "linkReferences": {},
  "deployedLinkReferences": {}
}