{
  "_format": "hh-sol-artifact-1",
  "contractName": "MonsterGame",
  "sourceName": "contracts/MyMonsterGame.sol",
  "abi": [
    {
      "inputs": [
        {
          "internalType": "uint256",
          "name": "_tokenId",
          "type": "uint256"
        },
        {
          "internalType": "address",
          "name": "_user",
          "type": "address"
        }
      ],
      "name": "beginnerMission",
      "outputs": [],
      "stateMutability": "nonpayable",
      "type": "function"
    },
    {
      "inputs": [
        {
          "internalType": "uint256[]",
          "name": "_item",
          "type": "uint256[]"
        },
        {
          "internalType": "uint256[]",
          "name": "_quantity",
          "type": "uint256[]"
        },
        {
          "internalType": "address",
          "name": "_user",
          "type": "address"
        }
      ],
      "name": "checkItemOnInventory",
      "outputs": [],
      "stateMutability": "nonpayable",
      "type": "function"
    },
    {
      "inputs": [
        {
          "internalType": "uint256",
          "name": "_item",
          "type": "uint256"
        },
        {
          "internalType": "uint256",
          "name": "_quantity",
          "type": "uint256"
        },
        {
          "internalType": "address",
          "name": "_user",
          "type": "address"
        }
      ],
      "name": "checkSingleItemOnInventory",
      "outputs": [],
      "stateMutability": "nonpayable",
      "type": "function"
    },
    {
      "inputs": [
        {
          "internalType": "uint256",
          "name": "_tokenId",
          "type": "uint256"
        },
        {
          "internalType": "address",
          "name": "_user",
          "type": "address"
        }
      ],
      "name": "claimBeginnerMission",
      "outputs": [],
      "stateMutability": "nonpayable",
      "type": "function"
    },
    {
      "inputs": [
        {
          "internalType": "uint256",
          "name": "_tokenId",
          "type": "uint256"
        },
        {
          "internalType": "address",
          "name": "_user",
          "type": "address"
        }
      ],
      "name": "claimIntermediateMission",
      "outputs": [],
      "stateMutability": "nonpayable",
      "type": "function"
    },
    {
      "inputs": [
        {
          "internalType": "uint256",
          "name": "_tokenId",
          "type": "uint256"
        },
        {
          "internalType": "uint256",
          "name": "_amount",
          "type": "uint256"
        }
      ],
      "name": "feedMonster",
      "outputs": [],
      "stateMutability": "payable",
      "type": "function"
    },
    {
      "inputs": [
        {
          "internalType": "uint256",
          "name": "_tokenId",
          "type": "uint256"
        },
        {
          "internalType": "address",
          "name": "_user",
          "type": "address"
        }
      ],
      "name": "intermediateMission",
      "outputs": [],
      "stateMutability": "nonpayable",
      "type": "function"
    },
    {
      "inputs": [],
      "name": "itemsInterface",
      "outputs": [
        {
          "internalType": "contract IItems",
          "name": "",
          "type": "address"
        }
      ],
      "stateMutability": "view",
      "type": "function"
    },
    {
      "inputs": [],
      "name": "monsterInterface",
      "outputs": [
        {
          "internalType": "contract IERC721",
          "name": "",
          "type": "address"
        }
      ],
      "stateMutability": "view",
      "type": "function"
    },
    {
      "inputs": [
        {
          "internalType": "address",
          "name": "",
          "type": "address"
        },
        {
          "internalType": "uint256",
          "name": "",
          "type": "uint256"
        }
      ],
      "name": "myMonsterOnBeg",
      "outputs": [
        {
          "internalType": "uint256",
          "name": "tokenId",
          "type": "uint256"
        },
        {
          "internalType": "uint256",
          "name": "missionStart",
          "type": "uint256"
        },
        {
          "internalType": "address",
          "name": "owner",
          "type": "address"
        }
      ],
      "stateMutability": "view",
      "type": "function"
    },
    {
      "inputs": [
        {
          "internalType": "address",
          "name": "",
          "type": "address"
        },
        {
          "internalType": "uint256",
          "name": "",
          "type": "uint256"
        }
      ],
      "name": "myMonsterOnInt",
      "outputs": [
        {
          "internalType": "uint256",
          "name": "tokenId",
          "type": "uint256"
        },
        {
          "internalType": "uint256",
          "name": "missionStart",
          "type": "uint256"
        },
        {
          "internalType": "address",
          "name": "owner",
          "type": "address"
        }
      ],
      "stateMutability": "view",
      "type": "function"
    },
    {
      "inputs": [
        {
          "internalType": "address",
          "name": "",
          "type": "address"
        },
        {
          "internalType": "address",
          "name": "from",
          "type": "address"
        },
        {
          "internalType": "uint256",
          "name": "",
          "type": "uint256"
        },
        {
          "internalType": "bytes",
          "name": "",
          "type": "bytes"
        }
      ],
      "name": "onERC721Received",
      "outputs": [
        {
          "internalType": "bytes4",
          "name": "",
          "type": "bytes4"
        }
      ],
      "stateMutability": "pure",
      "type": "function"
    },
    {
      "inputs": [
        {
          "internalType": "address",
          "name": "",
          "type": "address"
        },
        {
          "internalType": "uint256",
          "name": "",
          "type": "uint256"
        }
      ],
      "name": "playerInventory",
      "outputs": [
        {
          "internalType": "uint256",
          "name": "itemId",
          "type": "uint256"
        },
        {
          "internalType": "uint256",
          "name": "quantity",
          "type": "uint256"
        }
      ],
      "stateMutability": "view",
      "type": "function"
    },
    {
      "inputs": [
        {
          "internalType": "address",
          "name": "monsterNFT",
          "type": "address"
        },
        {
          "internalType": "address",
          "name": "itemNFT",
          "type": "address"
        }
      ],
      "name": "setInterface",
      "outputs": [],
      "stateMutability": "nonpayable",
      "type": "function"
    },
    {
      "inputs": [],
      "name": "statsInterface",
      "outputs": [
        {
          "internalType": "contract IMonster",
          "name": "",
          "type": "address"
        }
      ],
      "stateMutability": "view",
      "type": "function"
    },
    {
      "stateMutability": "payable",
      "type": "receive"
    }
  ],
  "bytecode": "0x608060405234801561001057600080fd5b50614359806100206000396000f3fe6080604052600436106100ec5760003560e01c806339262c8d1161008a5780637ee47444116100595780637ee47444146102fe5780639c1cb8bf14610327578063a4bd369114610343578063ad81ad7014610382576100f3565b806339262c8d1461022d5780633ffc1f3c1461026c5780635199ac9a146102975780637ba03bb4146102c0576100f3565b80630e32f220116100c65780630e32f22014610173578063150b7a021461019c5780631989b8fb146101d9578063302f3dfc14610202576100f3565b806302d8f2b5146100f85780630879c57b146101215780630ce432461461014a576100f3565b366100f357005b600080fd5b34801561010457600080fd5b5061011f600480360381019061011a919061354b565b6103ad565b005b34801561012d57600080fd5b50610148600480360381019061014391906136eb565b610473565b005b34801561015657600080fd5b50610171600480360381019061016c91906136eb565b610937565b005b34801561017f57600080fd5b5061019a600480360381019061019591906136eb565b610ed5565b005b3480156101a857600080fd5b506101c360048036038101906101be9190613587565b61144a565b6040516101d09190613a3f565b60405180910390f35b3480156101e557600080fd5b5061020060048036038101906101fb9190613763565b61145f565b005b34801561020e57600080fd5b50610217611679565b6040516102249190613a75565b60405180910390f35b34801561023957600080fd5b50610254600480360381019061024f9190613607565b61169f565b60405161026393929190613ca1565b60405180910390f35b34801561027857600080fd5b50610281611706565b60405161028e9190613a5a565b60405180910390f35b3480156102a357600080fd5b506102be60048036038101906102b991906136eb565b61172a565b005b3480156102cc57600080fd5b506102e760048036038101906102e29190613607565b611cc7565b6040516102f5929190613c78565b60405180910390f35b34801561030a57600080fd5b5061032560048036038101906103209190613643565b611d08565b005b610341600480360381019061033c9190613727565b611fa2565b005b34801561034f57600080fd5b5061036a60048036038101906103659190613607565b6121a9565b60405161037993929190613ca1565b60405180910390f35b34801561038e57600080fd5b50610397612210565b6040516103a49190613a90565b60405180910390f35b816000806101000a81548173ffffffffffffffffffffffffffffffffffffffff021916908373ffffffffffffffffffffffffffffffffffffffff16021790555081600160006101000a81548173ffffffffffffffffffffffffffffffffffffffff021916908373ffffffffffffffffffffffffffffffffffffffff16021790555080600260006101000a81548173ffffffffffffffffffffffffffffffffffffffff021916908373ffffffffffffffffffffffffffffffffffffffff1602179055505050565b6000600160009054906101000a900473ffffffffffffffffffffffffffffffffffffffff1673ffffffffffffffffffffffffffffffffffffffff1663c7bd6c31846040518263ffffffff1660e01b81526004016104d09190613c0b565b60206040518083038186803b1580156104e857600080fd5b505afa1580156104fc573d6000803e3d6000fd5b505050506040513d601f19601f8201168201806040525081019061052091906136c2565b90506000600160009054906101000a900473ffffffffffffffffffffffffffffffffffffffff1673ffffffffffffffffffffffffffffffffffffffff16634d85cebf856040518263ffffffff1660e01b815260040161057f9190613c0b565b60206040518083038186803b15801561059757600080fd5b505afa1580156105ab573d6000803e3d6000fd5b505050506040513d601f19601f820116820180604052508101906105cf91906136c2565b90506000600160009054906101000a900473ffffffffffffffffffffffffffffffffffffffff1673ffffffffffffffffffffffffffffffffffffffff166360e2f2fb866040518263ffffffff1660e01b815260040161062e9190613c0b565b60206040518083038186803b15801561064657600080fd5b505afa15801561065a573d6000803e3d6000fd5b505050506040513d601f19601f8201168201806040525081019061067e91906136c2565b90508373ffffffffffffffffffffffffffffffffffffffff1660008054906101000a900473ffffffffffffffffffffffffffffffffffffffff1673ffffffffffffffffffffffffffffffffffffffff16636352211e876040518263ffffffff1660e01b81526004016106f09190613c0b565b60206040518083038186803b15801561070857600080fd5b505afa15801561071c573d6000803e3d6000fd5b505050506040513d601f19601f820116820180604052508101906107409190613522565b73ffffffffffffffffffffffffffffffffffffffff1614610796576040517f08c379a000000000000000000000000000000000000000000000000000000000815260040161078d90613aeb565b60405180910390fd5b6107a1838383612236565b6107aa57600080fd5b600160009054906101000a900473ffffffffffffffffffffffffffffffffffffffff1673ffffffffffffffffffffffffffffffffffffffff166382e408138660016040518363ffffffff1660e01b8152600401610808929190613c4f565b600060405180830381600087803b15801561082257600080fd5b505af1158015610836573d6000803e3d6000fd5b50505050600460008573ffffffffffffffffffffffffffffffffffffffff1673ffffffffffffffffffffffffffffffffffffffff16815260200190815260200160002060405180606001604052808781526020014281526020018673ffffffffffffffffffffffffffffffffffffffff168152509080600181540180825580915050600190039060005260206000209060030201600090919091909150600082015181600001556020820151816001015560408201518160020160006101000a81548173ffffffffffffffffffffffffffffffffffffffff021916908373ffffffffffffffffffffffffffffffffffffffff16021790555050505050505050565b6000600460008373ffffffffffffffffffffffffffffffffffffffff1673ffffffffffffffffffffffffffffffffffffffff168152602001908152602001600020805480602002602001604051908101604052809291908181526020016000905b82821015610a34578382906000526020600020906003020160405180606001604052908160008201548152602001600182015481526020016002820160009054906101000a900473ffffffffffffffffffffffffffffffffffffffff1673ffffffffffffffffffffffffffffffffffffffff1673ffffffffffffffffffffffffffffffffffffffff168152505081526020019060010190610998565b5050505090506000610a46848461230c565b90506000828281518110610a83577f4e487b7100000000000000000000000000000000000000000000000000000000600052603260045260246000fd5b60200260200101516020015190506000600160009054906101000a900473ffffffffffffffffffffffffffffffffffffffff1673ffffffffffffffffffffffffffffffffffffffff1663c7bd6c31876040518263ffffffff1660e01b8152600401610aee9190613c0b565b60206040518083038186803b158015610b0657600080fd5b505afa158015610b1a573d6000803e3d6000fd5b505050506040513d601f19601f82011682018060405250810190610b3e91906136c2565b90506000600a82610b4f9190613dea565b90506000600490504261038485610b669190613d3a565b1115610ba7576040517f08c379a0000000000000000000000000000000000000000000000000000000008152600401610b9e90613b0b565b60405180910390fd5b610bb18888612491565b610bf0576040517f08c379a0000000000000000000000000000000000000000000000000000000008152600401610be790613b6b565b60405180910390fd5b600160009054906101000a900473ffffffffffffffffffffffffffffffffffffffff1673ffffffffffffffffffffffffffffffffffffffff16634fc3f41a896040518263ffffffff1660e01b8152600401610c4b9190613c0b565b600060405180830381600087803b158015610c6557600080fd5b505af1158015610c79573d6000803e3d6000fd5b50505050600160009054906101000a900473ffffffffffffffffffffffffffffffffffffffff1673ffffffffffffffffffffffffffffffffffffffff16632d712c7689846040518363ffffffff1660e01b8152600401610cda929190613c78565b600060405180830381600087803b158015610cf457600080fd5b505af1158015610d08573d6000803e3d6000fd5b50505050600160009054906101000a900473ffffffffffffffffffffffffffffffffffffffff1673ffffffffffffffffffffffffffffffffffffffff1663a6cb826e89836040518363ffffffff1660e01b8152600401610d69929190613c78565b600060405180830381600087803b158015610d8357600080fd5b505af1158015610d97573d6000803e3d6000fd5b50505050600260009054906101000a900473ffffffffffffffffffffffffffffffffffffffff1673ffffffffffffffffffffffffffffffffffffffff16635ce81ef888610de2612617565b6040518363ffffffff1660e01b8152600401610dff929190613a16565b600060405180830381600087803b158015610e1957600080fd5b505af1158015610e2d573d6000803e3d6000fd5b50505050600160009054906101000a900473ffffffffffffffffffffffffffffffffffffffff1673ffffffffffffffffffffffffffffffffffffffff166382e408138960006040518363ffffffff1660e01b8152600401610e8f929190613c26565b600060405180830381600087803b158015610ea957600080fd5b505af1158015610ebd573d6000803e3d6000fd5b50505050610ecb8888612672565b5050505050505050565b6000600160009054906101000a900473ffffffffffffffffffffffffffffffffffffffff1673ffffffffffffffffffffffffffffffffffffffff16635f273e18846040518263ffffffff1660e01b8152600401610f329190613c0b565b60206040518083038186803b158015610f4a57600080fd5b505afa158015610f5e573d6000803e3d6000fd5b505050506040513d601f19601f82011682018060405250810190610f8291906136c2565b90506000600160009054906101000a900473ffffffffffffffffffffffffffffffffffffffff1673ffffffffffffffffffffffffffffffffffffffff1663c7bd6c31856040518263ffffffff1660e01b8152600401610fe19190613c0b565b60206040518083038186803b158015610ff957600080fd5b505afa15801561100d573d6000803e3d6000fd5b505050506040513d601f19601f8201168201806040525081019061103191906136c2565b90506000600160009054906101000a900473ffffffffffffffffffffffffffffffffffffffff1673ffffffffffffffffffffffffffffffffffffffff16634d85cebf866040518263ffffffff1660e01b81526004016110909190613c0b565b60206040518083038186803b1580156110a857600080fd5b505afa1580156110bc573d6000803e3d6000fd5b505050506040513d601f19601f820116820180604052508101906110e091906136c2565b90506000600160009054906101000a900473ffffffffffffffffffffffffffffffffffffffff1673ffffffffffffffffffffffffffffffffffffffff166360e2f2fb876040518263ffffffff1660e01b815260040161113f9190613c0b565b60206040518083038186803b15801561115757600080fd5b505afa15801561116b573d6000803e3d6000fd5b505050506040513d601f19601f8201168201806040525081019061118f91906136c2565b90508473ffffffffffffffffffffffffffffffffffffffff1660008054906101000a900473ffffffffffffffffffffffffffffffffffffffff1673ffffffffffffffffffffffffffffffffffffffff16636352211e886040518263ffffffff1660e01b81526004016112019190613c0b565b60206040518083038186803b15801561121957600080fd5b505afa15801561122d573d6000803e3d6000fd5b505050506040513d601f19601f820116820180604052508101906112519190613522565b73ffffffffffffffffffffffffffffffffffffffff16146112a7576040517f08c379a000000000000000000000000000000000000000000000000000000000815260040161129e90613aeb565b60405180910390fd5b6112b3838383876129ad565b6112bc57600080fd5b600160009054906101000a900473ffffffffffffffffffffffffffffffffffffffff1673ffffffffffffffffffffffffffffffffffffffff166382e408138760016040518363ffffffff1660e01b815260040161131a929190613c4f565b600060405180830381600087803b15801561133457600080fd5b505af1158015611348573d6000803e3d6000fd5b50505050600560008673ffffffffffffffffffffffffffffffffffffffff1673ffffffffffffffffffffffffffffffffffffffff16815260200190815260200160002060405180606001604052808881526020014281526020018773ffffffffffffffffffffffffffffffffffffffff168152509080600181540180825580915050600190039060005260206000209060030201600090919091909150600082015181600001556020820151816001015560408201518160020160006101000a81548173ffffffffffffffffffffffffffffffffffffffff021916908373ffffffffffffffffffffffffffffffffffffffff1602179055505050505050505050565b600063150b7a0260e01b905095945050505050565b6000600360008373ffffffffffffffffffffffffffffffffffffffff1673ffffffffffffffffffffffffffffffffffffffff168152602001908152602001600020905060008180549050905060005b81811015611666576000600360008673ffffffffffffffffffffffffffffffffffffffff1673ffffffffffffffffffffffffffffffffffffffff168152602001908152602001600020805480602002602001604051908101604052809291908181526020016000905b8282101561155d57838290600052602060002090600202016040518060400160405290816000820154815260200160018201548152505081526020019060010190611517565b5050505090508681838151811061159d577f4e487b7100000000000000000000000000000000000000000000000000000000600052603260045260246000fd5b60200260200101516000015114156116545760008183815181106115ea577f4e487b7100000000000000000000000000000000000000000000000000000000600052603260045260246000fd5b602002602001015160200151905086816116049190613d3a565b85848154811061163d577f4e487b7100000000000000000000000000000000000000000000000000000000600052603260045260246000fd5b906000526020600020906002020160010181905550505b508061165f90613f47565b90506114ae565b50611672858585612ac7565b5050505050565b600260009054906101000a900473ffffffffffffffffffffffffffffffffffffffff1681565b600460205281600052604060002081815481106116bb57600080fd5b9060005260206000209060030201600091509150508060000154908060010154908060020160009054906101000a900473ffffffffffffffffffffffffffffffffffffffff16905083565b60008054906101000a900473ffffffffffffffffffffffffffffffffffffffff1681565b6000600560008373ffffffffffffffffffffffffffffffffffffffff1673ffffffffffffffffffffffffffffffffffffffff168152602001908152602001600020805480602002602001604051908101604052809291908181526020016000905b82821015611827578382906000526020600020906003020160405180606001604052908160008201548152602001600182015481526020016002820160009054906101000a900473ffffffffffffffffffffffffffffffffffffffff1673ffffffffffffffffffffffffffffffffffffffff1673ffffffffffffffffffffffffffffffffffffffff16815250508152602001906001019061178b565b50505050905060006118398484612b65565b90506000828281518110611876577f4e487b7100000000000000000000000000000000000000000000000000000000600052603260045260246000fd5b60200260200101516020015190506000600160009054906101000a900473ffffffffffffffffffffffffffffffffffffffff1673ffffffffffffffffffffffffffffffffffffffff1663c7bd6c31876040518263ffffffff1660e01b81526004016118e19190613c0b565b60206040518083038186803b1580156118f957600080fd5b505afa15801561190d573d6000803e3d6000fd5b505050506040513d601f19601f8201168201806040525081019061193191906136c2565b90506000600a826119429190613dea565b905060006008905042610708856119599190613d3a565b111561199a576040517f08c379a000000000000000000000000000000000000000000000000000000000815260040161199190613b0b565b60405180910390fd5b6119a48888612cea565b6119e3576040517f08c379a00000000000000000000000000000000000000000000000000000000081526004016119da90613b8b565b60405180910390fd5b600160009054906101000a900473ffffffffffffffffffffffffffffffffffffffff1673ffffffffffffffffffffffffffffffffffffffff16634fc3f41a896040518263ffffffff1660e01b8152600401611a3e9190613c0b565b600060405180830381600087803b158015611a5857600080fd5b505af1158015611a6c573d6000803e3d6000fd5b50505050600160009054906101000a900473ffffffffffffffffffffffffffffffffffffffff1673ffffffffffffffffffffffffffffffffffffffff16632d712c7689846040518363ffffffff1660e01b8152600401611acd929190613c78565b600060405180830381600087803b158015611ae757600080fd5b505af1158015611afb573d6000803e3d6000fd5b50505050600160009054906101000a900473ffffffffffffffffffffffffffffffffffffffff1673ffffffffffffffffffffffffffffffffffffffff1663a6cb826e89836040518363ffffffff1660e01b8152600401611b5c929190613c78565b600060405180830381600087803b158015611b7657600080fd5b505af1158015611b8a573d6000803e3d6000fd5b50505050600260009054906101000a900473ffffffffffffffffffffffffffffffffffffffff1673ffffffffffffffffffffffffffffffffffffffff16632db1139288611bd5612617565b6040518363ffffffff1660e01b8152600401611bf2929190613a16565b600060405180830381600087803b158015611c0c57600080fd5b505af1158015611c20573d6000803e3d6000fd5b50505050600160009054906101000a900473ffffffffffffffffffffffffffffffffffffffff1673ffffffffffffffffffffffffffffffffffffffff166382e408138960006040518363ffffffff1660e01b8152600401611c82929190613c26565b600060405180830381600087803b158015611c9c57600080fd5b505af1158015611cb0573d6000803e3d6000fd5b50505050611cbd88612e70565b5050505050505050565b60036020528160005260406000208181548110611ce357600080fd5b9060005260206000209060020201600091509150508060000154908060010154905082565b6000600360008373ffffffffffffffffffffffffffffffffffffffff1673ffffffffffffffffffffffffffffffffffffffff168152602001908152602001600020905060008180549050905060005b81811015611f8f576000600360008673ffffffffffffffffffffffffffffffffffffffff1673ffffffffffffffffffffffffffffffffffffffff168152602001908152602001600020805480602002602001604051908101604052809291908181526020016000905b82821015611e0657838290600052602060002090600202016040518060400160405290816000820154815260200160018201548152505081526020019060010190611dc0565b505050509050868281518110611e45577f4e487b7100000000000000000000000000000000000000000000000000000000600052603260045260246000fd5b6020026020010151818381518110611e86577f4e487b7100000000000000000000000000000000000000000000000000000000600052603260045260246000fd5b6020026020010151600001511415611f7d576000818381518110611ed3577f4e487b7100000000000000000000000000000000000000000000000000000000600052603260045260246000fd5b6020026020010151602001519050868381518110611f1a577f4e487b7100000000000000000000000000000000000000000000000000000000600052603260045260246000fd5b602002602001015181611f2d9190613d3a565b858481548110611f66577f4e487b7100000000000000000000000000000000000000000000000000000000600052603260045260246000fd5b906000526020600020906002020160010181905550505b5080611f8890613f47565b9050611d57565b50611f9b8585856131b0565b5050505050565b6000600160009054906101000a900473ffffffffffffffffffffffffffffffffffffffff1673ffffffffffffffffffffffffffffffffffffffff16635f273e18846040518263ffffffff1660e01b8152600401611fff9190613c0b565b60206040518083038186803b15801561201757600080fd5b505afa15801561202b573d6000803e3d6000fd5b505050506040513d601f19601f8201168201806040525081019061204f91906136c2565b90506000600160009054906101000a900473ffffffffffffffffffffffffffffffffffffffff1673ffffffffffffffffffffffffffffffffffffffff1663c7bd6c31856040518263ffffffff1660e01b81526004016120ae9190613c0b565b60206040518083038186803b1580156120c657600080fd5b505afa1580156120da573d6000803e3d6000fd5b505050506040513d601f19601f820116820180604052508101906120fe91906136c2565b905061210b8282856132ec565b61211457600080fd5b600160009054906101000a900473ffffffffffffffffffffffffffffffffffffffff1673ffffffffffffffffffffffffffffffffffffffff16639c1cb8bf85856040518363ffffffff1660e01b8152600401612171929190613c78565b600060405180830381600087803b15801561218b57600080fd5b505af115801561219f573d6000803e3d6000fd5b5050505050505050565b600560205281600052604060002081815481106121c557600080fd5b9060005260206000209060030201600091509150508060000154908060010154908060020160009054906101000a900473ffffffffffffffffffffffffffffffffffffffff16905083565b600160009054906101000a900473ffffffffffffffffffffffffffffffffffffffff1681565b600080821461227a576040517f08c379a000000000000000000000000000000000000000000000000000000000815260040161227190613beb565b60405180910390fd5b600083146122bd576040517f08c379a00000000000000000000000000000000000000000000000000000000081526004016122b490613b2b565b60405180910390fd5b6005841015612301576040517f08c379a00000000000000000000000000000000000000000000000000000000081526004016122f890613bcb565b60405180910390fd5b600190509392505050565b600080600460008473ffffffffffffffffffffffffffffffffffffffff1673ffffffffffffffffffffffffffffffffffffffff168152602001908152602001600020805480602002602001604051908101604052809291908181526020016000905b8282101561240a578382906000526020600020906003020160405180606001604052908160008201548152602001600182015481526020016002820160009054906101000a900473ffffffffffffffffffffffffffffffffffffffff1673ffffffffffffffffffffffffffffffffffffffff1673ffffffffffffffffffffffffffffffffffffffff16815250508152602001906001019061236e565b50505050905060008151905060005b8181101561248857600083828151811061245c577f4e487b7100000000000000000000000000000000000000000000000000000000600052603260045260246000fd5b602002602001015160000151905086811415612476578194505b508061248190613f47565b9050612419565b50505092915050565b600080600460008473ffffffffffffffffffffffffffffffffffffffff1673ffffffffffffffffffffffffffffffffffffffff168152602001908152602001600020805480602002602001604051908101604052809291908181526020016000905b8282101561258f578382906000526020600020906003020160405180606001604052908160008201548152602001600182015481526020016002820160009054906101000a900473ffffffffffffffffffffffffffffffffffffffff1673ffffffffffffffffffffffffffffffffffffffff1673ffffffffffffffffffffffffffffffffffffffff1681525050815260200190600101906124f3565b50505050905060008151905060005b8181101561260e5760008382815181106125e1577f4e487b7100000000000000000000000000000000000000000000000000000000600052603260045260246000fd5b6020026020010151600001519050868114156125fc57600194505b508061260790613f47565b905061259e565b50505092915050565b600060644233600654604051602001612632939291906139d9565b6040516020818303038152906040528051906020012060001c6126559190613fbe565b90506006600081548092919061266a90613f47565b919050555090565b600080600460008473ffffffffffffffffffffffffffffffffffffffff1673ffffffffffffffffffffffffffffffffffffffff16815260200190815260200160002090506000600460008573ffffffffffffffffffffffffffffffffffffffff1673ffffffffffffffffffffffffffffffffffffffff168152602001908152602001600020805480602002602001604051908101604052809291908181526020016000905b828210156127b3578382906000526020600020906003020160405180606001604052908160008201548152602001600182015481526020016002820160009054906101000a900473ffffffffffffffffffffffffffffffffffffffff1673ffffffffffffffffffffffffffffffffffffffff1673ffffffffffffffffffffffffffffffffffffffff168152505081526020019060010190612717565b50505050905060008151905060005b8181101561282b5786838281518110612804577f4e487b7100000000000000000000000000000000000000000000000000000000600052603260045260246000fd5b602002602001015160000151141561281a578094505b8061282490613f47565b90506127c2565b508160018261283a9190613dea565b81518110612871577f4e487b7100000000000000000000000000000000000000000000000000000000600052603260045260246000fd5b60200260200101518385815481106128b2577f4e487b7100000000000000000000000000000000000000000000000000000000600052603260045260246000fd5b9060005260206000209060030201600082015181600001556020820151816001015560408201518160020160006101000a81548173ffffffffffffffffffffffffffffffffffffffff021916908373ffffffffffffffffffffffffffffffffffffffff16021790555090505082805480612955577f4e487b7100000000000000000000000000000000000000000000000000000000600052603160045260246000fd5b600190038181906000526020600020906003020160008082016000905560018201600090556002820160006101000a81549073ffffffffffffffffffffffffffffffffffffffff021916905550509055505050505050565b60008083146129f1576040517f08c379a00000000000000000000000000000000000000000000000000000000081526004016129e890613beb565b60405180910390fd5b60028211612a34576040517f08c379a0000000000000000000000000000000000000000000000000000000008152600401612a2b90613b4b565b60405180910390fd5b60008414612a77576040517f08c379a0000000000000000000000000000000000000000000000000000000008152600401612a6e90613b2b565b60405180910390fd5b600a851015612abb576040517f08c379a0000000000000000000000000000000000000000000000000000000008152600401612ab290613bcb565b60405180910390fd5b60019050949350505050565b6000600360008373ffffffffffffffffffffffffffffffffffffffff1673ffffffffffffffffffffffffffffffffffffffff16815260200190815260200160002090508060405180604001604052808681526020018581525090806001815401808255809150506001900390600052602060002090600202016000909190919091506000820151816000015560208201518160010155505050505050565b600080600560008473ffffffffffffffffffffffffffffffffffffffff1673ffffffffffffffffffffffffffffffffffffffff168152602001908152602001600020805480602002602001604051908101604052809291908181526020016000905b82821015612c63578382906000526020600020906003020160405180606001604052908160008201548152602001600182015481526020016002820160009054906101000a900473ffffffffffffffffffffffffffffffffffffffff1673ffffffffffffffffffffffffffffffffffffffff1673ffffffffffffffffffffffffffffffffffffffff168152505081526020019060010190612bc7565b50505050905060008151905060005b81811015612ce1576000838281518110612cb5577f4e487b7100000000000000000000000000000000000000000000000000000000600052603260045260246000fd5b602002602001015160000151905086811415612ccf578194505b5080612cda90613f47565b9050612c72565b50505092915050565b600080600560008473ffffffffffffffffffffffffffffffffffffffff1673ffffffffffffffffffffffffffffffffffffffff168152602001908152602001600020805480602002602001604051908101604052809291908181526020016000905b82821015612de8578382906000526020600020906003020160405180606001604052908160008201548152602001600182015481526020016002820160009054906101000a900473ffffffffffffffffffffffffffffffffffffffff1673ffffffffffffffffffffffffffffffffffffffff1673ffffffffffffffffffffffffffffffffffffffff168152505081526020019060010190612d4c565b50505050905060008151905060005b81811015612e67576000838281518110612e3a577f4e487b7100000000000000000000000000000000000000000000000000000000600052603260045260246000fd5b602002602001015160000151905086811415612e5557600194505b5080612e6090613f47565b9050612df7565b50505092915050565b600080600560003373ffffffffffffffffffffffffffffffffffffffff1673ffffffffffffffffffffffffffffffffffffffff16815260200190815260200160002090506000600560003373ffffffffffffffffffffffffffffffffffffffff1673ffffffffffffffffffffffffffffffffffffffff168152602001908152602001600020805480602002602001604051908101604052809291908181526020016000905b82821015612fb1578382906000526020600020906003020160405180606001604052908160008201548152602001600182015481526020016002820160009054906101000a900473ffffffffffffffffffffffffffffffffffffffff1673ffffffffffffffffffffffffffffffffffffffff1673ffffffffffffffffffffffffffffffffffffffff168152505081526020019060010190612f15565b50505050905060008151905060005b8181101561302f576000838281518110613003577f4e487b7100000000000000000000000000000000000000000000000000000000600052603260045260246000fd5b60200260200101516000015190508681141561301d578195505b508061302890613f47565b9050612fc0565b508160018261303e9190613dea565b81518110613075577f4e487b7100000000000000000000000000000000000000000000000000000000600052603260045260246000fd5b60200260200101518385815481106130b6577f4e487b7100000000000000000000000000000000000000000000000000000000600052603260045260246000fd5b9060005260206000209060030201600082015181600001556020820151816001015560408201518160020160006101000a81548173ffffffffffffffffffffffffffffffffffffffff021916908373ffffffffffffffffffffffffffffffffffffffff16021790555090505082805480613159577f4e487b7100000000000000000000000000000000000000000000000000000000600052603160045260246000fd5b600190038181906000526020600020906003020160008082016000905560018201600090556002820160006101000a81549073ffffffffffffffffffffffffffffffffffffffff0219169055505090555050505050565b6000600360008373ffffffffffffffffffffffffffffffffffffffff1673ffffffffffffffffffffffffffffffffffffffff168152602001908152602001600020905060005b84518110156132e557816040518060400160405280878481518110613244577f4e487b7100000000000000000000000000000000000000000000000000000000600052603260045260246000fd5b6020026020010151815260200186848151811061328a577f4e487b7100000000000000000000000000000000000000000000000000000000600052603260045260246000fd5b6020026020010151815250908060018154018082558091505060019003906000526020600020906002020160009091909190915060008201518160000155602082015181600101555050806132de90613f47565b90506131f6565b5050505050565b600080655af3107a400090508285826133059190613d90565b61330f9190613d90565b3414613350576040517f08c379a000000000000000000000000000000000000000000000000000000000815260040161334790613aab565b60405180910390fd5b60648410613393576040517f08c379a000000000000000000000000000000000000000000000000000000000815260040161338a90613acb565b60405180910390fd5b606484846133a19190613d3a565b11156133e2576040517f08c379a00000000000000000000000000000000000000000000000000000000081526004016133d990613bab565b60405180910390fd5b60019150509392505050565b60006134016133fc84613cfd565b613cd8565b9050808382526020820190508285602086028201111561342057600080fd5b60005b85811015613450578161343688826134f8565b845260208401935060208301925050600181019050613423565b5050509392505050565b600081359050613469816142f5565b92915050565b60008151905061347e816142f5565b92915050565b600082601f83011261349557600080fd5b81356134a58482602086016133ee565b91505092915050565b60008083601f8401126134c057600080fd5b8235905067ffffffffffffffff8111156134d957600080fd5b6020830191508360018202830111156134f157600080fd5b9250929050565b6000813590506135078161430c565b92915050565b60008151905061351c8161430c565b92915050565b60006020828403121561353457600080fd5b60006135428482850161346f565b91505092915050565b6000806040838503121561355e57600080fd5b600061356c8582860161345a565b925050602061357d8582860161345a565b9150509250929050565b60008060008060006080868803121561359f57600080fd5b60006135ad8882890161345a565b95505060206135be8882890161345a565b94505060406135cf888289016134f8565b935050606086013567ffffffffffffffff8111156135ec57600080fd5b6135f8888289016134ae565b92509250509295509295909350565b6000806040838503121561361a57600080fd5b60006136288582860161345a565b9250506020613639858286016134f8565b9150509250929050565b60008060006060848603121561365857600080fd5b600084013567ffffffffffffffff81111561367257600080fd5b61367e86828701613484565b935050602084013567ffffffffffffffff81111561369b57600080fd5b6136a786828701613484565b92505060406136b88682870161345a565b9150509250925092565b6000602082840312156136d457600080fd5b60006136e28482850161350d565b91505092915050565b600080604083850312156136fe57600080fd5b600061370c858286016134f8565b925050602061371d8582860161345a565b9150509250929050565b6000806040838503121561373a57600080fd5b6000613748858286016134f8565b9250506020613759858286016134f8565b9150509250929050565b60008060006060848603121561377857600080fd5b6000613786868287016134f8565b9350506020613797868287016134f8565b92505060406137a88682870161345a565b9150509250925092565b6137bb81613e1e565b82525050565b6137d26137cd82613e1e565b613f90565b82525050565b6137e181613e30565b82525050565b6137f081613e86565b82525050565b6137ff81613eaa565b82525050565b61380e81613ece565b82525050565b61381d81613ef2565b82525050565b61382c81613f04565b82525050565b600061383f601083613d29565b915061384a8261409a565b602082019050919050565b6000613862601b83613d29565b915061386d826140c3565b602082019050919050565b6000613885601583613d29565b9150613890826140ec565b602082019050919050565b60006138a8601583613d29565b91506138b382614115565b602082019050919050565b60006138cb601f83613d29565b91506138d68261413e565b602082019050919050565b60006138ee603083613d29565b91506138f982614167565b604082019050919050565b6000613911602783613d29565b915061391c826141b6565b604082019050919050565b6000613934602b83613d29565b915061393f82614205565b604082019050919050565b6000613957601e83613d29565b915061396282614254565b602082019050919050565b600061397a601183613d29565b91506139858261427d565b602082019050919050565b600061399d602783613d29565b91506139a8826142a6565b604082019050919050565b6139bc81613e7c565b82525050565b6139d36139ce82613e7c565b613fb4565b82525050565b60006139e582866139c2565b6020820191506139f582856137c1565b601482019150613a0582846139c2565b602082019150819050949350505050565b6000604082019050613a2b60008301856137b2565b613a3860208301846139b3565b9392505050565b6000602082019050613a5460008301846137d8565b92915050565b6000602082019050613a6f60008301846137e7565b92915050565b6000602082019050613a8a60008301846137f6565b92915050565b6000602082019050613aa56000830184613805565b92915050565b60006020820190508181036000830152613ac481613832565b9050919050565b60006020820190508181036000830152613ae481613855565b9050919050565b60006020820190508181036000830152613b0481613878565b9050919050565b60006020820190508181036000830152613b248161389b565b9050919050565b60006020820190508181036000830152613b44816138be565b9050919050565b60006020820190508181036000830152613b64816138e1565b9050919050565b60006020820190508181036000830152613b8481613904565b9050919050565b60006020820190508181036000830152613ba481613927565b9050919050565b60006020820190508181036000830152613bc48161394a565b9050919050565b60006020820190508181036000830152613be48161396d565b9050919050565b60006020820190508181036000830152613c0481613990565b9050919050565b6000602082019050613c2060008301846139b3565b92915050565b6000604082019050613c3b60008301856139b3565b613c486020830184613814565b9392505050565b6000604082019050613c6460008301856139b3565b613c716020830184613823565b9392505050565b6000604082019050613c8d60008301856139b3565b613c9a60208301846139b3565b9392505050565b6000606082019050613cb660008301866139b3565b613cc360208301856139b3565b613cd060408301846137b2565b949350505050565b6000613ce2613cf3565b9050613cee8282613f16565b919050565b6000604051905090565b600067ffffffffffffffff821115613d1857613d1761404d565b5b602082029050602081019050919050565b600082825260208201905092915050565b6000613d4582613e7c565b9150613d5083613e7c565b9250827fffffffffffffffffffffffffffffffffffffffffffffffffffffffffffffffff03821115613d8557613d84613fef565b5b828201905092915050565b6000613d9b82613e7c565b9150613da683613e7c565b9250817fffffffffffffffffffffffffffffffffffffffffffffffffffffffffffffffff0483118215151615613ddf57613dde613fef565b5b828202905092915050565b6000613df582613e7c565b9150613e0083613e7c565b925082821015613e1357613e12613fef565b5b828203905092915050565b6000613e2982613e5c565b9050919050565b60007fffffffff0000000000000000000000000000000000000000000000000000000082169050919050565b600073ffffffffffffffffffffffffffffffffffffffff82169050919050565b6000819050919050565b6000613e9182613e98565b9050919050565b6000613ea382613e5c565b9050919050565b6000613eb582613ebc565b9050919050565b6000613ec782613e5c565b9050919050565b6000613ed982613ee0565b9050919050565b6000613eeb82613e5c565b9050919050565b6000613efd82613e7c565b9050919050565b6000613f0f82613e7c565b9050919050565b613f1f8261407c565b810181811067ffffffffffffffff82111715613f3e57613f3d61404d565b5b80604052505050565b6000613f5282613e7c565b91507fffffffffffffffffffffffffffffffffffffffffffffffffffffffffffffffff821415613f8557613f84613fef565b5b600182019050919050565b6000613f9b82613fa2565b9050919050565b6000613fad8261408d565b9050919050565b6000819050919050565b6000613fc982613e7c565b9150613fd483613e7c565b925082613fe457613fe361401e565b5b828206905092915050565b7f4e487b7100000000000000000000000000000000000000000000000000000000600052601160045260246000fd5b7f4e487b7100000000000000000000000000000000000000000000000000000000600052601260045260246000fd5b7f4e487b7100000000000000000000000000000000000000000000000000000000600052604160045260246000fd5b6000601f19601f8301169050919050565b60008160601b9050919050565b7f4e6f7420656e6f75676820657468657200000000000000000000000000000000600082015250565b7f596f7572206d6f6e737465722068756e6765722069732066756c6c0000000000600082015250565b7f49742773206e6f7420796f7572206d6f6e737465720000000000000000000000600082015250565b7f4475726174696f6e206e6f74206f766572207965740000000000000000000000600082015250565b7f20596f7572206d6f6e73746572207374696c6c206f6e20636f6f6c646f776e00600082015250565b7f596f7572206d6f6e7374657220646f6573276e74206d657420746865206d696e60008201527f696d756d20726571756972656d656e7400000000000000000000000000000000602082015250565b7f596f7572206d6f6e73746572206973206e6f74206f6e20626567696e6e65722060008201527f6d697373696f6e00000000000000000000000000000000000000000000000000602082015250565b7f596f7572206d6f6e73746572206973206e6f74206f6e20696e7465726d65646960008201527f617465206d697373696f6e000000000000000000000000000000000000000000602082015250565b7f546f6f206d75636820666f6f6420666f7220796f7572206d6f6e737465720000600082015250565b7f4e6f7420656e6f7567682068756e676572000000000000000000000000000000600082015250565b7f596f7572206d6f6e73746572207374696c6c20776f726b696e67206f6e20736f60008201527f6d657468696e6700000000000000000000000000000000000000000000000000602082015250565b6142fe81613e1e565b811461430957600080fd5b50565b61431581613e7c565b811461432057600080fd5b5056fea2646970667358221220dc8d237c976b91742639b4905f85fee4c803098a5439ecfce30abb7aacc8ab7c64736f6c63430008040033",
  "linkReferences": {},
  "deployedLinkReferences": {}
}