{
  "_format": "hh-sol-artifact-1",
  "contractName": "Nursery",
  "sourceName": "contracts/Nursery.sol",
  "abi": [
    {
      "inputs": [
        {
          "internalType": "uint256",
          "name": "_shopId",
          "type": "uint256"
        },
        {
          "internalType": "uint256",
          "name": "_quantity",
          "type": "uint256"
        },
        {
          "internalType": "address",
          "name": "_user",
          "type": "address"
        }
      ],
      "name": "buyItem",
      "outputs": [],
      "stateMutability": "payable",
      "type": "function"
    },
    {
      "inputs": [
        {
          "internalType": "uint256",
          "name": "_tokenId",
          "type": "uint256"
        },
        {
          "internalType": "address",
          "name": "_user",
          "type": "address"
        }
      ],
      "name": "deleteMonster",
      "outputs": [],
      "stateMutability": "nonpayable",
      "type": "function"
    },
    {
      "inputs": [
        {
          "internalType": "uint256",
          "name": "_tokenId",
          "type": "uint256"
        },
        {
          "internalType": "address",
          "name": "_user",
          "type": "address"
        }
      ],
      "name": "getMonsterIndex",
      "outputs": [
        {
          "internalType": "uint256",
          "name": "index",
          "type": "uint256"
        }
      ],
      "stateMutability": "view",
      "type": "function"
    },
    {
      "inputs": [
        {
          "internalType": "address",
          "name": "_user",
          "type": "address"
        }
      ],
      "name": "getMyMonsters",
      "outputs": [
        {
          "components": [
            {
              "internalType": "uint256",
              "name": "monster",
              "type": "uint256"
            },
            {
              "internalType": "address",
              "name": "owner",
              "type": "address"
            },
            {
              "internalType": "uint256",
              "name": "duration",
              "type": "uint256"
            }
          ],
          "internalType": "struct Nursery.Rest[]",
          "name": "monsters",
          "type": "tuple[]"
        }
      ],
      "stateMutability": "view",
      "type": "function"
    },
    {
      "inputs": [
        {
          "internalType": "uint256",
          "name": "_tokenId",
          "type": "uint256"
        },
        {
          "internalType": "address",
          "name": "_user",
          "type": "address"
        }
      ],
      "name": "goBackHome",
      "outputs": [],
      "stateMutability": "nonpayable",
      "type": "function"
    },
    {
      "inputs": [
        {
          "internalType": "address",
          "name": "",
          "type": "address"
        },
        {
          "internalType": "uint256",
          "name": "",
          "type": "uint256"
        }
      ],
      "name": "monsterOnNursery",
      "outputs": [
        {
          "internalType": "uint256",
          "name": "monster",
          "type": "uint256"
        },
        {
          "internalType": "address",
          "name": "owner",
          "type": "address"
        },
        {
          "internalType": "uint256",
          "name": "duration",
          "type": "uint256"
        }
      ],
      "stateMutability": "view",
      "type": "function"
    },
    {
      "inputs": [
        {
          "internalType": "uint256",
          "name": "",
          "type": "uint256"
        }
      ],
      "name": "nurseryShop",
      "outputs": [
        {
          "internalType": "uint256",
          "name": "item",
          "type": "uint256"
        },
        {
          "internalType": "uint256",
          "name": "quantity",
          "type": "uint256"
        },
        {
          "internalType": "uint256",
          "name": "price",
          "type": "uint256"
        }
      ],
      "stateMutability": "view",
      "type": "function"
    },
    {
      "inputs": [
        {
          "internalType": "address",
          "name": "_operator",
          "type": "address"
        },
        {
          "internalType": "address",
          "name": "_from",
          "type": "address"
        },
        {
          "internalType": "uint256[]",
          "name": "_ids",
          "type": "uint256[]"
        },
        {
          "internalType": "uint256[]",
          "name": "_values",
          "type": "uint256[]"
        },
        {
          "internalType": "bytes",
          "name": "_data",
          "type": "bytes"
        }
      ],
      "name": "onERC1155BatchReceived",
      "outputs": [
        {
          "internalType": "bytes4",
          "name": "",
          "type": "bytes4"
        }
      ],
      "stateMutability": "pure",
      "type": "function"
    },
    {
      "inputs": [
        {
          "internalType": "address",
          "name": "_operator",
          "type": "address"
        },
        {
          "internalType": "address",
          "name": "_from",
          "type": "address"
        },
        {
          "internalType": "uint256",
          "name": "_id",
          "type": "uint256"
        },
        {
          "internalType": "uint256",
          "name": "_value",
          "type": "uint256"
        },
        {
          "internalType": "bytes",
          "name": "_data",
          "type": "bytes"
        }
      ],
      "name": "onERC1155Received",
      "outputs": [
        {
          "internalType": "bytes4",
          "name": "",
          "type": "bytes4"
        }
      ],
      "stateMutability": "pure",
      "type": "function"
    },
    {
      "inputs": [
        {
          "internalType": "uint256",
          "name": "_tokenId",
          "type": "uint256"
        },
        {
          "internalType": "address",
          "name": "_user",
          "type": "address"
        },
        {
          "internalType": "uint256",
          "name": "_duration",
          "type": "uint256"
        }
      ],
      "name": "putOnNursery",
      "outputs": [],
      "stateMutability": "payable",
      "type": "function"
    },
    {
      "inputs": [
        {
          "internalType": "address",
          "name": "_monsterNFT",
          "type": "address"
        },
        {
          "internalType": "address",
          "name": "_itemNFT",
          "type": "address"
        }
      ],
      "name": "setInterface",
      "outputs": [],
      "stateMutability": "nonpayable",
      "type": "function"
    },
    {
      "inputs": [
        {
          "internalType": "bytes4",
          "name": "interfaceId",
          "type": "bytes4"
        }
      ],
      "name": "supportsInterface",
      "outputs": [
        {
          "internalType": "bool",
          "name": "",
          "type": "bool"
        }
      ],
      "stateMutability": "view",
      "type": "function"
    },
    {
      "stateMutability": "payable",
      "type": "receive"
    }
  ],
  "bytecode": "0x608060405234801561001057600080fd5b506120ee806100206000396000f3fe6080604052600436106100ab5760003560e01c80637fef38c7116100645780637fef38c7146101de578063899b519114610207578063bc197c8114610246578063c9a2209214610283578063f23a6e611461029f578063f78fb324146102dc576100b2565b806301ffc9a7146100b757806302d8f2b5146100f45780630d7f70ff1461011d5780631304f6071461014657806313c066f8146101835780635f4ee4831461019f576100b2565b366100b257005b600080fd5b3480156100c357600080fd5b506100de60048036038101906100d991906116f1565b610319565b6040516100eb9190611ae5565b60405180910390f35b34801561010057600080fd5b5061011b6004803603810190610116919061151b565b610393565b005b34801561012957600080fd5b50610144600480360381019061013f919061176c565b610418565b005b34801561015257600080fd5b5061016d6004803603810190610168919061176c565b610759565b60405161017a9190611bdb565b60405180910390f35b61019d600480360381019061019891906117f7565b6108de565b005b3480156101ab57600080fd5b506101c660048036038101906101c1919061171a565b610ac7565b6040516101d593929190611ca8565b60405180910390f35b3480156101ea57600080fd5b506102056004803603810190610200919061176c565b610af1565b005b34801561021357600080fd5b5061022e600480360381019061022991906116b5565b610e38565b60405161023d93929190611bf6565b60405180910390f35b34801561025257600080fd5b5061026d60048036038101906102689190611557565b610e9f565b60405161027a9190611b00565b60405180910390f35b61029d600480360381019061029891906117a8565b610ead565b005b3480156102ab57600080fd5b506102c660048036038101906102c19190611623565b61128c565b6040516102d39190611b00565b60405180910390f35b3480156102e857600080fd5b5061030360048036038101906102fe91906114f2565b611298565b6040516103109190611ac3565b60405180910390f35b60007f4e2312e0000000000000000000000000000000000000000000000000000000007bffffffffffffffffffffffffffffffffffffffffffffffffffffffff1916827bffffffffffffffffffffffffffffffffffffffffffffffffffffffff1916148061038c575061038b826113a0565b5b9050919050565b816000806101000a81548173ffffffffffffffffffffffffffffffffffffffff021916908373ffffffffffffffffffffffffffffffffffffffff16021790555080600160006101000a81548173ffffffffffffffffffffffffffffffffffffffff021916908373ffffffffffffffffffffffffffffffffffffffff1602179055505050565b600080600260008473ffffffffffffffffffffffffffffffffffffffff1673ffffffffffffffffffffffffffffffffffffffff16815260200190815260200160002090506000600260008573ffffffffffffffffffffffffffffffffffffffff1673ffffffffffffffffffffffffffffffffffffffff168152602001908152602001600020805480602002602001604051908101604052809291908181526020016000905b828210156105595783829060005260206000209060030201604051806060016040529081600082015481526020016001820160009054906101000a900473ffffffffffffffffffffffffffffffffffffffff1673ffffffffffffffffffffffffffffffffffffffff1673ffffffffffffffffffffffffffffffffffffffff168152602001600282015481525050815260200190600101906104bd565b50505050905060008151905060005b818110156105d75760008382815181106105ab577f4e487b7100000000000000000000000000000000000000000000000000000000600052603260045260246000fd5b6020026020010151600001519050878114156105c5578195505b50806105d090611eb6565b9050610568565b50816001826105e69190611dea565b8151811061061d577f4e487b7100000000000000000000000000000000000000000000000000000000600052603260045260246000fd5b602002602001015183858154811061065e577f4e487b7100000000000000000000000000000000000000000000000000000000600052603260045260246000fd5b90600052602060002090600302016000820151816000015560208201518160010160006101000a81548173ffffffffffffffffffffffffffffffffffffffff021916908373ffffffffffffffffffffffffffffffffffffffff1602179055506040820151816002015590505082805480610701577f4e487b7100000000000000000000000000000000000000000000000000000000600052603160045260246000fd5b60019003818190600052602060002090600302016000808201600090556001820160006101000a81549073ffffffffffffffffffffffffffffffffffffffff0219169055600282016000905550509055505050505050565b600080600260008473ffffffffffffffffffffffffffffffffffffffff1673ffffffffffffffffffffffffffffffffffffffff168152602001908152602001600020805480602002602001604051908101604052809291908181526020016000905b828210156108575783829060005260206000209060030201604051806060016040529081600082015481526020016001820160009054906101000a900473ffffffffffffffffffffffffffffffffffffffff1673ffffffffffffffffffffffffffffffffffffffff1673ffffffffffffffffffffffffffffffffffffffff168152602001600282015481525050815260200190600101906107bb565b50505050905060008151905060005b818110156108d55760008382815181106108a9577f4e487b7100000000000000000000000000000000000000000000000000000000600052603260045260246000fd5b6020026020010151905086816000015114156108c3578194505b50806108ce90611eb6565b9050610866565b50505092915050565b6000600360008581526020019081526020016000209050600060036000868152602001908152602001600020604051806060016040529081600082015481526020016001820154815260200160028201548152505090506003841115610979576040517f08c379a000000000000000000000000000000000000000000000000000000000815260040161097090611b9b565b60405180910390fd5b60008160200151116109c0576040517f08c379a00000000000000000000000000000000000000000000000000000000081526004016109b790611b1b565b60405180910390fd5b8381604001516109d09190611d90565b3414610a11576040517f08c379a0000000000000000000000000000000000000000000000000000000008152600401610a0890611b7b565b60405180910390fd5b600160009054906101000a900473ffffffffffffffffffffffffffffffffffffffff1673ffffffffffffffffffffffffffffffffffffffff1663f242432a30858460000151886040518563ffffffff1660e01b8152600401610a769493929190611a6b565b600060405180830381600087803b158015610a9057600080fd5b505af1158015610aa4573d6000803e3d6000fd5b50505050838160200151610ab89190611dea565b82600101819055505050505050565b60036020528060005260406000206000915090508060000154908060010154908060020154905083565b6000600260008373ffffffffffffffffffffffffffffffffffffffff1673ffffffffffffffffffffffffffffffffffffffff168152602001908152602001600020805480602002602001604051908101604052809291908181526020016000905b82821015610bee5783829060005260206000209060030201604051806060016040529081600082015481526020016001820160009054906101000a900473ffffffffffffffffffffffffffffffffffffffff1673ffffffffffffffffffffffffffffffffffffffff1673ffffffffffffffffffffffffffffffffffffffff16815260200160028201548152505081526020019060010190610b52565b5050505090506000610c008484610759565b905060008060009054906101000a900473ffffffffffffffffffffffffffffffffffffffff1673ffffffffffffffffffffffffffffffffffffffff1663c7bd6c31866040518263ffffffff1660e01b8152600401610c5e9190611bdb565b60206040518083038186803b158015610c7657600080fd5b505afa158015610c8a573d6000803e3d6000fd5b505050506040513d601f19601f82011682018060405250810190610cae9190611743565b90506000838381518110610ceb577f4e487b7100000000000000000000000000000000000000000000000000000000600052603260045260246000fd5b60200260200101516040015190506000600a82610d089190611d90565b905060008054906101000a900473ffffffffffffffffffffffffffffffffffffffff1673ffffffffffffffffffffffffffffffffffffffff16639c1cb8bf88836040518363ffffffff1660e01b8152600401610d65929190611c7f565b600060405180830381600087803b158015610d7f57600080fd5b505af1158015610d93573d6000803e3d6000fd5b5050505060008054906101000a900473ffffffffffffffffffffffffffffffffffffffff1673ffffffffffffffffffffffffffffffffffffffff166382e408138860006040518363ffffffff1660e01b8152600401610df3929190611c2d565b600060405180830381600087803b158015610e0d57600080fd5b505af1158015610e21573d6000803e3d6000fd5b50505050610e2f8787610418565b50505050505050565b60026020528160005260406000208181548110610e5457600080fd5b9060005260206000209060030201600091509150508060000154908060010160009054906101000a900473ffffffffffffffffffffffffffffffffffffffff16908060020154905083565b600098975050505050505050565b60008060009054906101000a900473ffffffffffffffffffffffffffffffffffffffff1673ffffffffffffffffffffffffffffffffffffffff1663c7bd6c31856040518263ffffffff1660e01b8152600401610f099190611bdb565b60206040518083038186803b158015610f2157600080fd5b505afa158015610f35573d6000803e3d6000fd5b505050506040513d601f19601f82011682018060405250810190610f599190611743565b905060008060009054906101000a900473ffffffffffffffffffffffffffffffffffffffff1673ffffffffffffffffffffffffffffffffffffffff166360e2f2fb866040518263ffffffff1660e01b8152600401610fb79190611bdb565b60206040518083038186803b158015610fcf57600080fd5b505afa158015610fe3573d6000803e3d6000fd5b505050506040513d601f19601f820116820180604052508101906110079190611743565b90506000811461104c576040517f08c379a000000000000000000000000000000000000000000000000000000000815260040161104390611bbb565b60405180910390fd5b606482600a8561105c9190611d90565b6110669190611d3a565b11156110a7576040517f08c379a000000000000000000000000000000000000000000000000000000000815260040161109e90611b5b565b60405180910390fd5b655af3107a4000836110b99190611d90565b3410156110fb576040517f08c379a00000000000000000000000000000000000000000000000000000000081526004016110f290611b3b565b60405180910390fd5b6000600260008673ffffffffffffffffffffffffffffffffffffffff1673ffffffffffffffffffffffffffffffffffffffff16815260200190815260200160002090508060405180606001604052808881526020018773ffffffffffffffffffffffffffffffffffffffff1681526020018681525090806001815401808255809150506001900390600052602060002090600302016000909190919091506000820151816000015560208201518160010160006101000a81548173ffffffffffffffffffffffffffffffffffffffff021916908373ffffffffffffffffffffffffffffffffffffffff16021790555060408201518160020155505060008054906101000a900473ffffffffffffffffffffffffffffffffffffffff1673ffffffffffffffffffffffffffffffffffffffff166382e408138760026040518363ffffffff1660e01b8152600401611252929190611c56565b600060405180830381600087803b15801561126c57600080fd5b505af1158015611280573d6000803e3d6000fd5b50505050505050505050565b60009695505050505050565b6060600260008373ffffffffffffffffffffffffffffffffffffffff1673ffffffffffffffffffffffffffffffffffffffff168152602001908152602001600020805480602002602001604051908101604052809291908181526020016000905b828210156113955783829060005260206000209060030201604051806060016040529081600082015481526020016001820160009054906101000a900473ffffffffffffffffffffffffffffffffffffffff1673ffffffffffffffffffffffffffffffffffffffff1673ffffffffffffffffffffffffffffffffffffffff168152602001600282015481525050815260200190600101906112f9565b505050509050919050565b60007f01ffc9a7000000000000000000000000000000000000000000000000000000007bffffffffffffffffffffffffffffffffffffffffffffffffffffffff1916827bffffffffffffffffffffffffffffffffffffffffffffffffffffffff1916149050919050565b60008135905061141981612073565b92915050565b60008083601f84011261143157600080fd5b8235905067ffffffffffffffff81111561144a57600080fd5b60208301915083602082028301111561146257600080fd5b9250929050565b6000813590506114788161208a565b92915050565b60008083601f84011261149057600080fd5b8235905067ffffffffffffffff8111156114a957600080fd5b6020830191508360018202830111156114c157600080fd5b9250929050565b6000813590506114d7816120a1565b92915050565b6000815190506114ec816120a1565b92915050565b60006020828403121561150457600080fd5b60006115128482850161140a565b91505092915050565b6000806040838503121561152e57600080fd5b600061153c8582860161140a565b925050602061154d8582860161140a565b9150509250929050565b60008060008060008060008060a0898b03121561157357600080fd5b60006115818b828c0161140a565b98505060206115928b828c0161140a565b975050604089013567ffffffffffffffff8111156115af57600080fd5b6115bb8b828c0161141f565b9650965050606089013567ffffffffffffffff8111156115da57600080fd5b6115e68b828c0161141f565b9450945050608089013567ffffffffffffffff81111561160557600080fd5b6116118b828c0161147e565b92509250509295985092959890939650565b60008060008060008060a0878903121561163c57600080fd5b600061164a89828a0161140a565b965050602061165b89828a0161140a565b955050604061166c89828a016114c8565b945050606061167d89828a016114c8565b935050608087013567ffffffffffffffff81111561169a57600080fd5b6116a689828a0161147e565b92509250509295509295509295565b600080604083850312156116c857600080fd5b60006116d68582860161140a565b92505060206116e7858286016114c8565b9150509250929050565b60006020828403121561170357600080fd5b600061171184828501611469565b91505092915050565b60006020828403121561172c57600080fd5b600061173a848285016114c8565b91505092915050565b60006020828403121561175557600080fd5b6000611763848285016114dd565b91505092915050565b6000806040838503121561177f57600080fd5b600061178d858286016114c8565b925050602061179e8582860161140a565b9150509250929050565b6000806000606084860312156117bd57600080fd5b60006117cb868287016114c8565b93505060206117dc8682870161140a565b92505060406117ed868287016114c8565b9150509250925092565b60008060006060848603121561180c57600080fd5b600061181a868287016114c8565b935050602061182b868287016114c8565b925050604061183c8682870161140a565b9150509250925092565b60006118528383611a0b565b60608301905092915050565b61186781611e1e565b82525050565b61187681611e1e565b82525050565b600061188782611cef565b6118918185611d07565b935061189c83611cdf565b8060005b838110156118cd5781516118b48882611846565b97506118bf83611cfa565b9250506001810190506118a0565b5085935050505092915050565b6118e381611e30565b82525050565b6118f281611e3c565b82525050565b61190181611e92565b82525050565b61191081611ea4565b82525050565b6000611923600d83611d29565b915061192e82611f2e565b602082019050919050565b6000611946601083611d29565b915061195182611f57565b602082019050919050565b6000611969601383611d29565b915061197482611f80565b602082019050919050565b600061198c601983611d29565b915061199782611fa9565b602082019050919050565b60006119af600083611d18565b91506119ba82611fd2565b600082019050919050565b60006119d2602783611d29565b91506119dd82611fd5565b604082019050919050565b60006119f5602783611d29565b9150611a0082612024565b604082019050919050565b606082016000820151611a216000850182611a4d565b506020820151611a34602085018261185e565b506040820151611a476040850182611a4d565b50505050565b611a5681611e88565b82525050565b611a6581611e88565b82525050565b600060a082019050611a80600083018761186d565b611a8d602083018661186d565b611a9a6040830185611a5c565b611aa76060830184611a5c565b8181036080830152611ab8816119a2565b905095945050505050565b60006020820190508181036000830152611add818461187c565b905092915050565b6000602082019050611afa60008301846118da565b92915050565b6000602082019050611b1560008301846118e9565b92915050565b60006020820190508181036000830152611b3481611916565b9050919050565b60006020820190508181036000830152611b5481611939565b9050919050565b60006020820190508181036000830152611b748161195c565b9050919050565b60006020820190508181036000830152611b948161197f565b9050919050565b60006020820190508181036000830152611bb4816119c5565b9050919050565b60006020820190508181036000830152611bd4816119e8565b9050919050565b6000602082019050611bf06000830184611a5c565b92915050565b6000606082019050611c0b6000830186611a5c565b611c18602083018561186d565b611c256040830184611a5c565b949350505050565b6000604082019050611c426000830185611a5c565b611c4f60208301846118f8565b9392505050565b6000604082019050611c6b6000830185611a5c565b611c786020830184611907565b9392505050565b6000604082019050611c946000830185611a5c565b611ca16020830184611a5c565b9392505050565b6000606082019050611cbd6000830186611a5c565b611cca6020830185611a5c565b611cd76040830184611a5c565b949350505050565b6000819050602082019050919050565b600081519050919050565b6000602082019050919050565b600082825260208201905092915050565b600082825260208201905092915050565b600082825260208201905092915050565b6000611d4582611e88565b9150611d5083611e88565b9250827fffffffffffffffffffffffffffffffffffffffffffffffffffffffffffffffff03821115611d8557611d84611eff565b5b828201905092915050565b6000611d9b82611e88565b9150611da683611e88565b9250817fffffffffffffffffffffffffffffffffffffffffffffffffffffffffffffffff0483118215151615611ddf57611dde611eff565b5b828202905092915050565b6000611df582611e88565b9150611e0083611e88565b925082821015611e1357611e12611eff565b5b828203905092915050565b6000611e2982611e68565b9050919050565b60008115159050919050565b60007fffffffff0000000000000000000000000000000000000000000000000000000082169050919050565b600073ffffffffffffffffffffffffffffffffffffffff82169050919050565b6000819050919050565b6000611e9d82611e88565b9050919050565b6000611eaf82611e88565b9050919050565b6000611ec182611e88565b91507fffffffffffffffffffffffffffffffffffffffffffffffffffffffffffffffff821415611ef457611ef3611eff565b5b600182019050919050565b7f4e487b7100000000000000000000000000000000000000000000000000000000600052601160045260246000fd5b7f4e6f2073746f636b206c65667400000000000000000000000000000000000000600082015250565b7f57726f6e672076616c75652073656e7400000000000000000000000000000000600082015250565b7f52656475636520746865206475726174696f6e00000000000000000000000000600082015250565b7f57726f6e672076616c7565206f662065746865722073656e7400000000000000600082015250565b50565b7f54686572652773206f6e6c7920332073746f636b7320706572206974656d206560008201527f7665727964617900000000000000000000000000000000000000000000000000602082015250565b7f596f7572206d6f6e73746572207374696c6c20776f726b696e67206f6e20736f60008201527f6d657468696e6700000000000000000000000000000000000000000000000000602082015250565b61207c81611e1e565b811461208757600080fd5b50565b61209381611e3c565b811461209e57600080fd5b50565b6120aa81611e88565b81146120b557600080fd5b5056fea2646970667358221220281c1a9eeb3177caeb04ec6032ca7c4b50815a7d49a32ce6f6afe2e33886831a64736f6c63430008040033",
  "linkReferences": {},
  "deployedLinkReferences": {}
}