{
  "_format": "hh-sol-artifact-1",
  "contractName": "Nursery",
  "sourceName": "contracts/Nursery.sol",
  "abi": [
    {
      "inputs": [
        {
          "internalType": "uint256",
          "name": "_shopId",
          "type": "uint256"
        },
        {
          "internalType": "uint256",
          "name": "_quantity",
          "type": "uint256"
        },
        {
          "internalType": "address",
          "name": "_user",
          "type": "address"
        }
      ],
      "name": "buyItem",
      "outputs": [],
      "stateMutability": "payable",
      "type": "function"
    },
    {
      "inputs": [
        {
          "internalType": "uint256",
          "name": "_tokenId",
          "type": "uint256"
        },
        {
          "internalType": "address",
          "name": "_user",
          "type": "address"
        }
      ],
      "name": "deleteMonster",
      "outputs": [],
      "stateMutability": "nonpayable",
      "type": "function"
    },
    {
      "inputs": [
        {
          "internalType": "uint256",
          "name": "_tokenId",
          "type": "uint256"
        },
        {
          "internalType": "address",
          "name": "_user",
          "type": "address"
        }
      ],
      "name": "getMonsterIndex",
      "outputs": [
        {
          "internalType": "uint256",
          "name": "index",
          "type": "uint256"
        }
      ],
      "stateMutability": "view",
      "type": "function"
    },
    {
      "inputs": [
        {
          "internalType": "uint256",
          "name": "_tokenId",
          "type": "uint256"
        },
        {
          "internalType": "address",
          "name": "_user",
          "type": "address"
        }
      ],
      "name": "goBackHome",
      "outputs": [],
      "stateMutability": "nonpayable",
      "type": "function"
    },
    {
      "inputs": [
        {
          "internalType": "address",
          "name": "",
          "type": "address"
        },
        {
          "internalType": "uint256",
          "name": "",
          "type": "uint256"
        }
      ],
      "name": "monsterOnNursery",
      "outputs": [
        {
          "internalType": "uint256",
          "name": "monster",
          "type": "uint256"
        },
        {
          "internalType": "address",
          "name": "owner",
          "type": "address"
        },
        {
          "internalType": "uint256",
          "name": "duration",
          "type": "uint256"
        }
      ],
      "stateMutability": "view",
      "type": "function"
    },
    {
      "inputs": [
        {
          "internalType": "uint256",
          "name": "",
          "type": "uint256"
        }
      ],
      "name": "nurseryShop",
      "outputs": [
        {
          "internalType": "uint256",
          "name": "item",
          "type": "uint256"
        },
        {
          "internalType": "uint256",
          "name": "quantity",
          "type": "uint256"
        },
        {
          "internalType": "uint256",
          "name": "price",
          "type": "uint256"
        }
      ],
      "stateMutability": "view",
      "type": "function"
    },
    {
      "inputs": [
        {
          "internalType": "address",
          "name": "_operator",
          "type": "address"
        },
        {
          "internalType": "address",
          "name": "_from",
          "type": "address"
        },
        {
          "internalType": "uint256[]",
          "name": "_ids",
          "type": "uint256[]"
        },
        {
          "internalType": "uint256[]",
          "name": "_values",
          "type": "uint256[]"
        },
        {
          "internalType": "bytes",
          "name": "_data",
          "type": "bytes"
        }
      ],
      "name": "onERC1155BatchReceived",
      "outputs": [
        {
          "internalType": "bytes4",
          "name": "",
          "type": "bytes4"
        }
      ],
      "stateMutability": "pure",
      "type": "function"
    },
    {
      "inputs": [
        {
          "internalType": "address",
          "name": "_operator",
          "type": "address"
        },
        {
          "internalType": "address",
          "name": "_from",
          "type": "address"
        },
        {
          "internalType": "uint256",
          "name": "_id",
          "type": "uint256"
        },
        {
          "internalType": "uint256",
          "name": "_value",
          "type": "uint256"
        },
        {
          "internalType": "bytes",
          "name": "_data",
          "type": "bytes"
        }
      ],
      "name": "onERC1155Received",
      "outputs": [
        {
          "internalType": "bytes4",
          "name": "",
          "type": "bytes4"
        }
      ],
      "stateMutability": "pure",
      "type": "function"
    },
    {
      "inputs": [
        {
          "internalType": "uint256",
          "name": "_tokenId",
          "type": "uint256"
        },
        {
          "internalType": "address",
          "name": "_user",
          "type": "address"
        },
        {
          "internalType": "uint256",
          "name": "_duration",
          "type": "uint256"
        }
      ],
      "name": "putOnNursery",
      "outputs": [],
      "stateMutability": "nonpayable",
      "type": "function"
    },
    {
      "inputs": [
        {
          "internalType": "address",
          "name": "_monsterNFT",
          "type": "address"
        },
        {
          "internalType": "address",
          "name": "_itemNFT",
          "type": "address"
        }
      ],
      "name": "setInterface",
      "outputs": [],
      "stateMutability": "nonpayable",
      "type": "function"
    },
    {
      "inputs": [
        {
          "internalType": "bytes4",
          "name": "interfaceId",
          "type": "bytes4"
        }
      ],
      "name": "supportsInterface",
      "outputs": [
        {
          "internalType": "bool",
          "name": "",
          "type": "bool"
        }
      ],
      "stateMutability": "view",
      "type": "function"
    }
  ],
  "bytecode": "0x608060405234801561001057600080fd5b50611d86806100206000396000f3fe60806040526004361061009c5760003560e01c80635f4ee483116100645780635f4ee483146101895780637fef38c7146101c8578063899b5191146101f1578063bc197c8114610230578063c9a220921461026d578063f23a6e61146102965761009c565b806301ffc9a7146100a157806302d8f2b5146100de5780630d7f70ff146101075780631304f6071461013057806313c066f81461016d575b600080fd5b3480156100ad57600080fd5b506100c860048036038101906100c39190611526565b6102d3565b6040516100d591906117ff565b60405180910390f35b3480156100ea57600080fd5b5061010560048036038101906101009190611350565b61034d565b005b34801561011357600080fd5b5061012e600480360381019061012991906115a1565b6103d2565b005b34801561013c57600080fd5b50610157600480360381019061015291906115a1565b610713565b60405161016491906118d5565b60405180910390f35b6101876004803603810190610182919061162c565b610898565b005b34801561019557600080fd5b506101b060048036038101906101ab919061154f565b610a81565b6040516101bf939291906119a2565b60405180910390f35b3480156101d457600080fd5b506101ef60048036038101906101ea91906115a1565b610aab565b005b3480156101fd57600080fd5b50610218600480360381019061021391906114ea565b610df2565b604051610227939291906118f0565b60405180910390f35b34801561023c57600080fd5b506102576004803603810190610252919061138c565b610e59565b604051610264919061181a565b60405180910390f35b34801561027957600080fd5b50610294600480360381019061028f91906115dd565b610e67565b005b3480156102a257600080fd5b506102bd60048036038101906102b89190611458565b6111f2565b6040516102ca919061181a565b60405180910390f35b60007f4e2312e0000000000000000000000000000000000000000000000000000000007bffffffffffffffffffffffffffffffffffffffffffffffffffffffff1916827bffffffffffffffffffffffffffffffffffffffffffffffffffffffff191614806103465750610345826111fe565b5b9050919050565b816000806101000a81548173ffffffffffffffffffffffffffffffffffffffff021916908373ffffffffffffffffffffffffffffffffffffffff16021790555080600160006101000a81548173ffffffffffffffffffffffffffffffffffffffff021916908373ffffffffffffffffffffffffffffffffffffffff1602179055505050565b600080600260008473ffffffffffffffffffffffffffffffffffffffff1673ffffffffffffffffffffffffffffffffffffffff16815260200190815260200160002090506000600260008573ffffffffffffffffffffffffffffffffffffffff1673ffffffffffffffffffffffffffffffffffffffff168152602001908152602001600020805480602002602001604051908101604052809291908181526020016000905b828210156105135783829060005260206000209060030201604051806060016040529081600082015481526020016001820160009054906101000a900473ffffffffffffffffffffffffffffffffffffffff1673ffffffffffffffffffffffffffffffffffffffff1673ffffffffffffffffffffffffffffffffffffffff16815260200160028201548152505081526020019060010190610477565b50505050905060008151905060005b81811015610591576000838281518110610565577f4e487b7100000000000000000000000000000000000000000000000000000000600052603260045260246000fd5b60200260200101516000015190508781141561057f578195505b508061058a90611b77565b9050610522565b50816001826105a09190611aab565b815181106105d7577f4e487b7100000000000000000000000000000000000000000000000000000000600052603260045260246000fd5b6020026020010151838581548110610618577f4e487b7100000000000000000000000000000000000000000000000000000000600052603260045260246000fd5b90600052602060002090600302016000820151816000015560208201518160010160006101000a81548173ffffffffffffffffffffffffffffffffffffffff021916908373ffffffffffffffffffffffffffffffffffffffff16021790555060408201518160020155905050828054806106bb577f4e487b7100000000000000000000000000000000000000000000000000000000600052603160045260246000fd5b60019003818190600052602060002090600302016000808201600090556001820160006101000a81549073ffffffffffffffffffffffffffffffffffffffff0219169055600282016000905550509055505050505050565b600080600260008473ffffffffffffffffffffffffffffffffffffffff1673ffffffffffffffffffffffffffffffffffffffff168152602001908152602001600020805480602002602001604051908101604052809291908181526020016000905b828210156108115783829060005260206000209060030201604051806060016040529081600082015481526020016001820160009054906101000a900473ffffffffffffffffffffffffffffffffffffffff1673ffffffffffffffffffffffffffffffffffffffff1673ffffffffffffffffffffffffffffffffffffffff16815260200160028201548152505081526020019060010190610775565b50505050905060008151905060005b8181101561088f576000838281518110610863577f4e487b7100000000000000000000000000000000000000000000000000000000600052603260045260246000fd5b60200260200101519050868160000151141561087d578194505b508061088890611b77565b9050610820565b50505092915050565b6000600360008581526020019081526020016000209050600060036000868152602001908152602001600020604051806060016040529081600082015481526020016001820154815260200160028201548152505090506003841115610933576040517f08c379a000000000000000000000000000000000000000000000000000000000815260040161092a90611895565b60405180910390fd5b600081602001511161097a576040517f08c379a000000000000000000000000000000000000000000000000000000000815260040161097190611835565b60405180910390fd5b83816040015161098a9190611a51565b34146109cb576040517f08c379a00000000000000000000000000000000000000000000000000000000081526004016109c290611875565b60405180910390fd5b600160009054906101000a900473ffffffffffffffffffffffffffffffffffffffff1673ffffffffffffffffffffffffffffffffffffffff1663f242432a30858460000151886040518563ffffffff1660e01b8152600401610a3094939291906117a7565b600060405180830381600087803b158015610a4a57600080fd5b505af1158015610a5e573d6000803e3d6000fd5b50505050838160200151610a729190611aab565b82600101819055505050505050565b60036020528060005260406000206000915090508060000154908060010154908060020154905083565b6000600260008373ffffffffffffffffffffffffffffffffffffffff1673ffffffffffffffffffffffffffffffffffffffff168152602001908152602001600020805480602002602001604051908101604052809291908181526020016000905b82821015610ba85783829060005260206000209060030201604051806060016040529081600082015481526020016001820160009054906101000a900473ffffffffffffffffffffffffffffffffffffffff1673ffffffffffffffffffffffffffffffffffffffff1673ffffffffffffffffffffffffffffffffffffffff16815260200160028201548152505081526020019060010190610b0c565b5050505090506000610bba8484610713565b905060008060009054906101000a900473ffffffffffffffffffffffffffffffffffffffff1673ffffffffffffffffffffffffffffffffffffffff1663c7bd6c31866040518263ffffffff1660e01b8152600401610c1891906118d5565b60206040518083038186803b158015610c3057600080fd5b505afa158015610c44573d6000803e3d6000fd5b505050506040513d601f19601f82011682018060405250810190610c689190611578565b90506000838381518110610ca5577f4e487b7100000000000000000000000000000000000000000000000000000000600052603260045260246000fd5b60200260200101516040015190506000600a82610cc29190611a51565b905060008054906101000a900473ffffffffffffffffffffffffffffffffffffffff1673ffffffffffffffffffffffffffffffffffffffff16639c1cb8bf88836040518363ffffffff1660e01b8152600401610d1f929190611979565b600060405180830381600087803b158015610d3957600080fd5b505af1158015610d4d573d6000803e3d6000fd5b5050505060008054906101000a900473ffffffffffffffffffffffffffffffffffffffff1673ffffffffffffffffffffffffffffffffffffffff166382e408138860006040518363ffffffff1660e01b8152600401610dad929190611927565b600060405180830381600087803b158015610dc757600080fd5b505af1158015610ddb573d6000803e3d6000fd5b50505050610de987876103d2565b50505050505050565b60026020528160005260406000208181548110610e0e57600080fd5b9060005260206000209060030201600091509150508060000154908060010160009054906101000a900473ffffffffffffffffffffffffffffffffffffffff16908060020154905083565b600098975050505050505050565b60008060009054906101000a900473ffffffffffffffffffffffffffffffffffffffff1673ffffffffffffffffffffffffffffffffffffffff1663c7bd6c31856040518263ffffffff1660e01b8152600401610ec391906118d5565b60206040518083038186803b158015610edb57600080fd5b505afa158015610eef573d6000803e3d6000fd5b505050506040513d601f19601f82011682018060405250810190610f139190611578565b905060008060009054906101000a900473ffffffffffffffffffffffffffffffffffffffff1673ffffffffffffffffffffffffffffffffffffffff166360e2f2fb866040518263ffffffff1660e01b8152600401610f7191906118d5565b60206040518083038186803b158015610f8957600080fd5b505afa158015610f9d573d6000803e3d6000fd5b505050506040513d601f19601f82011682018060405250810190610fc19190611578565b905060008114611006576040517f08c379a0000000000000000000000000000000000000000000000000000000008152600401610ffd906118b5565b60405180910390fd5b606482600a856110169190611a51565b61102091906119fb565b1115611061576040517f08c379a000000000000000000000000000000000000000000000000000000000815260040161105890611855565b60405180910390fd5b6000600260008673ffffffffffffffffffffffffffffffffffffffff1673ffffffffffffffffffffffffffffffffffffffff16815260200190815260200160002090508060405180606001604052808881526020018773ffffffffffffffffffffffffffffffffffffffff1681526020018681525090806001815401808255809150506001900390600052602060002090600302016000909190919091506000820151816000015560208201518160010160006101000a81548173ffffffffffffffffffffffffffffffffffffffff021916908373ffffffffffffffffffffffffffffffffffffffff16021790555060408201518160020155505060008054906101000a900473ffffffffffffffffffffffffffffffffffffffff1673ffffffffffffffffffffffffffffffffffffffff166382e408138760026040518363ffffffff1660e01b81526004016111b8929190611950565b600060405180830381600087803b1580156111d257600080fd5b505af11580156111e6573d6000803e3d6000fd5b50505050505050505050565b60009695505050505050565b60007f01ffc9a7000000000000000000000000000000000000000000000000000000007bffffffffffffffffffffffffffffffffffffffffffffffffffffffff1916827bffffffffffffffffffffffffffffffffffffffffffffffffffffffff1916149050919050565b60008135905061127781611d0b565b92915050565b60008083601f84011261128f57600080fd5b8235905067ffffffffffffffff8111156112a857600080fd5b6020830191508360208202830111156112c057600080fd5b9250929050565b6000813590506112d681611d22565b92915050565b60008083601f8401126112ee57600080fd5b8235905067ffffffffffffffff81111561130757600080fd5b60208301915083600182028301111561131f57600080fd5b9250929050565b60008135905061133581611d39565b92915050565b60008151905061134a81611d39565b92915050565b6000806040838503121561136357600080fd5b600061137185828601611268565b925050602061138285828601611268565b9150509250929050565b60008060008060008060008060a0898b0312156113a857600080fd5b60006113b68b828c01611268565b98505060206113c78b828c01611268565b975050604089013567ffffffffffffffff8111156113e457600080fd5b6113f08b828c0161127d565b9650965050606089013567ffffffffffffffff81111561140f57600080fd5b61141b8b828c0161127d565b9450945050608089013567ffffffffffffffff81111561143a57600080fd5b6114468b828c016112dc565b92509250509295985092959890939650565b60008060008060008060a0878903121561147157600080fd5b600061147f89828a01611268565b965050602061149089828a01611268565b95505060406114a189828a01611326565b94505060606114b289828a01611326565b935050608087013567ffffffffffffffff8111156114cf57600080fd5b6114db89828a016112dc565b92509250509295509295509295565b600080604083850312156114fd57600080fd5b600061150b85828601611268565b925050602061151c85828601611326565b9150509250929050565b60006020828403121561153857600080fd5b6000611546848285016112c7565b91505092915050565b60006020828403121561156157600080fd5b600061156f84828501611326565b91505092915050565b60006020828403121561158a57600080fd5b60006115988482850161133b565b91505092915050565b600080604083850312156115b457600080fd5b60006115c285828601611326565b92505060206115d385828601611268565b9150509250929050565b6000806000606084860312156115f257600080fd5b600061160086828701611326565b935050602061161186828701611268565b925050604061162286828701611326565b9150509250925092565b60008060006060848603121561164157600080fd5b600061164f86828701611326565b935050602061166086828701611326565b925050604061167186828701611268565b9150509250925092565b61168481611adf565b82525050565b61169381611af1565b82525050565b6116a281611afd565b82525050565b6116b181611b53565b82525050565b6116c081611b65565b82525050565b60006116d3600d836119ea565b91506116de82611bef565b602082019050919050565b60006116f66013836119ea565b915061170182611c18565b602082019050919050565b60006117196019836119ea565b915061172482611c41565b602082019050919050565b600061173c6000836119d9565b915061174782611c6a565b600082019050919050565b600061175f6027836119ea565b915061176a82611c6d565b604082019050919050565b60006117826027836119ea565b915061178d82611cbc565b604082019050919050565b6117a181611b49565b82525050565b600060a0820190506117bc600083018761167b565b6117c9602083018661167b565b6117d66040830185611798565b6117e36060830184611798565b81810360808301526117f48161172f565b905095945050505050565b6000602082019050611814600083018461168a565b92915050565b600060208201905061182f6000830184611699565b92915050565b6000602082019050818103600083015261184e816116c6565b9050919050565b6000602082019050818103600083015261186e816116e9565b9050919050565b6000602082019050818103600083015261188e8161170c565b9050919050565b600060208201905081810360008301526118ae81611752565b9050919050565b600060208201905081810360008301526118ce81611775565b9050919050565b60006020820190506118ea6000830184611798565b92915050565b60006060820190506119056000830186611798565b611912602083018561167b565b61191f6040830184611798565b949350505050565b600060408201905061193c6000830185611798565b61194960208301846116a8565b9392505050565b60006040820190506119656000830185611798565b61197260208301846116b7565b9392505050565b600060408201905061198e6000830185611798565b61199b6020830184611798565b9392505050565b60006060820190506119b76000830186611798565b6119c46020830185611798565b6119d16040830184611798565b949350505050565b600082825260208201905092915050565b600082825260208201905092915050565b6000611a0682611b49565b9150611a1183611b49565b9250827fffffffffffffffffffffffffffffffffffffffffffffffffffffffffffffffff03821115611a4657611a45611bc0565b5b828201905092915050565b6000611a5c82611b49565b9150611a6783611b49565b9250817fffffffffffffffffffffffffffffffffffffffffffffffffffffffffffffffff0483118215151615611aa057611a9f611bc0565b5b828202905092915050565b6000611ab682611b49565b9150611ac183611b49565b925082821015611ad457611ad3611bc0565b5b828203905092915050565b6000611aea82611b29565b9050919050565b60008115159050919050565b60007fffffffff0000000000000000000000000000000000000000000000000000000082169050919050565b600073ffffffffffffffffffffffffffffffffffffffff82169050919050565b6000819050919050565b6000611b5e82611b49565b9050919050565b6000611b7082611b49565b9050919050565b6000611b8282611b49565b91507fffffffffffffffffffffffffffffffffffffffffffffffffffffffffffffffff821415611bb557611bb4611bc0565b5b600182019050919050565b7f4e487b7100000000000000000000000000000000000000000000000000000000600052601160045260246000fd5b7f4e6f2073746f636b206c65667400000000000000000000000000000000000000600082015250565b7f52656475636520746865206475726174696f6e00000000000000000000000000600082015250565b7f57726f6e672076616c7565206f662065746865722073656e7400000000000000600082015250565b50565b7f54686572652773206f6e6c7920332073746f636b7320706572206974656d206560008201527f7665727964617900000000000000000000000000000000000000000000000000602082015250565b7f596f7572206d6f6e73746572207374696c6c20776f726b696e67206f6e20736f60008201527f6d657468696e6700000000000000000000000000000000000000000000000000602082015250565b611d1481611adf565b8114611d1f57600080fd5b50565b611d2b81611afd565b8114611d3657600080fd5b50565b611d4281611b49565b8114611d4d57600080fd5b5056fea2646970667358221220f568387156479bcd6fff067d565c95aa00d115d313930ba43f01095217e20f3464736f6c63430008040033",
  "linkReferences": {},
  "deployedLinkReferences": {}
}