{
  "_format": "hh-sol-artifact-1",
  "contractName": "Smelter",
  "sourceName": "contracts/Smelter.sol",
  "abi": [
    {
      "inputs": [
        {
          "internalType": "address",
          "name": "_user",
          "type": "address"
        }
      ],
      "name": "claimSmelt",
      "outputs": [],
      "stateMutability": "nonpayable",
      "type": "function"
    },
    {
      "inputs": [
        {
          "internalType": "address",
          "name": "_operator",
          "type": "address"
        },
        {
          "internalType": "address",
          "name": "_from",
          "type": "address"
        },
        {
          "internalType": "uint256[]",
          "name": "_ids",
          "type": "uint256[]"
        },
        {
          "internalType": "uint256[]",
          "name": "_values",
          "type": "uint256[]"
        },
        {
          "internalType": "bytes",
          "name": "_data",
          "type": "bytes"
        }
      ],
      "name": "onERC1155BatchReceived",
      "outputs": [
        {
          "internalType": "bytes4",
          "name": "",
          "type": "bytes4"
        }
      ],
      "stateMutability": "pure",
      "type": "function"
    },
    {
      "inputs": [
        {
          "internalType": "address",
          "name": "_operator",
          "type": "address"
        },
        {
          "internalType": "address",
          "name": "_from",
          "type": "address"
        },
        {
          "internalType": "uint256",
          "name": "_id",
          "type": "uint256"
        },
        {
          "internalType": "uint256",
          "name": "_value",
          "type": "uint256"
        },
        {
          "internalType": "bytes",
          "name": "_data",
          "type": "bytes"
        }
      ],
      "name": "onERC1155Received",
      "outputs": [
        {
          "internalType": "bytes4",
          "name": "",
          "type": "bytes4"
        }
      ],
      "stateMutability": "pure",
      "type": "function"
    },
    {
      "inputs": [
        {
          "internalType": "address",
          "name": "_itemNFT",
          "type": "address"
        },
        {
          "internalType": "address",
          "name": "_monsterToken",
          "type": "address"
        }
      ],
      "name": "setInterface",
      "outputs": [],
      "stateMutability": "nonpayable",
      "type": "function"
    },
    {
      "inputs": [
        {
          "internalType": "address",
          "name": "_user",
          "type": "address"
        },
        {
          "internalType": "uint256",
          "name": "_quantity",
          "type": "uint256"
        }
      ],
      "name": "smelt",
      "outputs": [],
      "stateMutability": "nonpayable",
      "type": "function"
    },
    {
      "inputs": [
        {
          "internalType": "address",
          "name": "",
          "type": "address"
        }
      ],
      "name": "smeltDetails",
      "outputs": [
        {
          "internalType": "uint256",
          "name": "quantity",
          "type": "uint256"
        },
        {
          "internalType": "uint256",
          "name": "startTime",
          "type": "uint256"
        }
      ],
      "stateMutability": "view",
      "type": "function"
    },
    {
      "inputs": [
        {
          "internalType": "bytes4",
          "name": "interfaceId",
          "type": "bytes4"
        }
      ],
      "name": "supportsInterface",
      "outputs": [
        {
          "internalType": "bool",
          "name": "",
          "type": "bool"
        }
      ],
      "stateMutability": "view",
      "type": "function"
    }
  ],
  "bytecode": "0x608060405234801561001057600080fd5b50610e73806100206000396000f3fe608060405234801561001057600080fd5b506004361061007d5760003560e01c806347f1ba581161005b57806347f1ba58146100ff578063ad1a23961461011b578063bc197c8114610137578063f23a6e61146101675761007d565b806301ffc9a71461008257806302d8f2b5146100b25780633432a7b9146100ce575b600080fd5b61009c600480360381019061009791906109a7565b610197565b6040516100a99190610b57565b60405180910390f35b6100cc60048036038101906100c791906107d1565b610211565b005b6100e860048036038101906100e391906107a8565b610296565b6040516100f6929190610bcd565b60405180910390f35b610119600480360381019061011491906107a8565b6102ba565b005b6101356004803603810190610130919061096b565b61044d565b005b610151600480360381019061014c919061080d565b61063c565b60405161015e9190610b72565b60405180910390f35b610181600480360381019061017c91906108d9565b61064a565b60405161018e9190610b72565b60405180910390f35b60007f4e2312e0000000000000000000000000000000000000000000000000000000007bffffffffffffffffffffffffffffffffffffffffffffffffffffffff1916827bffffffffffffffffffffffffffffffffffffffffffffffffffffffff1916148061020a575061020982610656565b5b9050919050565b816000806101000a81548173ffffffffffffffffffffffffffffffffffffffff021916908373ffffffffffffffffffffffffffffffffffffffff16021790555080600160006101000a81548173ffffffffffffffffffffffffffffffffffffffff021916908373ffffffffffffffffffffffffffffffffffffffff1602179055505050565b60026020528060005260406000206000915090508060000154908060010154905082565b600080600260008473ffffffffffffffffffffffffffffffffffffffff1673ffffffffffffffffffffffffffffffffffffffff16815260200190815260200160002060000154600260008573ffffffffffffffffffffffffffffffffffffffff1673ffffffffffffffffffffffffffffffffffffffff16815260200190815260200160002060010154915091506000610384836103579190610c6e565b826103629190610c18565b905060006004846103739190610c6e565b90504282106103b7576040517f08c379a00000000000000000000000000000000000000000000000000000000081526004016103ae90610b8d565b60405180910390fd5b600160009054906101000a900473ffffffffffffffffffffffffffffffffffffffff1673ffffffffffffffffffffffffffffffffffffffff166340c10f1986836040518363ffffffff1660e01b8152600401610414929190610b2e565b600060405180830381600087803b15801561042e57600080fd5b505af1158015610442573d6000803e3d6000fd5b505050505050505050565b60008060009054906101000a900473ffffffffffffffffffffffffffffffffffffffff1673ffffffffffffffffffffffffffffffffffffffff1662fdd58e8460046040518363ffffffff1660e01b81526004016104ab929190610b05565b60206040518083038186803b1580156104c357600080fd5b505afa1580156104d7573d6000803e3d6000fd5b505050506040513d601f19601f820116820180604052508101906104fb91906109d0565b1161053b576040517f08c379a000000000000000000000000000000000000000000000000000000000815260040161053290610bad565b60405180910390fd5b60008054906101000a900473ffffffffffffffffffffffffffffffffffffffff1673ffffffffffffffffffffffffffffffffffffffff1663f242432a83306004856040518563ffffffff1660e01b815260040161059b9493929190610aad565b600060405180830381600087803b1580156105b557600080fd5b505af11580156105c9573d6000803e3d6000fd5b50505050604051806040016040528082815260200142815250600260008473ffffffffffffffffffffffffffffffffffffffff1673ffffffffffffffffffffffffffffffffffffffff16815260200190815260200160002060008201518160000155602082015181600101559050505050565b600098975050505050505050565b60009695505050505050565b60007f01ffc9a7000000000000000000000000000000000000000000000000000000007bffffffffffffffffffffffffffffffffffffffffffffffffffffffff1916827bffffffffffffffffffffffffffffffffffffffffffffffffffffffff1916149050919050565b6000813590506106cf81610df8565b92915050565b60008083601f8401126106e757600080fd5b8235905067ffffffffffffffff81111561070057600080fd5b60208301915083602082028301111561071857600080fd5b9250929050565b60008135905061072e81610e0f565b92915050565b60008083601f84011261074657600080fd5b8235905067ffffffffffffffff81111561075f57600080fd5b60208301915083600182028301111561077757600080fd5b9250929050565b60008135905061078d81610e26565b92915050565b6000815190506107a281610e26565b92915050565b6000602082840312156107ba57600080fd5b60006107c8848285016106c0565b91505092915050565b600080604083850312156107e457600080fd5b60006107f2858286016106c0565b9250506020610803858286016106c0565b9150509250929050565b60008060008060008060008060a0898b03121561082957600080fd5b60006108378b828c016106c0565b98505060206108488b828c016106c0565b975050604089013567ffffffffffffffff81111561086557600080fd5b6108718b828c016106d5565b9650965050606089013567ffffffffffffffff81111561089057600080fd5b61089c8b828c016106d5565b9450945050608089013567ffffffffffffffff8111156108bb57600080fd5b6108c78b828c01610734565b92509250509295985092959890939650565b60008060008060008060a087890312156108f257600080fd5b600061090089828a016106c0565b965050602061091189828a016106c0565b955050604061092289828a0161077e565b945050606061093389828a0161077e565b935050608087013567ffffffffffffffff81111561095057600080fd5b61095c89828a01610734565b92509250509295509295509295565b6000806040838503121561097e57600080fd5b600061098c858286016106c0565b925050602061099d8582860161077e565b9150509250929050565b6000602082840312156109b957600080fd5b60006109c78482850161071f565b91505092915050565b6000602082840312156109e257600080fd5b60006109f084828501610793565b91505092915050565b610a0281610cc8565b82525050565b610a1181610cda565b82525050565b610a2081610ce6565b82525050565b610a2f81610d3c565b82525050565b6000610a42601f83610c07565b9150610a4d82610d7d565b602082019050919050565b6000610a65602883610c07565b9150610a7082610da6565b604082019050919050565b6000610a88600083610bf6565b9150610a9382610df5565b600082019050919050565b610aa781610d32565b82525050565b600060a082019050610ac260008301876109f9565b610acf60208301866109f9565b610adc6040830185610a26565b610ae96060830184610a9e565b8181036080830152610afa81610a7b565b905095945050505050565b6000604082019050610b1a60008301856109f9565b610b276020830184610a26565b9392505050565b6000604082019050610b4360008301856109f9565b610b506020830184610a9e565b9392505050565b6000602082019050610b6c6000830184610a08565b92915050565b6000602082019050610b876000830184610a17565b92915050565b60006020820190508181036000830152610ba681610a35565b9050919050565b60006020820190508181036000830152610bc681610a58565b9050919050565b6000604082019050610be26000830185610a9e565b610bef6020830184610a9e565b9392505050565b600082825260208201905092915050565b600082825260208201905092915050565b6000610c2382610d32565b9150610c2e83610d32565b9250827fffffffffffffffffffffffffffffffffffffffffffffffffffffffffffffffff03821115610c6357610c62610d4e565b5b828201905092915050565b6000610c7982610d32565b9150610c8483610d32565b9250817fffffffffffffffffffffffffffffffffffffffffffffffffffffffffffffffff0483118215151615610cbd57610cbc610d4e565b5b828202905092915050565b6000610cd382610d12565b9050919050565b60008115159050919050565b60007fffffffff0000000000000000000000000000000000000000000000000000000082169050919050565b600073ffffffffffffffffffffffffffffffffffffffff82169050919050565b6000819050919050565b6000610d4782610d32565b9050919050565b7f4e487b7100000000000000000000000000000000000000000000000000000000600052601160045260246000fd5b7f596f7572206372797374616c207374696c206265696e6720736d656c74656400600082015250565b7f596f7520646f6e27742068617665206120616e79206372797374616c20746f2060008201527f626520736d656c74000000000000000000000000000000000000000000000000602082015250565b50565b610e0181610cc8565b8114610e0c57600080fd5b50565b610e1881610ce6565b8114610e2357600080fd5b50565b610e2f81610d32565b8114610e3a57600080fd5b5056fea2646970667358221220f4ab83799ae84de59d8e591891b2276223a18276138a1c927305dc47981264ed64736f6c63430008040033",
  "linkReferences": {},
  "deployedLinkReferences": {}
}