{
  "_format": "hh-sol-artifact-1",
  "contractName": "Trader",
  "sourceName": "contracts/Trader.sol",
  "abi": [
    {
      "inputs": [],
      "stateMutability": "nonpayable",
      "type": "constructor"
    },
    {
      "inputs": [
        {
          "internalType": "uint256[]",
          "name": "_item",
          "type": "uint256[]"
        },
        {
          "internalType": "uint256[]",
          "name": "_quantity",
          "type": "uint256[]"
        },
        {
          "internalType": "address",
          "name": "_user",
          "type": "address"
        }
      ],
      "name": "buyItem",
      "outputs": [],
      "stateMutability": "payable",
      "type": "function"
    },
    {
      "inputs": [
        {
          "internalType": "uint256",
          "name": "",
          "type": "uint256"
        }
      ],
      "name": "dailyShop",
      "outputs": [
        {
          "internalType": "uint256",
          "name": "item",
          "type": "uint256"
        },
        {
          "internalType": "uint256",
          "name": "quantity",
          "type": "uint256"
        },
        {
          "internalType": "uint256",
          "name": "price",
          "type": "uint256"
        }
      ],
      "stateMutability": "view",
      "type": "function"
    },
    {
      "inputs": [],
      "name": "getDailyShop",
      "outputs": [
        {
          "components": [
            {
              "internalType": "uint256",
              "name": "item",
              "type": "uint256"
            },
            {
              "internalType": "uint256",
              "name": "quantity",
              "type": "uint256"
            },
            {
              "internalType": "uint256",
              "name": "price",
              "type": "uint256"
            }
          ],
          "internalType": "struct Trader.Shop[]",
          "name": "",
          "type": "tuple[]"
        }
      ],
      "stateMutability": "view",
      "type": "function"
    },
    {
      "inputs": [],
      "name": "itemNftInterface",
      "outputs": [
        {
          "internalType": "contract IERC1155",
          "name": "",
          "type": "address"
        }
      ],
      "stateMutability": "view",
      "type": "function"
    },
    {
      "inputs": [
        {
          "internalType": "address",
          "name": "",
          "type": "address"
        },
        {
          "internalType": "address",
          "name": "",
          "type": "address"
        },
        {
          "internalType": "uint256[]",
          "name": "",
          "type": "uint256[]"
        },
        {
          "internalType": "uint256[]",
          "name": "",
          "type": "uint256[]"
        },
        {
          "internalType": "bytes",
          "name": "",
          "type": "bytes"
        }
      ],
      "name": "onERC1155BatchReceived",
      "outputs": [
        {
          "internalType": "bytes4",
          "name": "",
          "type": "bytes4"
        }
      ],
      "stateMutability": "nonpayable",
      "type": "function"
    },
    {
      "inputs": [
        {
          "internalType": "address",
          "name": "",
          "type": "address"
        },
        {
          "internalType": "address",
          "name": "",
          "type": "address"
        },
        {
          "internalType": "uint256",
          "name": "",
          "type": "uint256"
        },
        {
          "internalType": "uint256",
          "name": "",
          "type": "uint256"
        },
        {
          "internalType": "bytes",
          "name": "",
          "type": "bytes"
        }
      ],
      "name": "onERC1155Received",
      "outputs": [
        {
          "internalType": "bytes4",
          "name": "",
          "type": "bytes4"
        }
      ],
      "stateMutability": "nonpayable",
      "type": "function"
    },
    {
      "inputs": [
        {
          "internalType": "address",
          "name": "_items",
          "type": "address"
        },
        {
          "internalType": "address",
          "name": "_monsterGame",
          "type": "address"
        }
      ],
      "name": "setInterface",
      "outputs": [],
      "stateMutability": "nonpayable",
      "type": "function"
    },
    {
      "inputs": [
        {
          "internalType": "address",
          "name": "",
          "type": "address"
        },
        {
          "internalType": "uint256",
          "name": "",
          "type": "uint256"
        }
      ],
      "name": "shopDailyLimit",
      "outputs": [
        {
          "internalType": "uint256",
          "name": "item",
          "type": "uint256"
        },
        {
          "internalType": "uint256",
          "name": "quantity",
          "type": "uint256"
        }
      ],
      "stateMutability": "view",
      "type": "function"
    },
    {
      "inputs": [
        {
          "internalType": "bytes4",
          "name": "interfaceId",
          "type": "bytes4"
        }
      ],
      "name": "supportsInterface",
      "outputs": [
        {
          "internalType": "bool",
          "name": "",
          "type": "bool"
        }
      ],
      "stateMutability": "view",
      "type": "function"
    },
    {
      "inputs": [
        {
          "internalType": "address",
          "name": "",
          "type": "address"
        },
        {
          "internalType": "uint256",
          "name": "",
          "type": "uint256"
        }
      ],
      "name": "tradeDailyLimit",
      "outputs": [
        {
          "internalType": "uint256",
          "name": "tradeId",
          "type": "uint256"
        },
        {
          "internalType": "uint256",
          "name": "quantity",
          "type": "uint256"
        }
      ],
      "stateMutability": "view",
      "type": "function"
    },
    {
      "inputs": [
        {
          "internalType": "uint256",
          "name": "_trade",
          "type": "uint256"
        },
        {
          "internalType": "uint256",
          "name": "_quantity",
          "type": "uint256"
        },
        {
          "internalType": "address",
          "name": "_user",
          "type": "address"
        }
      ],
      "name": "tradeItem",
      "outputs": [],
      "stateMutability": "nonpayable",
      "type": "function"
    },
    {
      "inputs": [
        {
          "internalType": "uint256",
          "name": "",
          "type": "uint256"
        }
      ],
      "name": "traderTrades",
      "outputs": [
        {
          "internalType": "uint256",
          "name": "itemTrade",
          "type": "uint256"
        },
        {
          "internalType": "uint256",
          "name": "quantityTrade",
          "type": "uint256"
        },
        {
          "internalType": "uint256",
          "name": "itemReceived",
          "type": "uint256"
        },
        {
          "internalType": "uint256",
          "name": "quantityReceived",
          "type": "uint256"
        }
      ],
      "stateMutability": "view",
      "type": "function"
    },
    {
      "stateMutability": "payable",
      "type": "receive"
    }
  ],
  "bytecode": "0x608060405234801561001057600080fd5b50600360405180606001604052806000815260200160038152602001655af3107a400081525090806001815401808255809150506001900390600052602060002090600302016000909190919091506000820151816000015560208201518160010155604082015181600201555050600360405180606001604052806001815260200160038152602001655af3107a40008152509080600181540180825580915050600190039060005260206000209060030201600090919091909150600082015181600001556020820151816001015560408201518160020155505060036040518060600160405280600281526020016003815260200165b5e620f4800081525090806001815401808255809150506001900390600052602060002090600302016000909190919091506000820151816000015560208201518160010155604082015181600201555050604051806080016040528060008152602001600581526020016002815260200160018152506004600080815260200190815260200160002060008201518160000155602082015181600101556040820151816002015560608201518160030155905050604051806080016040528060008152602001603281526020016003815260200160018152506004600060018152602001908152602001600020600082015181600001556020820151816001015560408201518160020155606082015181600301559050506040518060800160405280600181526020016005815260200160008152602001601e815250600460006002815260200190815260200160002060008201518160000155602082015181600101556040820151816002015560608201518160030155905050612331806102956000396000f3fe6080604052600436106100ab5760003560e01c806385c8383e1161006457806385c8383e146101ee578063a095d3461461022c578063bc197c8114610248578063cc2fe61014610285578063f0c86c5c146102c5578063f23a6e61146102f0576100b2565b806301ffc9a7146100b7578063020af4e9146100f457806302d8f2b5146101335780631a8324e91461015c57806349443a05146101855780634dc7eb33146101c3576100b2565b366100b257005b600080fd5b3480156100c357600080fd5b506100de60048036038101906100d991906118ad565b61032d565b6040516100eb9190611cd6565b60405180910390f35b34801561010057600080fd5b5061011b600480360381019061011691906118d6565b6103a7565b60405161012a93929190611df0565b60405180910390f35b34801561013f57600080fd5b5061015a6004803603810190610155919061165e565b6103e1565b005b34801561016857600080fd5b50610183600480360381019061017e9190611928565b6104a7565b005b34801561019157600080fd5b506101ac60048036038101906101a791906117e8565b61098e565b6040516101ba929190611dc7565b60405180910390f35b3480156101cf57600080fd5b506101d86109cf565b6040516101e59190611cb4565b60405180910390f35b3480156101fa57600080fd5b50610215600480360381019061021091906117e8565b610a4c565b604051610223929190611dc7565b60405180910390f35b61024660048036038101906102419190611824565b610a8d565b005b34801561025457600080fd5b5061026f600480360381019061026a919061169a565b610f42565b60405161027c9190611cf1565b60405180910390f35b34801561029157600080fd5b506102ac60048036038101906102a791906118d6565b610f57565b6040516102bc9493929190611e27565b60405180910390f35b3480156102d157600080fd5b506102da610f87565b6040516102e79190611d0c565b60405180910390f35b3480156102fc57600080fd5b5061031760048036038101906103129190611759565b610fad565b6040516103249190611cf1565b60405180910390f35b60007f4e2312e0000000000000000000000000000000000000000000000000000000007bffffffffffffffffffffffffffffffffffffffffffffffffffffffff1916827bffffffffffffffffffffffffffffffffffffffffffffffffffffffff191614806103a0575061039f82610fc2565b5b9050919050565b600381815481106103b757600080fd5b90600052602060002090600302016000915090508060000154908060010154908060020154905083565b816000806101000a81548173ffffffffffffffffffffffffffffffffffffffff021916908373ffffffffffffffffffffffffffffffffffffffff16021790555080600160006101000a81548173ffffffffffffffffffffffffffffffffffffffff021916908373ffffffffffffffffffffffffffffffffffffffff16021790555081600260006101000a81548173ffffffffffffffffffffffffffffffffffffffff021916908373ffffffffffffffffffffffffffffffffffffffff1602179055505050565b60058211156104eb576040517f08c379a00000000000000000000000000000000000000000000000000000000081526004016104e290611d47565b60405180910390fd5b600660008273ffffffffffffffffffffffffffffffffffffffff1673ffffffffffffffffffffffffffffffffffffffff168152602001908152602001600020604051806040016040528085815260200160008152509080600181540180825580915050600190039060005260206000209060020201600090919091909150600082015181600001556020820151816001015550506000600660008373ffffffffffffffffffffffffffffffffffffffff1673ffffffffffffffffffffffffffffffffffffffff16815260200190815260200160002090506000600460008681526020019081526020016000206040518060800160405290816000820154815260200160018201548152602001600282015481526020016003820154815250509050600084826020015161061e9190611fb0565b905060008583606001516106329190611fb0565b9050600584888154811061066f577f4e487b7100000000000000000000000000000000000000000000000000000000600052603260045260246000fd5b90600052602060002090600202016001015411156106c2576040517f08c379a00000000000000000000000000000000000000000000000000000000081526004016106b990611da7565b60405180910390fd5b8260200151600260009054906101000a900473ffffffffffffffffffffffffffffffffffffffff1673ffffffffffffffffffffffffffffffffffffffff1662fdd58e8786600001516040518363ffffffff1660e01b8152600401610727929190611c54565b60206040518083038186803b15801561073f57600080fd5b505afa158015610753573d6000803e3d6000fd5b505050506040513d601f19601f8201168201806040525081019061077791906118ff565b116107b7576040517f08c379a00000000000000000000000000000000000000000000000000000000081526004016107ae90611d67565b60405180910390fd5b600260009054906101000a900473ffffffffffffffffffffffffffffffffffffffff1673ffffffffffffffffffffffffffffffffffffffff1663f242432a86308660000151866040518563ffffffff1660e01b815260040161081c9493929190611bb3565b600060405180830381600087803b15801561083657600080fd5b505af115801561084a573d6000803e3d6000fd5b5050505060008054906101000a900473ffffffffffffffffffffffffffffffffffffffff1673ffffffffffffffffffffffffffffffffffffffff1663ea59796a868560400151846040518463ffffffff1660e01b81526004016108af93929190611c7d565b600060405180830381600087803b1580156108c957600080fd5b505af11580156108dd573d6000803e3d6000fd5b505050508584888154811061091b577f4e487b7100000000000000000000000000000000000000000000000000000000600052603260045260246000fd5b9060005260206000209060020201600101546109379190611f5a565b848881548110610970577f4e487b7100000000000000000000000000000000000000000000000000000000600052603260045260246000fd5b90600052602060002090600202016001018190555050505050505050565b600560205281600052604060002081815481106109aa57600080fd5b9060005260206000209060020201600091509150508060000154908060010154905082565b60606003805480602002602001604051908101604052809291908181526020016000905b82821015610a4357838290600052602060002090600302016040518060600160405290816000820154815260200160018201548152602001600282015481525050815260200190600101906109f3565b50505050905090565b60066020528160005260406000208181548110610a6857600080fd5b9060005260206000209060020201600091509150508060000154908060010154905082565b8282600082829050905060005b81811015610b36576003848483818110610add577f4e487b7100000000000000000000000000000000000000000000000000000000600052603260045260246000fd5b905060200201351115610b25576040517f08c379a0000000000000000000000000000000000000000000000000000000008152600401610b1c90611d87565b60405180910390fd5b80610b2f906120e2565b9050610a9a565b506000600560008673ffffffffffffffffffffffffffffffffffffffff1673ffffffffffffffffffffffffffffffffffffffff16815260200190815260200160002090506000600560008773ffffffffffffffffffffffffffffffffffffffff1673ffffffffffffffffffffffffffffffffffffffff168152602001908152602001600020805480602002602001604051908101604052809291908181526020016000905b82821015610c2157838290600052602060002090600202016040518060400160405290816000820154815260200160018201548152505081526020019060010190610bdb565b5050505090506000610cb6878c8c80806020026020016040519081016040528093929190818152602001838360200280828437600081840152601f19601f820116905080830192505050505050508b8b80806020026020016040519081016040528093929190818152602001838360200280828437600081840152601f19601f8201169050808301925050505050505061102c565b9050600080835114905060008a8a905090508115610dcf5760005b81811015610dc95760008e8e83818110610d14577f4e487b7100000000000000000000000000000000000000000000000000000000600052603260045260246000fd5b90506020020135905060008d8d84818110610d58577f4e487b7100000000000000000000000000000000000000000000000000000000600052603260045260246000fd5b90506020020135905087604051806040016040528084815260200183815250908060018154018082558091505060019003906000526020600020906002020160009091909190915060008201518160000155602082015181600101555050505080610dc2906120e2565b9050610cd1565b50610e5d565b610e5c898e8e80806020026020016040519081016040528093929190818152602001838360200280828437600081840152601f19601f820116905080830192505050505050508d8d80806020026020016040519081016040528093929190818152602001838360200280828437600081840152601f19601f8201169050808301925050505050505061115b565b5b82341015610ea0576040517f08c379a0000000000000000000000000000000000000000000000000000000008152600401610e9790611d27565b60405180910390fd5b60008054906101000a900473ffffffffffffffffffffffffffffffffffffffff1673ffffffffffffffffffffffffffffffffffffffff1663e3fd44ee8a8f8f8f8f6040518663ffffffff1660e01b8152600401610f01959493929190611c0b565b600060405180830381600087803b158015610f1b57600080fd5b505af1158015610f2f573d6000803e3d6000fd5b5050505050505050505050505050505050565b600063bc197c8160e01b905095945050505050565b60046020528060005260406000206000915090508060000154908060010154908060020154908060030154905084565b600260009054906101000a900473ffffffffffffffffffffffffffffffffffffffff1681565b600063f23a6e6160e01b905095945050505050565b60007f01ffc9a7000000000000000000000000000000000000000000000000000000007bffffffffffffffffffffffffffffffffffffffffffffffffffffffff1916827bffffffffffffffffffffffffffffffffffffffffffffffffffffffff1916149050919050565b600080835190506000805b8281101561114e57600061108a87838151811061107d577f4e487b7100000000000000000000000000000000000000000000000000000000600052603260045260246000fd5b6020026020010151611437565b905060008683815181106110c7577f4e487b7100000000000000000000000000000000000000000000000000000000600052603260045260246000fd5b6020026020010151905060006003838154811061110d577f4e487b7100000000000000000000000000000000000000000000000000000000600052603260045260246000fd5b9060005260206000209060030201600201549050818161112d9190611fb0565b856111389190611f5a565b945050505080611147906120e2565b9050611037565b5080925050509392505050565b6000825190506000600560008673ffffffffffffffffffffffffffffffffffffffff1673ffffffffffffffffffffffffffffffffffffffff16815260200190815260200160002090506000600560008773ffffffffffffffffffffffffffffffffffffffff1673ffffffffffffffffffffffffffffffffffffffff168152602001908152602001600020805480602002602001604051908101604052809291908181526020016000905b8282101561124b57838290600052602060002090600202016040518060400160405290816000820154815260200160018201548152505081526020019060010190611205565b50505050905060005b8381101561142e5760006112a787838151811061129a577f4e487b7100000000000000000000000000000000000000000000000000000000600052603260045260246000fd5b6020026020010151611437565b905060008382815181106112e4577f4e487b7100000000000000000000000000000000000000000000000000000000600052603260045260246000fd5b602002602001015160200151905060038188858151811061132e577f4e487b7100000000000000000000000000000000000000000000000000000000600052603260045260246000fd5b60200260200101516113409190611f5a565b1115611381576040517f08c379a000000000000000000000000000000000000000000000000000000000815260040161137890611da7565b60405180910390fd5b8683815181106113ba577f4e487b7100000000000000000000000000000000000000000000000000000000600052603260045260246000fd5b6020026020010151816113cd9190611f5a565b858381548110611406577f4e487b7100000000000000000000000000000000000000000000000000000000600052603260045260246000fd5b906000526020600020906002020160010181905550505080611427906120e2565b9050611254565b50505050505050565b600080600380549050905060005b818110156114bb57600060038281548110611489577f4e487b7100000000000000000000000000000000000000000000000000000000600052603260045260246000fd5b9060005260206000209060030201600001549050848114156114a9578193505b50806114b4906120e2565b9050611445565b5050919050565b60006114d56114d084611e91565b611e6c565b905080838252602082019050828560208602820111156114f457600080fd5b60005b85811015611524578161150a8882611634565b8452602084019350602083019250506001810190506114f7565b5050509392505050565b600061154161153c84611ebd565b611e6c565b90508281526020810184848401111561155957600080fd5b6115648482856120a2565b509392505050565b60008135905061157b816122b6565b92915050565b60008083601f84011261159357600080fd5b8235905067ffffffffffffffff8111156115ac57600080fd5b6020830191508360208202830111156115c457600080fd5b9250929050565b600082601f8301126115dc57600080fd5b81356115ec8482602086016114c2565b91505092915050565b600081359050611604816122cd565b92915050565b600082601f83011261161b57600080fd5b813561162b84826020860161152e565b91505092915050565b600081359050611643816122e4565b92915050565b600081519050611658816122e4565b92915050565b6000806040838503121561167157600080fd5b600061167f8582860161156c565b92505060206116908582860161156c565b9150509250929050565b600080600080600060a086880312156116b257600080fd5b60006116c08882890161156c565b95505060206116d18882890161156c565b945050604086013567ffffffffffffffff8111156116ee57600080fd5b6116fa888289016115cb565b935050606086013567ffffffffffffffff81111561171757600080fd5b611723888289016115cb565b925050608086013567ffffffffffffffff81111561174057600080fd5b61174c8882890161160a565b9150509295509295909350565b600080600080600060a0868803121561177157600080fd5b600061177f8882890161156c565b95505060206117908882890161156c565b94505060406117a188828901611634565b93505060606117b288828901611634565b925050608086013567ffffffffffffffff8111156117cf57600080fd5b6117db8882890161160a565b9150509295509295909350565b600080604083850312156117fb57600080fd5b60006118098582860161156c565b925050602061181a85828601611634565b9150509250929050565b60008060008060006060868803121561183c57600080fd5b600086013567ffffffffffffffff81111561185657600080fd5b61186288828901611581565b9550955050602086013567ffffffffffffffff81111561188157600080fd5b61188d88828901611581565b935093505060406118a08882890161156c565b9150509295509295909350565b6000602082840312156118bf57600080fd5b60006118cd848285016115f5565b91505092915050565b6000602082840312156118e857600080fd5b60006118f684828501611634565b91505092915050565b60006020828403121561191157600080fd5b600061191f84828501611649565b91505092915050565b60008060006060848603121561193d57600080fd5b600061194b86828701611634565b935050602061195c86828701611634565b925050604061196d8682870161156c565b9150509250925092565b60006119838383611b53565b60608301905092915050565b6119988161200a565b82525050565b60006119a982611efe565b6119b38185611f16565b93506119be83611eee565b8060005b838110156119ef5781516119d68882611977565b97506119e183611f09565b9250506001810190506119c2565b5085935050505092915050565b6000611a088385611f27565b93507f07ffffffffffffffffffffffffffffffffffffffffffffffffffffffffffffff831115611a3757600080fd5b602083029250611a488385846120a2565b82840190509392505050565b611a5d8161201c565b82525050565b611a6c81612028565b82525050565b611a7b8161207e565b82525050565b6000611a8e601983611f49565b9150611a998261219a565b602082019050919050565b6000611ab1602883611f49565b9150611abc826121c3565b604082019050919050565b6000611ad4601783611f49565b9150611adf82612212565b602082019050919050565b6000611af7600083611f38565b9150611b028261223b565b600082019050919050565b6000611b1a602783611f49565b9150611b258261223e565b604082019050919050565b6000611b3d601283611f49565b9150611b488261228d565b602082019050919050565b606082016000820151611b696000850182611b95565b506020820151611b7c6020850182611b95565b506040820151611b8f6040850182611b95565b50505050565b611b9e81612074565b82525050565b611bad81612074565b82525050565b600060a082019050611bc8600083018761198f565b611bd5602083018661198f565b611be26040830185611ba4565b611bef6060830184611ba4565b8181036080830152611c0081611aea565b905095945050505050565b6000606082019050611c20600083018861198f565b8181036020830152611c338186886119fc565b90508181036040830152611c488184866119fc565b90509695505050505050565b6000604082019050611c69600083018561198f565b611c766020830184611ba4565b9392505050565b6000606082019050611c92600083018661198f565b611c9f6020830185611ba4565b611cac6040830184611ba4565b949350505050565b60006020820190508181036000830152611cce818461199e565b905092915050565b6000602082019050611ceb6000830184611a54565b92915050565b6000602082019050611d066000830184611a63565b92915050565b6000602082019050611d216000830184611a72565b92915050565b60006020820190508181036000830152611d4081611a81565b9050919050565b60006020820190508181036000830152611d6081611aa4565b9050919050565b60006020820190508181036000830152611d8081611ac7565b9050919050565b60006020820190508181036000830152611da081611b0d565b9050919050565b60006020820190508181036000830152611dc081611b30565b9050919050565b6000604082019050611ddc6000830185611ba4565b611de96020830184611ba4565b9392505050565b6000606082019050611e056000830186611ba4565b611e126020830185611ba4565b611e1f6040830184611ba4565b949350505050565b6000608082019050611e3c6000830187611ba4565b611e496020830186611ba4565b611e566040830185611ba4565b611e636060830184611ba4565b95945050505050565b6000611e76611e87565b9050611e8282826120b1565b919050565b6000604051905090565b600067ffffffffffffffff821115611eac57611eab61215a565b5b602082029050602081019050919050565b600067ffffffffffffffff821115611ed857611ed761215a565b5b611ee182612189565b9050602081019050919050565b6000819050602082019050919050565b600081519050919050565b6000602082019050919050565b600082825260208201905092915050565b600082825260208201905092915050565b600082825260208201905092915050565b600082825260208201905092915050565b6000611f6582612074565b9150611f7083612074565b9250827fffffffffffffffffffffffffffffffffffffffffffffffffffffffffffffffff03821115611fa557611fa461212b565b5b828201905092915050565b6000611fbb82612074565b9150611fc683612074565b9250817fffffffffffffffffffffffffffffffffffffffffffffffffffffffffffffffff0483118215151615611fff57611ffe61212b565b5b828202905092915050565b600061201582612054565b9050919050565b60008115159050919050565b60007fffffffff0000000000000000000000000000000000000000000000000000000082169050919050565b600073ffffffffffffffffffffffffffffffffffffffff82169050919050565b6000819050919050565b600061208982612090565b9050919050565b600061209b82612054565b9050919050565b82818337600083830152505050565b6120ba82612189565b810181811067ffffffffffffffff821117156120d9576120d861215a565b5b80604052505050565b60006120ed82612074565b91507fffffffffffffffffffffffffffffffffffffffffffffffffffffffffffffffff8214156121205761211f61212b565b5b600182019050919050565b7f4e487b7100000000000000000000000000000000000000000000000000000000600052601160045260246000fd5b7f4e487b7100000000000000000000000000000000000000000000000000000000600052604160045260246000fd5b6000601f19601f8301169050919050565b7f57726f6e672076616c7565206f662065746865722073656e7400000000000000600082015250565b7f54686572652773206f6e6c7920352073746f636b73207065722074726164652060008201527f6576657279646179000000000000000000000000000000000000000000000000602082015250565b7f4e6f7420656e6f756768206974656d73206e6565646564000000000000000000600082015250565b50565b7f54686572652773206f6e6c7920332073746f636b7320706572206974656d206560008201527f7665727964617900000000000000000000000000000000000000000000000000602082015250565b7f596f752068697420796f7572206c696d69740000000000000000000000000000600082015250565b6122bf8161200a565b81146122ca57600080fd5b50565b6122d681612028565b81146122e157600080fd5b50565b6122ed81612074565b81146122f857600080fd5b5056fea2646970667358221220d3202316848238a66f383e8008945ff061cf0461cac57eacde618a66f0346d8e64736f6c63430008040033",
  "linkReferences": {},
  "deployedLinkReferences": {}
}