{
  "_format": "hh-sol-artifact-1",
  "contractName": "Trader",
  "sourceName": "contracts/Trader.sol",
  "abi": [
    {
      "inputs": [],
      "stateMutability": "nonpayable",
      "type": "constructor"
    },
    {
      "inputs": [
        {
          "internalType": "uint256[]",
          "name": "_item",
          "type": "uint256[]"
        },
        {
          "internalType": "uint256[]",
          "name": "_quantity",
          "type": "uint256[]"
        },
        {
          "internalType": "address",
          "name": "_user",
          "type": "address"
        }
      ],
      "name": "buyItem",
      "outputs": [],
      "stateMutability": "payable",
      "type": "function"
    },
    {
      "inputs": [
        {
          "internalType": "uint256",
          "name": "",
          "type": "uint256"
        }
      ],
      "name": "dailyShop",
      "outputs": [
        {
          "internalType": "uint256",
          "name": "item",
          "type": "uint256"
        },
        {
          "internalType": "uint256",
          "name": "quantity",
          "type": "uint256"
        },
        {
          "internalType": "uint256",
          "name": "price",
          "type": "uint256"
        }
      ],
      "stateMutability": "view",
      "type": "function"
    },
    {
      "inputs": [],
      "name": "getDailyShop",
      "outputs": [
        {
          "components": [
            {
              "internalType": "uint256",
              "name": "item",
              "type": "uint256"
            },
            {
              "internalType": "uint256",
              "name": "quantity",
              "type": "uint256"
            },
            {
              "internalType": "uint256",
              "name": "price",
              "type": "uint256"
            }
          ],
          "internalType": "struct Trader.Shop[]",
          "name": "",
          "type": "tuple[]"
        }
      ],
      "stateMutability": "view",
      "type": "function"
    },
    {
      "inputs": [
        {
          "internalType": "address",
          "name": "_operator",
          "type": "address"
        },
        {
          "internalType": "address",
          "name": "_from",
          "type": "address"
        },
        {
          "internalType": "uint256[]",
          "name": "_ids",
          "type": "uint256[]"
        },
        {
          "internalType": "uint256[]",
          "name": "_values",
          "type": "uint256[]"
        },
        {
          "internalType": "bytes",
          "name": "_data",
          "type": "bytes"
        }
      ],
      "name": "onERC1155BatchReceived",
      "outputs": [
        {
          "internalType": "bytes4",
          "name": "",
          "type": "bytes4"
        }
      ],
      "stateMutability": "pure",
      "type": "function"
    },
    {
      "inputs": [
        {
          "internalType": "address",
          "name": "_operator",
          "type": "address"
        },
        {
          "internalType": "address",
          "name": "_from",
          "type": "address"
        },
        {
          "internalType": "uint256",
          "name": "_id",
          "type": "uint256"
        },
        {
          "internalType": "uint256",
          "name": "_value",
          "type": "uint256"
        },
        {
          "internalType": "bytes",
          "name": "_data",
          "type": "bytes"
        }
      ],
      "name": "onERC1155Received",
      "outputs": [
        {
          "internalType": "bytes4",
          "name": "",
          "type": "bytes4"
        }
      ],
      "stateMutability": "pure",
      "type": "function"
    },
    {
      "inputs": [
        {
          "internalType": "address",
          "name": "_items",
          "type": "address"
        },
        {
          "internalType": "address",
          "name": "_monsterGame",
          "type": "address"
        }
      ],
      "name": "setInterface",
      "outputs": [],
      "stateMutability": "nonpayable",
      "type": "function"
    },
    {
      "inputs": [
        {
          "internalType": "address",
          "name": "",
          "type": "address"
        },
        {
          "internalType": "uint256",
          "name": "",
          "type": "uint256"
        }
      ],
      "name": "shopDailyLimit",
      "outputs": [
        {
          "internalType": "uint256",
          "name": "item",
          "type": "uint256"
        },
        {
          "internalType": "uint256",
          "name": "quantity",
          "type": "uint256"
        }
      ],
      "stateMutability": "view",
      "type": "function"
    },
    {
      "inputs": [
        {
          "internalType": "bytes4",
          "name": "interfaceId",
          "type": "bytes4"
        }
      ],
      "name": "supportsInterface",
      "outputs": [
        {
          "internalType": "bool",
          "name": "",
          "type": "bool"
        }
      ],
      "stateMutability": "view",
      "type": "function"
    },
    {
      "inputs": [
        {
          "internalType": "address",
          "name": "",
          "type": "address"
        },
        {
          "internalType": "uint256",
          "name": "",
          "type": "uint256"
        }
      ],
      "name": "tradeDailyLimit",
      "outputs": [
        {
          "internalType": "uint256",
          "name": "tradeId",
          "type": "uint256"
        },
        {
          "internalType": "uint256",
          "name": "quantity",
          "type": "uint256"
        }
      ],
      "stateMutability": "view",
      "type": "function"
    },
    {
      "inputs": [
        {
          "internalType": "uint256",
          "name": "_trade",
          "type": "uint256"
        },
        {
          "internalType": "uint256",
          "name": "_quantity",
          "type": "uint256"
        },
        {
          "internalType": "address",
          "name": "_user",
          "type": "address"
        }
      ],
      "name": "tradeItem",
      "outputs": [],
      "stateMutability": "payable",
      "type": "function"
    },
    {
      "inputs": [
        {
          "internalType": "uint256",
          "name": "",
          "type": "uint256"
        }
      ],
      "name": "traderTrades",
      "outputs": [
        {
          "internalType": "uint256",
          "name": "itemTrade",
          "type": "uint256"
        },
        {
          "internalType": "uint256",
          "name": "quantityTrade",
          "type": "uint256"
        },
        {
          "internalType": "uint256",
          "name": "itemReceived",
          "type": "uint256"
        },
        {
          "internalType": "uint256",
          "name": "quantityReceived",
          "type": "uint256"
        }
      ],
      "stateMutability": "view",
      "type": "function"
    },
    {
      "stateMutability": "payable",
      "type": "receive"
    }
  ],
  "bytecode": "0x608060405234801561001057600080fd5b50600360405180606001604052806000815260200160038152602001655af3107a400081525090806001815401808255809150506001900390600052602060002090600302016000909190919091506000820151816000015560208201518160010155604082015181600201555050600360405180606001604052806001815260200160038152602001655af3107a40008152509080600181540180825580915050600190039060005260206000209060030201600090919091909150600082015181600001556020820151816001015560408201518160020155505060036040518060600160405280600281526020016003815260200165b5e620f4800081525090806001815401808255809150506001900390600052602060002090600302016000909190919091506000820151816000015560208201518160010155604082015181600201555050604051806080016040528060008152602001601e81526020016002815260200160018152506004600080815260200190815260200160002060008201518160000155602082015181600101556040820151816002015560608201518160030155905050604051806080016040528060008152602001603281526020016003815260200160018152506004600060018152602001908152602001600020600082015181600001556020820151816001015560408201518160020155606082015181600301559050506040518060800160405280600181526020016005815260200160008152602001601e815250600460006002815260200190815260200160002060008201518160000155602082015181600101556040820151816002015560608201518160030155905050612267806102956000396000f3fe6080604052600436106100a05760003560e01c80634dc7eb33116100645780634dc7eb33146101ab57806385c8383e146101d6578063a095d34614610214578063bc197c8114610230578063cc2fe6101461026d578063f23a6e61146102ad576100a7565b806301ffc9a7146100ac578063020af4e9146100e957806302d8f2b5146101285780631a8324e91461015157806349443a051461016d576100a7565b366100a757005b600080fd5b3480156100b857600080fd5b506100d360048036038101906100ce91906118b5565b6102ea565b6040516100e09190611d18565b60405180910390f35b3480156100f557600080fd5b50610110600480360381019061010b91906118de565b610364565b60405161011f93929190611e17565b60405180910390f35b34801561013457600080fd5b5061014f600480360381019061014a9190611656565b61039e565b005b61016b60048036038101906101669190611930565b610464565b005b34801561017957600080fd5b50610194600480360381019061018f91906117f0565b610929565b6040516101a2929190611dee565b60405180910390f35b3480156101b757600080fd5b506101c061096a565b6040516101cd9190611cad565b60405180910390f35b3480156101e257600080fd5b506101fd60048036038101906101f891906117f0565b6109e7565b60405161020b929190611dee565b60405180910390f35b61022e6004803603810190610229919061182c565b610a28565b005b34801561023c57600080fd5b5061025760048036038101906102529190611692565b610f72565b6040516102649190611d33565b60405180910390f35b34801561027957600080fd5b50610294600480360381019061028f91906118de565b610f80565b6040516102a49493929190611e4e565b60405180910390f35b3480156102b957600080fd5b506102d460048036038101906102cf919061175e565b610fb0565b6040516102e19190611d33565b60405180910390f35b60007f4e2312e0000000000000000000000000000000000000000000000000000000007bffffffffffffffffffffffffffffffffffffffffffffffffffffffff1916827bffffffffffffffffffffffffffffffffffffffffffffffffffffffff1916148061035d575061035c82610fbc565b5b9050919050565b6003818154811061037457600080fd5b90600052602060002090600302016000915090508060000154908060010154908060020154905083565b816000806101000a81548173ffffffffffffffffffffffffffffffffffffffff021916908373ffffffffffffffffffffffffffffffffffffffff16021790555080600160006101000a81548173ffffffffffffffffffffffffffffffffffffffff021916908373ffffffffffffffffffffffffffffffffffffffff16021790555081600260006101000a81548173ffffffffffffffffffffffffffffffffffffffff021916908373ffffffffffffffffffffffffffffffffffffffff1602179055505050565b60058211156104a8576040517f08c379a000000000000000000000000000000000000000000000000000000000815260040161049f90611d8e565b60405180910390fd5b600660008273ffffffffffffffffffffffffffffffffffffffff1673ffffffffffffffffffffffffffffffffffffffff168152602001908152602001600020604051806040016040528085815260200160008152509080600181540180825580915050600190039060005260206000209060020201600090919091909150600082015181600001556020820151816001015550506000600660008373ffffffffffffffffffffffffffffffffffffffff1673ffffffffffffffffffffffffffffffffffffffff168152602001908152602001600020905060006004600086815260200190815260200160002060405180608001604052908160008201548152602001600182015481526020016002820154815260200160038201548152505090506005828681548110610604577f4e487b7100000000000000000000000000000000000000000000000000000000600052603260045260246000fd5b9060005260206000209060020201600101541115610657576040517f08c379a000000000000000000000000000000000000000000000000000000000815260040161064e90611dce565b60405180910390fd5b8060200151600260009054906101000a900473ffffffffffffffffffffffffffffffffffffffff1673ffffffffffffffffffffffffffffffffffffffff1662fdd58e8584600001516040518363ffffffff1660e01b81526004016106bc929190611c4d565b60206040518083038186803b1580156106d457600080fd5b505afa1580156106e8573d6000803e3d6000fd5b505050506040513d601f19601f8201168201806040525081019061070c9190611907565b1161074c576040517f08c379a000000000000000000000000000000000000000000000000000000000815260040161074390611d4e565b60405180910390fd5b600260009054906101000a900473ffffffffffffffffffffffffffffffffffffffff1673ffffffffffffffffffffffffffffffffffffffff1663f242432a8430846000015185602001516040518563ffffffff1660e01b81526004016107b59493929190611bac565b600060405180830381600087803b1580156107cf57600080fd5b505af11580156107e3573d6000803e3d6000fd5b5050505060008054906101000a900473ffffffffffffffffffffffffffffffffffffffff1673ffffffffffffffffffffffffffffffffffffffff1663ea59796a84836040015184606001516040518463ffffffff1660e01b815260040161084c93929190611c76565b600060405180830381600087803b15801561086657600080fd5b505af115801561087a573d6000803e3d6000fd5b50505050838286815481106108b8577f4e487b7100000000000000000000000000000000000000000000000000000000600052603260045260246000fd5b9060005260206000209060020201600101546108d49190611eff565b82868154811061090d577f4e487b7100000000000000000000000000000000000000000000000000000000600052603260045260246000fd5b9060005260206000209060020201600101819055505050505050565b6005602052816000526040600020818154811061094557600080fd5b9060005260206000209060020201600091509150508060000154908060010154905082565b60606003805480602002602001604051908101604052809291908181526020016000905b828210156109de578382906000526020600020906003020160405180606001604052908160008201548152602001600182015481526020016002820154815250508152602001906001019061098e565b50505050905090565b60066020528160005260406000208181548110610a0357600080fd5b9060005260206000209060020201600091509150508060000154908060010154905082565b8282600082829050905060005b81811015610ad1576003848483818110610a78577f4e487b7100000000000000000000000000000000000000000000000000000000600052603260045260246000fd5b905060200201351115610ac0576040517f08c379a0000000000000000000000000000000000000000000000000000000008152600401610ab790611dae565b60405180910390fd5b80610aca90612032565b9050610a35565b506000600560008673ffffffffffffffffffffffffffffffffffffffff1673ffffffffffffffffffffffffffffffffffffffff16815260200190815260200160002090506000600560008773ffffffffffffffffffffffffffffffffffffffff1673ffffffffffffffffffffffffffffffffffffffff168152602001908152602001600020805480602002602001604051908101604052809291908181526020016000905b82821015610bbc57838290600052602060002090600202016040518060400160405290816000820154815260200160018201548152505081526020019060010190610b76565b5050505090506000610c51878c8c80806020026020016040519081016040528093929190818152602001838360200280828437600081840152601f19601f820116905080830192505050505050508b8b80806020026020016040519081016040528093929190818152602001838360200280828437600081840152601f19601f82011690508083019250505050505050611026565b9050600080835114905060008a8a905090508115610d6a5760005b81811015610d645760008e8e83818110610caf577f4e487b7100000000000000000000000000000000000000000000000000000000600052603260045260246000fd5b90506020020135905060008d8d84818110610cf3577f4e487b7100000000000000000000000000000000000000000000000000000000600052603260045260246000fd5b90506020020135905087604051806040016040528084815260200183815250908060018154018082558091505060019003906000526020600020906002020160009091909190915060008201518160000155602082015181600101555050505080610d5d90612032565b9050610c6c565b50610df8565b610df7898e8e80806020026020016040519081016040528093929190818152602001838360200280828437600081840152601f19601f820116905080830192505050505050508d8d80806020026020016040519081016040528093929190818152602001838360200280828437600081840152601f19601f82011690508083019250505050505050611207565b5b82341015610e3b576040517f08c379a0000000000000000000000000000000000000000000000000000000008152600401610e3290611d6e565b60405180910390fd5b60008054906101000a900473ffffffffffffffffffffffffffffffffffffffff1673ffffffffffffffffffffffffffffffffffffffff1663e3fd44ee8a8f8f8f8f6040518663ffffffff1660e01b8152600401610e9c959493929190611c04565b600060405180830381600087803b158015610eb657600080fd5b505af1158015610eca573d6000803e3d6000fd5b50505050600160009054906101000a900473ffffffffffffffffffffffffffffffffffffffff1673ffffffffffffffffffffffffffffffffffffffff16637ee474448e8e8e8e8e6040518663ffffffff1660e01b8152600401610f31959493929190611ccf565b600060405180830381600087803b158015610f4b57600080fd5b505af1158015610f5f573d6000803e3d6000fd5b5050505050505050505050505050505050565b600098975050505050505050565b60046020528060005260406000206000915090508060000154908060010154908060020154908060030154905084565b60009695505050505050565b60007f01ffc9a7000000000000000000000000000000000000000000000000000000007bffffffffffffffffffffffffffffffffffffffffffffffffffffffff1916827bffffffffffffffffffffffffffffffffffffffffffffffffffffffff1916149050919050565b600080600560008673ffffffffffffffffffffffffffffffffffffffff1673ffffffffffffffffffffffffffffffffffffffff168152602001908152602001600020805480602002602001604051908101604052809291908181526020016000905b828210156110ce57838290600052602060002090600202016040518060400160405290816000820154815260200160018201548152505081526020019060010190611088565b5050505090506000845190506000805b828110156111f9576000611131888381518110611124577f4e487b7100000000000000000000000000000000000000000000000000000000600052603260045260246000fd5b60200260200101516114e3565b9050600085828151811061116e577f4e487b7100000000000000000000000000000000000000000000000000000000600052603260045260246000fd5b60200260200101516020015190506000600383815481106111b8577f4e487b7100000000000000000000000000000000000000000000000000000000600052603260045260246000fd5b906000526020600020906003020160020154905081816111d89190611f55565b856111e39190611eff565b9450505050806111f290612032565b90506110de565b508093505050509392505050565b6000825190506000600560008673ffffffffffffffffffffffffffffffffffffffff1673ffffffffffffffffffffffffffffffffffffffff16815260200190815260200160002090506000600560008773ffffffffffffffffffffffffffffffffffffffff1673ffffffffffffffffffffffffffffffffffffffff168152602001908152602001600020805480602002602001604051908101604052809291908181526020016000905b828210156112f7578382906000526020600020906002020160405180604001604052908160008201548152602001600182015481525050815260200190600101906112b1565b50505050905060005b838110156114da576000611353878381518110611346577f4e487b7100000000000000000000000000000000000000000000000000000000600052603260045260246000fd5b60200260200101516114e3565b90506000838281518110611390577f4e487b7100000000000000000000000000000000000000000000000000000000600052603260045260246000fd5b60200260200101516020015190506003818885815181106113da577f4e487b7100000000000000000000000000000000000000000000000000000000600052603260045260246000fd5b60200260200101516113ec9190611eff565b111561142d576040517f08c379a000000000000000000000000000000000000000000000000000000000815260040161142490611dce565b60405180910390fd5b868381518110611466577f4e487b7100000000000000000000000000000000000000000000000000000000600052603260045260246000fd5b6020026020010151816114799190611eff565b8583815481106114b2577f4e487b7100000000000000000000000000000000000000000000000000000000600052603260045260246000fd5b9060005260206000209060020201600101819055505050806114d390612032565b9050611300565b50505050505050565b600080600380549050905060005b8181101561156757600060038281548110611535577f4e487b7100000000000000000000000000000000000000000000000000000000600052603260045260246000fd5b906000526020600020906003020160000154905084811415611555578193505b508061156090612032565b90506114f1565b5050919050565b60008135905061157d816121ec565b92915050565b60008083601f84011261159557600080fd5b8235905067ffffffffffffffff8111156115ae57600080fd5b6020830191508360208202830111156115c657600080fd5b9250929050565b6000813590506115dc81612203565b92915050565b60008083601f8401126115f457600080fd5b8235905067ffffffffffffffff81111561160d57600080fd5b60208301915083600182028301111561162557600080fd5b9250929050565b60008135905061163b8161221a565b92915050565b6000815190506116508161221a565b92915050565b6000806040838503121561166957600080fd5b60006116778582860161156e565b92505060206116888582860161156e565b9150509250929050565b60008060008060008060008060a0898b0312156116ae57600080fd5b60006116bc8b828c0161156e565b98505060206116cd8b828c0161156e565b975050604089013567ffffffffffffffff8111156116ea57600080fd5b6116f68b828c01611583565b9650965050606089013567ffffffffffffffff81111561171557600080fd5b6117218b828c01611583565b9450945050608089013567ffffffffffffffff81111561174057600080fd5b61174c8b828c016115e2565b92509250509295985092959890939650565b60008060008060008060a0878903121561177757600080fd5b600061178589828a0161156e565b965050602061179689828a0161156e565b95505060406117a789828a0161162c565b94505060606117b889828a0161162c565b935050608087013567ffffffffffffffff8111156117d557600080fd5b6117e189828a016115e2565b92509250509295509295509295565b6000806040838503121561180357600080fd5b60006118118582860161156e565b92505060206118228582860161162c565b9150509250929050565b60008060008060006060868803121561184457600080fd5b600086013567ffffffffffffffff81111561185e57600080fd5b61186a88828901611583565b9550955050602086013567ffffffffffffffff81111561188957600080fd5b61189588828901611583565b935093505060406118a88882890161156e565b9150509295509295909350565b6000602082840312156118c757600080fd5b60006118d5848285016115cd565b91505092915050565b6000602082840312156118f057600080fd5b60006118fe8482850161162c565b91505092915050565b60006020828403121561191957600080fd5b600061192784828501611641565b91505092915050565b60008060006060848603121561194557600080fd5b60006119538682870161162c565b93505060206119648682870161162c565b92505060406119758682870161156e565b9150509250925092565b600061198b8383611b4c565b60608301905092915050565b6119a081611faf565b82525050565b60006119b182611ea3565b6119bb8185611ebb565b93506119c683611e93565b8060005b838110156119f75781516119de888261197f565b97506119e983611eae565b9250506001810190506119ca565b5085935050505092915050565b6000611a108385611ecc565b93507f07ffffffffffffffffffffffffffffffffffffffffffffffffffffffffffffff831115611a3f57600080fd5b602083029250611a50838584612023565b82840190509392505050565b611a6581611fc1565b82525050565b611a7481611fcd565b82525050565b6000611a87602f83611eee565b9150611a92826120aa565b604082019050919050565b6000611aaa601983611eee565b9150611ab5826120f9565b602082019050919050565b6000611acd602883611eee565b9150611ad882612122565b604082019050919050565b6000611af0600083611edd565b9150611afb82612171565b600082019050919050565b6000611b13602783611eee565b9150611b1e82612174565b604082019050919050565b6000611b36601283611eee565b9150611b41826121c3565b602082019050919050565b606082016000820151611b626000850182611b8e565b506020820151611b756020850182611b8e565b506040820151611b886040850182611b8e565b50505050565b611b9781612019565b82525050565b611ba681612019565b82525050565b600060a082019050611bc16000830187611997565b611bce6020830186611997565b611bdb6040830185611b9d565b611be86060830184611b9d565b8181036080830152611bf981611ae3565b905095945050505050565b6000606082019050611c196000830188611997565b8181036020830152611c2c818688611a04565b90508181036040830152611c41818486611a04565b90509695505050505050565b6000604082019050611c626000830185611997565b611c6f6020830184611b9d565b9392505050565b6000606082019050611c8b6000830186611997565b611c986020830185611b9d565b611ca56040830184611b9d565b949350505050565b60006020820190508181036000830152611cc781846119a6565b905092915050565b60006060820190508181036000830152611cea818789611a04565b90508181036020830152611cff818587611a04565b9050611d0e6040830184611997565b9695505050505050565b6000602082019050611d2d6000830184611a5c565b92915050565b6000602082019050611d486000830184611a6b565b92915050565b60006020820190508181036000830152611d6781611a7a565b9050919050565b60006020820190508181036000830152611d8781611a9d565b9050919050565b60006020820190508181036000830152611da781611ac0565b9050919050565b60006020820190508181036000830152611dc781611b06565b9050919050565b60006020820190508181036000830152611de781611b29565b9050919050565b6000604082019050611e036000830185611b9d565b611e106020830184611b9d565b9392505050565b6000606082019050611e2c6000830186611b9d565b611e396020830185611b9d565b611e466040830184611b9d565b949350505050565b6000608082019050611e636000830187611b9d565b611e706020830186611b9d565b611e7d6040830185611b9d565b611e8a6060830184611b9d565b95945050505050565b6000819050602082019050919050565b600081519050919050565b6000602082019050919050565b600082825260208201905092915050565b600082825260208201905092915050565b600082825260208201905092915050565b600082825260208201905092915050565b6000611f0a82612019565b9150611f1583612019565b9250827fffffffffffffffffffffffffffffffffffffffffffffffffffffffffffffffff03821115611f4a57611f4961207b565b5b828201905092915050565b6000611f6082612019565b9150611f6b83612019565b9250817fffffffffffffffffffffffffffffffffffffffffffffffffffffffffffffffff0483118215151615611fa457611fa361207b565b5b828202905092915050565b6000611fba82611ff9565b9050919050565b60008115159050919050565b60007fffffffff0000000000000000000000000000000000000000000000000000000082169050919050565b600073ffffffffffffffffffffffffffffffffffffffff82169050919050565b6000819050919050565b82818337600083830152505050565b600061203d82612019565b91507fffffffffffffffffffffffffffffffffffffffffffffffffffffffffffffffff8214156120705761206f61207b565b5b600182019050919050565b7f4e487b7100000000000000000000000000000000000000000000000000000000600052601160045260246000fd5b7f596f7520646f6e2774206861766520656e6f756768206974656d73206e65656460008201527f6564206f72207468652074726164650000000000000000000000000000000000602082015250565b7f57726f6e672076616c7565206f662065746865722073656e7400000000000000600082015250565b7f54686572652773206f6e6c7920352073746f636b73207065722074726164652060008201527f6576657279646179000000000000000000000000000000000000000000000000602082015250565b50565b7f54686572652773206f6e6c7920332073746f636b7320706572206974656d206560008201527f7665727964617900000000000000000000000000000000000000000000000000602082015250565b7f596f752068697420796f7572206c696d69740000000000000000000000000000600082015250565b6121f581611faf565b811461220057600080fd5b50565b61220c81611fcd565b811461221757600080fd5b50565b61222381612019565b811461222e57600080fd5b5056fea2646970667358221220ef1ee323c5750d56299bb7edee3a440d489bb3ae15d45c34ae16e2069d1db84f64736f6c63430008040033",
  "linkReferences": {},
  "deployedLinkReferences": {}
}